:020000040800F2
:10000000000002200543000855420008574200083E
:10001000594200085B4200085D42000800000000F1
:100020000000000000000000000000005F42000827
:1000300061420008000000006342000865420008B9
:100040005543000855430008554300085543000830
:100050005543000855430008554300085543000820
:100060005543000855430008554300085543000810
:100070005543000855430008554300085543000800
:1000800055430008554300085543000855430008F0
:1000900055430008554300085543000855430008E0
:1000A00055430008554300085543000855430008D0
:1000B00055430008554300085543000855430008C0
:1000C00055430008554300085543000855430008B0
:1000D00055430008554300085543000855430008A0
:1000E0005543000855430008554300085543000890
:1000F0005543000855430008554300085543000880
:10010000554300085543000855430008554300086F
:1001100055430008554300086D4200085543000848
:10012000554300085543000855430008554300084F
:10013000554300080000000000000000554300087F
:10014000554300085543000855430008554300082F
:10015000554300085543000855430008554300081F
:10016000554300085543000855430008554300080F
:10017000554300085543000855430008000000009F
:1001800000000000554300080000000000000000CF
:10019000554300080000000000000000554300081F
:1001A00000000000000000000000000055430008AF
:1001B00055430008554300085543000855430008BF
:0401C000554300089B
:1001D00010B5054C237833B9044B13B10448AFF381
:1001E00000800123237010BD840000200000000067
:1001F0002455000808B5034B1BB103490348AFF36E
:10020000008008BD00000000880000202455000880
:1002100081F0004102E000BF83F0004330B54FEAB7
:1002200041044FEA430594EA050F08BF90EA020F24
:100230001FBF54EA000C55EA020C7FEA645C7FEAB7
:10024000655C00F0E2804FEA5454D4EB5555B8BFDA
:100250006D420CDD2C4480EA020281EA030382EA4B
:10026000000083EA010180EA020281EA0303362DDD
:1002700088BF30BD11F0004F4FEA01314FF4801CB0
:100280004CEA113102D0404261EB410113F0004FC2
:100290004FEA03334CEA133302D0524263EB430379
:1002A00094EA050F00F0A780A4F10104D5F1200E17
:1002B0000DDB02FA0EFC22FA05F2801841F1000172
:1002C00003FA0EF2801843FA05F359410EE0A5F146
:1002D00020050EF1200E012A03FA0EFC28BF4CF077
:1002E000020C43FA05F3C01851EBE37101F000452D
:1002F00007D54FF0000EDCF1000C7EEB00006EEB3A
:100300000101B1F5801F1BD3B1F5001F0CD34908C3
:100310005FEA30004FEA3C0C04F101044FEA44521A
:1003200012F5800F80F09A80BCF1004F08BF5FEAA1
:10033000500C50F1000041EB045141EA050130BD81
:100340005FEA4C0C404141EB010111F4801FA4F124
:100350000104E9D191F0000F04BF01460020B1FA79
:1003600081F308BF2033A3F10B03B3F120020CDAB1
:100370000C3208DD02F1140CC2F10C0201FA0CF08F
:1003800021FA02F10CE002F11402D8BFC2F1200CF4
:1003900001FA02F120FA0CFCDCBF41EA0C019040AA
:1003A000E41AA2BF01EB0451294330BD6FEA0404F3
:1003B0001F3C1CDA0C340EDC04F11404C4F12002DE
:1003C00020FA04F001FA02F340EA030021FA04F3F0
:1003D00045EA030130BDC4F10C04C4F1200220FA47
:1003E00002F001FA04F340EA0300294630BD21FA85
:1003F00004F0294630BD94F0000F83F4801306BF4B
:1004000081F480110134013D4EE77FEA645C18BF3E
:100410007FEA655C29D094EA050F08BF90EA020FD5
:1004200005D054EA000C04BF1946104630BD91EACD
:10043000030F1EBF0021002030BD5FEA545C05D1D0
:100440004000494128BF41F0004130BD14F580040F
:100450003CBF01F5801130BD01F0004545F0FE4183
:1004600041F470014FF0000030BD7FEA645C1ABFB8
:10047000194610467FEA655C1CBF0B46024650EAEF
:10048000013406BF52EA033591EA030F41F400211B
:1004900030BD00BF90F0000F04BF0021704730B5A1
:1004A0004FF4806404F132044FF000054FF0000176
:1004B00050E700BF90F0000F04BF0021704730B537
:1004C0004FF4806404F1320410F0004548BF40420C
:1004D0004FF000013EE700BF42004FEAE2014FEA61
:1004E00031014FEA02701FBF12F07F4393F07F4F3C
:1004F00081F06051704732F07F4208BF704793F03F
:100500007F4F04BF41F40021704730B54FF4607451
:1005100001F0004521F000411CE700BF50EA010254
:1005200008BF704730B54FF000050AE050EA0102FD
:1005300008BF704730B511F0004502D5404261EB6D
:1005400041014FF4806404F132045FEA915C3FF4AE
:10055000D8AE4FF003025FEADC0C18BF03325FEA4B
:10056000DC0C18BF033202EBDC02C2F1200300FAFC
:1005700003FC20FA02F001FA03FE40EA0E0021FA21
:1005800002F11444BDE600BF70B54FF0FF0C4CF40F
:10059000E06C1CEA11541DBF1CEA135594EA0C0FC1
:1005A00095EA0C0F00F0DEF82C4481EA030621EAFC
:1005B0004C5123EA4C5350EA013518BF52EA033537
:1005C00041F4801143F4801338D0A0FB02CE4FF0E9
:1005D0000005E1FB02E506F00042E0FB03E54FF019
:1005E0000006E1FB03569CF0000F18BF4EF0010E11
:1005F000A4F1FF04B6F5007F64F5407404D25FEA0D
:100600004E0E6D4146EB060642EAC62141EA5551BF
:100610004FEAC52040EA5E504FEACE2EB4F1FD0C01
:1006200088BFBCF5E06F1ED8BEF1004F08BF5FEA7F
:10063000500E50F1000041EB045170BD06F0004631
:1006400046EA010140EA020081EA0301B4EB5C04DE
:10065000C2BFD4EB0C0541EA045170BD41F48011D6
:100660004FF0000E013C00F3AB8014F1360FDEBFFB
:10067000002001F0004170BDC4F10004203C35DAD7
:100680000C341BDC04F11404C4F1200500FA05F35A
:1006900020FA04F001FA05F240EA020001F00042FB
:1006A00021F0004110EBD37021FA04F642EB060171
:1006B0005EEA430E08BF20EAD37070BDC4F10C049B
:1006C000C4F1200500FA04F320FA05F001FA04F25F
:1006D00040EA020001F0004110EBD37041F100014B
:1006E0005EEA430E08BF20EAD37070BDC4F1200556
:1006F00000FA05F24EEA020E20FA04F301FA05F2BE
:1007000043EA020321FA04F001F0004121FA04F265
:1007100020EA020000EBD3705EEA430E08BF20EA35
:10072000D37070BD94F0000F0FD101F0004640006F
:1007300041EB010111F4801F08BF013CF7D041EAF1
:10074000060195F0000F18BF704703F000465200F5
:1007500043EB030313F4801F08BF013DF7D043EAC6
:100760000603704794EA0C0F0CEA135518BF95EA7C
:100770000C0F0CD050EA410618BF52EA4306D1D103
:1007800081EA030101F000414FF0000070BD50EA22
:10079000410606BF1046194652EA430619D094EAAC
:1007A0000C0F02D150EA013613D195EA0C0F05D196
:1007B00052EA03361CBF104619460AD181EA0301EA
:1007C00001F0004141F0FE4141F470014FF00000A2
:1007D00070BD41F0FE4141F4780170BD70B54FF03D
:1007E000FF0C4CF4E06C1CEA11541DBF1CEA1355BD
:1007F00094EA0C0F95EA0C0F00F0A7F8A4EB05049F
:1008000081EA030E52EA03354FEA013100F0888095
:100810004FEA03334FF0805545EA131343EA12635E
:100820004FEA022245EA111545EA10654FEA002613
:100830000EF000419D4208BF964244F1FD0404F5CC
:10084000407402D25B084FEA3202B61A65EB030528
:100850005B084FEA32024FF480104FF4002CB6EBE5
:10086000020E75EB030E22BFB61A754640EA0C0065
:100870005B084FEA3202B6EB020E75EB030E22BFA5
:10088000B61A754640EA5C005B084FEA3202B6EBE6
:10089000020E75EB030E22BFB61A754640EA9C00A5
:1008A0005B084FEA3202B6EB020E75EB030E22BF75
:1008B000B61A754640EADC0055EA060E18D04FEA33
:1008C000051545EA16754FEA06164FEAC30343EAD3
:1008D00052734FEAC2025FEA1C1CC0D111F4801FA0
:1008E0000BD141EA00014FF000004FF0004CB6E799
:1008F00011F4801F04BF01430020B4F1FD0C88BF38
:10090000BCF5E06F3FF6AFAEB5EB030C04BFB6EB42
:10091000020C5FEA500C50F1000041EB045170BD35
:100920000EF0004E4EEA113114EB5C04C2BFD4EB62
:100930000C0541EA045170BD41F480114FF0000EE6
:10094000013C90E645EA060E8DE60CEA135594EA62
:100950000C0F08BF95EA0C0F3FF43BAF94EA0C0F65
:100960000AD150EA01347FF434AF95EA0C0F7FF4DA
:1009700025AF104619462CE795EA0C0F06D152EA2E
:1009800003353FF4FDAE1046194622E750EA410612
:1009900018BF52EA43067FF4C5AE50EA41047FF423
:1009A0000DAF52EA43057FF4EBAE12E74FF0FF3C88
:1009B00006E000BF4FF0010C02E000BF4FF0010C59
:1009C0004DF804CD4FEA410C7FEA6C5C4FEA430CD2
:1009D00018BF7FEA6C5C1BD001B050EA410C0CBF21
:1009E00052EA430C91EA030F02BF90EA020F002083
:1009F000704710F1000F91EA030F58BF994208BFEA
:100A000090422CBFD8176FEAE37040F001007047A6
:100A10004FEA410C7FEA6C5C02D150EA013C07D1FD
:100A20004FEA430C7FEA6C5CD6D152EA033CD3D048
:100A30005DF8040B704700BF8446104662468C4642
:100A40001946634600E000BF01B5FFF7B7FF002875
:100A500048BF10F1000F01BD4DF808EDFFF7F4FF9E
:100A60000CBF012000205DF808FB00BF4DF808ED29
:100A7000FFF7EAFF34BF012000205DF808FB00BF4C
:100A80004DF808EDFFF7E0FF94BF012000205DF86E
:100A900008FB00BF4DF808EDFFF7CEFF94BF012023
:100AA00000205DF808FB00BF4DF808EDFFF7C4FF1C
:100AB00034BF012000205DF808FB00BF4FEA41026F
:100AC00012F5001215D211D56FF47873B3EB6252A0
:100AD00012D94FEAC12343F0004343EA505311F0C7
:100AE000004F23FA02F018BF404270474FF0000059
:100AF000704750EA013005D111F0004008BF6FF097
:100B0000004070474FF00000704700BF4FEA4102BD
:100B1000B2F1E04324BFB3F5001CDCF1FE5C0DD95B
:100B200001F0004C4FEAC0024CEA5070B2F1004FA5
:100B300040EB830008BF20F00100704711F0804FA8
:100B400021D113F13872BCBF01F00040704741F46D
:100B500080114FEA5252C2F11802C2F1200C10FA71
:100B60000CF320FA02F018BF40F001004FEAC12355
:100B70004FEAD32303FA0CFC40EA0C0023FA02F3F9
:100B80004FEA4303CCE77FEA625307D150EA0133CF
:100B90001EBF4FF0FE4040F44000704701F000409F
:100BA00040F0FE4040F40000704700BF53B94AB91E
:100BB000002908BF00281CBF4FF0FF314FF0FF3065
:100BC00000F072B9ADF1080C6DE904CE00F006F842
:100BD000DDF804E0DDE9022304B070472DE9F047B9
:100BE000089E04468846002B4BD18A42154667D999
:100BF000B2FA82F24AB1C2F1200701FA02F320FAF6
:100C000007F7954047EA030894404FEA154E230C36
:100C1000B8FBFEF71FFA85FC0EFB178843EA084372
:100C200007FB0CF1994209D9EB1807F1FF3080F06E
:100C30001B81994240F21881023F2B445B1AA4B2F7
:100C4000B3FBFEF00EFB103344EA034400FB0CFC44
:100C5000A44509D92C1900F1FF3380F00781A44580
:100C600040F2048102382C4440EA0740A4EB0C0413
:100C700000271EB1D4400023C6E900433946BDE831
:100C8000F0878B4209D9002E00F0EB800027C6E9DF
:100C9000000138463946BDE8F087B3FA83F7002FE4
:100CA00047D18B4202D3824200F2FA80841A61EB70
:100CB000030301209846002EE0D0C6E90048DDE796
:100CC00002B9FFDEB2FA82F2002A40F08F80491B9F
:100CD0004FEA154E1FFA85F80127B1FBFEFC230CE5
:100CE0000EFB1C1143EA014308FB0CF1994207D9A2
:100CF000EB180CF1FF3002D2994200F2CD8084460D
:100D0000591AA3B2B1FBFEF00EFB101443EA0444DF
:100D100008FB00F8A04507D92C1900F1FF3302D2D7
:100D2000A04500F2B6801846A4EB080440EA0C4047
:100D30009FE7C7F1200CBB4022FA0CFE4EEA030EDF
:100D400001FA07F420FA0CF521FA0CF34FEA1E48D9
:100D50002543B3FBF8F92C0C08FB19331FFA8EFA64
:100D600044EA034309FB0AF49C4202FA07F200FA40
:100D700007F10BD91EEB030309F1FF3080F08780E8
:100D80009C4240F28480A9F1020973441B1BADB25E
:100D9000B3FBF8F008FB103345EA034400FB0AFA02
:100DA000A24508D91EEB040400F1FF336BD2A24523
:100DB00069D90238744440EA0940A0FB0289A4EBD7
:100DC0000A044C45C2464B4654D351D0002E69D03C
:100DD000B1EB0A0564EB030404FA0CFCFD40FC4093
:100DE0004CEA0505C6E90054002747E7C2F1200395
:100DF00020FA03F7954001FA02F021FA03F34FEAD3
:100E0000154E3843010CB3FBFEF71FFA85F80EFBB5
:100E1000173341EA034107FB08F38B4204FA02F45B
:100E200007D9691807F1FF3C2FD28B422DD9023F19
:100E30002944CB1A81B2B3FBFEF00EFB103341EA1A
:100E4000034100FB08F38B4207D9691800F1FF3C0E
:100E500017D28B4215D902382944C91A40EA0747EC
:100E60003BE73746304609E70746E7E61846FBE624
:100E70004145ABD2B8EB020A69EB0E0201381346CA
:100E8000A4E76046E9E7184695E76746D1E781465B
:100E90007CE702382C4447E7ACF1020C2B442FE7E7
:100EA000384608E73746E9E6704700BF034613F8BF
:100EB000012B002AFBD1181A0138704700000000EE
:100EC00001F0FF01102A2BDB10F0070F08D010F8FB
:100ED000013B013A8B422DD010F0070F42B3F6D1FF
:100EE000F0B441EA012141EA014122F007047FF018
:100EF00000070023F0E80256083C85EA010586EA6F
:100F0000010685FA47F5A3FA87F586FA47F6A5FAAA
:100F100087F68EB9EED1F0BC01F0FF0102F00702B6
:100F200032B110F8013B013A83EA010313B1F8D161
:100F30000020704701387047002D06BF3546033842
:100F4000073815F0010F07D1013015F4807F02BF7B
:100F5000013015F4C03F0130F0BC0138704700BFCC
:100F600010B504460E4B18784FF47A73B3FBF0F3C8
:100F70000C4A1068B0FBF3F000F0AAF868B90F2C27
:100F800001D901200AE0002221464FF0FF3000F095
:100F90005DF8034B5C60002000E0012010BD00BF45
:100FA000000000201800002008B50B4B1A6842F41E
:100FB00000721A601A6842F480621A601A6842F479
:100FC00080721A60032000F02FF80020FFF7C8FF9E
:100FD00002F044FF002008BD003C0240034A1168B3
:100FE000034B1B780B441360704700BFBC0100200B
:100FF00000000020014B1868704700BFBC010020B2
:1010000038B50446FFF7F6FF0546B4F1FF3F02D0BE
:10101000044B1B781C44FFF7EDFF401BA042FAD3A2
:1010200038BD00BF00000020074AD36823F4E06306
:101030001B041B0C000200F4E060184340F0BF608A
:1010400040F40030D060704700ED00E030B4174B42
:10105000DB68C3F30223C3F10704042C28BF042474
:101060001D1D062D18D9033B4FF0FF3505FA04F47A
:1010700021EA0401994005FA03F322EA0303194324
:1010800000280BDB0901C9B200F1604000F56140A6
:1010900080F8001330BC70470023E5E700F00F0034
:1010A0000901C9B2024B1954F4E700BF00ED00E09A
:1010B00014ED00E0002807DB00F01F0240090123C7
:1010C0009340024A42F82030704700BF00E100E040
:1010D0000138B0F1807F0AD2064B5860064AF021F1
:1010E00082F823100020986007221A6070470120C0
:1010F000704700BF10E000E000ED00E000230F2B80
:1011000000F2D180F0B482B039E0062200E0002283
:10111000B2403A430234644E46F82420634A1468CD
:10112000EA4302EA04064F6817F4803F01D045EA1B
:1011300004065E4C2660646802EA04064F6817F4F1
:10114000003F01D045EA0406584C6660A46802EAF4
:1011500004064F6817F4801F01D045EA0406534C7B
:10116000A660E46822404E6816F4001F01D045EAEC
:1011700004024E4CE26001330F2B00F291800122F9
:101180009A400C6804EA0205AA42F4D14C68022C89
:1011900001D0122C10D1DE08083650F826C003F01A
:1011A0000704A7000F24BC402CEA040C0C69BC40C7
:1011B00044EA0C0440F8264004685F000326BE4061
:1011C000F64306EA040C4C6804F00304BC4044EA0D
:1011D0000C0404604C6804F1FF3CBCF1010F03D91E
:1011E000112C01D0122C10D1846806EA040CCC68B2
:1011F000BC4044EA0C048460446824EA02024C685F
:10120000C4F300149C4014434460C26816408A68CA
:10121000BA403243C2604A6812F0805FABD000220D
:101220000192234A546C44F480445464526C02F496
:1012300080420192019A9C08A61C1B4A52F8267013
:1012400003F0030296000F22B24027EA0207194A70
:1012500090423FF45CAF02F58062904216D002F5F6
:101260008062904214D002F58062904212D002F562
:101270008062904210D002F5806290420ED002F55A
:10128000806290423FF441AF072241E701223FE7ED
:1012900002223DE703223BE7042239E7052237E734
:1012A00002B0F0BC7047704700380140003C01407C
:1012B00000380240000002400369194201D10020B9
:1012C00070470120704712B909048161704781613C
:1012D00070470000002800F09D8070B504464F4B19
:1012E0001B6803F00F038B4209D2CBB24B4A137039
:1012F000136803F00F038B4201D0012070BD2368F7
:1013000013F0020F17D013F0040F04D0444A93686F
:1013100043F4E0539360236813F0080F04D0404A6D
:10132000936843F4604393603D4A936823F0F0036D
:10133000A068034393600D46236813F0010F32D079
:101340006368012B21D09A1E012A25D9344A1268DC
:1013500012F0020F60D032498A6822F00302134370
:101360008B60FFF747FE06462D4B9B6803F00C038E
:101370006268B3EB820F16D0FFF73CFE801B41F290
:1013800088339842F0D90320B8E7254A126812F44E
:10139000003FE0D10120B1E7214A126812F0007F3E
:1013A000D9D10120AAE71D4B1B6803F00F03AB4204
:1013B00009D9EAB2194B1A701B6803F00F03AB424C
:1013C00001D001209AE7236813F0040F06D0144AD5
:1013D000936823F4E053E1680B439360236813F0B0
:1013E000080F07D00E4A936823F46043216943EA4B
:1013F000C103936000F040F8094B9B68C3F30313EB
:10140000084AD35CD840084B18600020FFF7A8FDBD
:10141000002073E70120704701206FE7003C024085
:10142000003802404055000818000020014B1868A1
:10143000704700BF1800002008B5FFF7F7FF044B06
:101440009B68C3F38223034AD35CD84008BD00BF26
:10145000003802405055000808B5FFF7E7FF044B7D
:101460009B68C3F34233034AD35CD84008BD00BF36
:1014700000380240505500082DE9F04B5C4B9B684A
:1014800003F00C03082B07D00C2B5BD0042B00F0CF
:10149000AD805848BDE8F08B554B5A6802F03F02CA
:1014A0005B6813F4800F2AD0514B5B68C3F3881339
:1014B0001E4600275C010025E41A65EB0705A9011B
:1014C00041EA9461A001001B61EB0501CB0043EAF6
:1014D0005073C400A01943EB07014B0243EAD053F9
:1014E0004402204619460023FFF760FB404B5B682F
:1014F000C3F3014301335B00B0FBF3F0CAE73C4B9D
:101500005B68C3F388131E4600275C010025E41ABC
:1015100065EB0705A90141EA9461A001001B61EB9D
:101520000501CB0043EA5073C400A01943EB070147
:101530008B0243EA90538402204619460023FFF7AA
:1015400035FBD3E72A4B5A6802F03F025B6813F47D
:10155000800F28D0264B5B68C3F388131E460027F4
:101560005C010025E41A65EB0705A90141EA9461D5
:10157000A001001B61EB0501CB0043EA5073C400DE
:10158000A01943EB07014B0243EAD0534402204623
:1015900019460023FFF70AFB154B5B68C3F3027380
:1015A000B0FBF3F076E7124B5B68C3F388131E467B
:1015B00000275C010025E41A65EB0705A90141EA53
:1015C0009461A001001B61EB0501CB0043EA50735D
:1015D000C400A01943EB07018B0243EA9053840235
:1015E000204619460023FFF7E1FAD5E7024851E704
:1015F000003802400024F40000127A0070B582B076
:101600000446036813F0010F41D0A64B9B6803F01A
:101610000C03042B32D0A34B9B6803F00C03082B64
:1016200027D0A04B9B6803F00C030C2B59D06368A8
:10163000B3F5803F5BD0B3F5A02F5ED0994B1A680D
:1016400022F480321A601A6822F480221A606368D9
:10165000002B5CD0FFF7CEFC0546924B1B6813F4C1
:10166000003F14D1FFF7C6FC401B6428F5D90320C6
:101670009DE18C4B5B6813F4800FD2D0894B1B68C3
:1016800013F4003F03D06368002B00F08D812368C2
:1016900013F0020F67D0834B9B6813F00C0F4AD0F6
:1016A000804B9B6803F00C03082B3FD07D4B9B685D
:1016B00003F00C030C2B48D0E368002B74D07A4B5A
:1016C00001221A60FFF796FC0546764B1B6813F063
:1016D000020F60D1FFF78EFC401B0228F5D90320D2
:1016E00065E1704B5B6813F4800FA0D0C6E76D4ACC
:1016F000136843F480331360A9E76A4B1A6842F415
:1017000080221A601A6842F480321A609FE7FFF75D
:1017100071FC0546634B1B6813F4003FB7D0FFF71D
:1017200069FC401B6428F5D9032040E15D4B5B68F0
:1017300013F4800FBAD15B4B1B6813F0020F0AD071
:10174000E368012B07D0012031E1564B5B6813F4AD
:10175000800FB1D1EFE7534A136823F0F8032169F2
:1017600043EAC1031360236813F0080F40D0636994
:1017700063B34E4B01221A60FFF73CFC0546494B10
:101780005B6F13F0020F33D1FFF734FC401B0228CC
:10179000F5D903200BE1434A136823F0F8032169CC
:1017A00043EAC1031360DEE73F4B00221A60FFF7F4
:1017B00021FC05463B4B1B6813F0020FD3D0FFF70B
:1017C00019FC401B0228F5D90320F0E0374B00221A
:1017D0001A60FFF70FFC0546324B5B6F13F0020FE8
:1017E00006D0FFF707FC401B0228F5D90320DEE0F6
:1017F000236813F0040F79D02A4B1B6C13F0805F21
:1018000033D100230193274B1A6C42F080521A64A3
:101810001B6C03F080530193019B0125244B1B6833
:1018200013F4807F23D0A368012B34D0052B41D043
:101830001C4B1A6F22F001021A671A6F22F0040281
:101840001A67A368002B3FD0FFF7D4FB0646154B61
:101850001B6F13F0020F48D1FFF7CCFB801B41F246
:1018600088339842F3D90320A1E00025D6E7104A37
:10187000136843F480731360FFF7BCFB06460C4B00
:101880001B6813F4807FCED1FFF7B4FB801B0228C6
:10189000F5D903208BE0034A136F43F0010313676C
:1018A000CFE700BF0038024000004742800E4742A9
:1018B00000700040404B1A6F42F004021A671A6F22
:1018C00042F001021A67BCE7FFF794FB06463A4B69
:1018D0001B6F13F0020F08D0FFF78CFB801B41F247
:1018E00088339842F3D9032061E0E5B9A369002B5E
:1018F0005CD0314A926802F00C02082A59D0022BBF
:1019000017D02E4B00221A60FFF774FB04462A4BB7
:101910001B6813F0007F45D0FFF76CFB001B02280B
:10192000F5D9032043E0244A136C23F08053136459
:10193000DCE7224B00221A60FFF75CFB05461E4BDA
:101940001B6813F0007F06D0FFF754FB401B0228F2
:10195000F5D903202BE0E369226A1343626A43EA64
:101960008213A26A5208013A43EA0243E26A43EA56
:101970000263226B43EA02730F4A53600F4B01224A
:101980001A60FFF737FB04460B4B1B6813F0007F10
:1019900006D1FFF72FFB001B0228F5D9032006E034
:1019A000002004E0002002E0012000E0002002B05E
:1019B00070BD0120FBE700BF0038024060004742D5
:1019C000F8B505460F4616461C462B689B6837EA55
:1019D00003030CBF01230023B34237D0B4F1FF3F10
:1019E000F3D0FFF707FB069BC01AA04201D2002CE0
:1019F000EBD12A68536823F0E00353606B68B3F5BA
:101A0000827F0BD0AB6AB3F5005F14D0012385F859
:101A10005130002385F85030032018E0AB68B3F54F
:101A2000004F02D0B3F5806FECD12A68136823F021
:101A300040031360E6E72A68136823F40053136039
:101A40002A68136843F400531360DFE70020F8BDF1
:101A500030B585B0164C2468164DA5FB0434640DD2
:101A60004FF47A7505FB04F403944468B4F5827F5F
:101A70000BD0039BC3B1039B013B039303689B689B
:101A800013F0800FF5D100230FE00B4604460092BF
:101A900000228021FFF794FF034630B1636D43F0CD
:101AA00020036365032300E00023184605B030BD22
:101AB00018000020819F5E1600283BD010B5044618
:101AC0000023836290F85130002B2ED0022384F83B
:101AD00051302268136823F0400313606368A268E2
:101AE0001343E26813432269134362691343A269F3
:101AF00002F400721343E2691343226A1343A16A9A
:101B000022680B431360638B03F00403616A22684D
:101B10000B4353602268D36923F40063D361002030
:101B20006065012384F8513010BD80F8503002F018
:101B3000B5F9CBE7012070472DE9F04383B0DDF81C
:101B4000288090F85040012C00F00B811D4617466C
:101B50000E460446012380F85030FFF74BFA8146C9
:101B600094F85100C0B26368012815D0B3F5827FA4
:101B70000AD00223012284F85120002284F8502048
:101B8000184603B0BDE8F083A368002B40F0DB806B
:101B9000042801D00223EDE7002E00F0D680002FAC
:101BA00000F0D580002D00F0D48094F85130DBB2E5
:101BB000042B02D0052384F8513000236365A7630A
:101BC000E587A5872663E586A58623646364236885
:101BD0001A6812F0400F03D11A6842F040021A60EE
:101BE000E368B3F5006F10D063680BB1012D0AD123
:101BF000226B236812781A73236B01332363E38EFD
:101C0000013B9BB2E386012569E063680BB1012DBE
:101C10000AD1226B23681288DA60236B02332363B4
:101C2000E38E013B9BB2E38601251BE023689A68A3
:101C300012F0010F0DD0E28F92B252B1DA68A36BAD
:101C40001A80A36B0233A363E38F013B9BB2E3874C
:101C50000125FFF7CFF9A0EB0900404502D3B8F109
:101C6000FF3F78D1E38E9BB21BB9E38F9BB2002B71
:101C700052D023689A6812F0020FD7D0E28E92B247
:101C8000002AD3D0002DD1D0226B1288DA60236BCA
:101C900002332363E38E013B9BB2E3860025C5E755
:101CA00023689A6812F0010F0DD0E28F92B252B100
:101CB000DA68A36B1A70A36B0133A363E38F013B54
:101CC0009BB2E3870125FFF795F9A0EB090040459A
:101CD00002D3B8F1FF3F40D1B8F1000F3FD0E38EFF
:101CE0009BB213B9E38F9BB2B3B123689A6812F029
:101CF000020FD5D0E28E92B2002AD1D0002DCFD0E3
:101D0000226B12781A73236B01332363E38E013B3A
:101D10009BB2E3860025C3E74A4641462046FFF7CB
:101D200097FE034618B120236365012322E7A268CA
:101D3000002A7FF41FAF01922268D1680191926856
:101D40000192019A16E7022314E7012312E7012307
:101D500010E701230EE703230CE703230AE703231D
:101D600008E702230CE7000030B4036A23F0010304
:101D70000362056A4268846924F073040B681C439B
:101D800025F002058B682B43104DA84203D005F5C2
:101D90008065A84205D123F00803CD682B4323F0CA
:101DA00004030A4DA84203D005F58065A84205D179
:101DB00022F440724D6915438A692A434260846166
:101DC0004A684263036230BC704700BF00000140B4
:101DD00030B4036A23F480730362036A4268C469FF
:101DE00024F073040D682C4323F400738D6843EAD8
:101DF0000523124DA84203D005F58065A84206D1FF
:101E000023F40063CD6843EA052323F480630B4D7C
:101E1000A84203D005F58065A84207D122F44052BC
:101E20004D6942EA05128D6942EA05124260C461B9
:101E30004A68C263036230BC704700BF00000140C3
:101E400030B4036A23F480530362036A4468C269AE
:101E500022F4E6420D6842EA052223F400538D681D
:101E600043EA0533094DA84203D005F58065A84231
:101E700004D124F480444D6944EA85144460C2616D
:101E80004A680264036230BC704700BF0000014032
:101E90000268D36843F00103D3600268936803F0DB
:101EA0000703062B03D0136843F0010313600020DF
:101EB0007047704770477047704710B50446036815
:101EC0001A6912F0020F11D0DA6812F0020F0DD069
:101ED0006FF002021A610123037703689B6913F014
:101EE000030F70D0FFF7E6FF0023237723681A69FA
:101EF00012F0040F12D0DA6812F0040F0ED06FF057
:101F000004021A610223237723689B6913F4407F3C
:101F10005FD02046FFF7CEFF0023237723681A699E
:101F200012F0080F12D0DA6812F0080F0ED06FF01E
:101F300008021A61042323772368DB6913F0030F77
:101F40004ED02046FFF7B6FF0023237723681A6997
:101F500012F0100F12D0DA6812F0100F0ED06FF0DE
:101F600010021A61082323772368DB6913F4407F8A
:101F70003DD02046FFF79EFF0023237723681A6990
:101F800012F0010F03D0DA6812F0010F36D1236886
:101F90001A6912F0800F03D0DA6812F0800F34D182
:101FA00023681A6912F0400F03D0DA6812F0400F6C
:101FB00032D123681A6912F0200F03D0DA6812F0C8
:101FC000200F30D110BDFFF774FF2046FFF773FFDD
:101FD0008AE72046FFF76DFF2046FFF76CFF9BE77F
:101FE0002046FFF766FF2046FFF765FFACE7204677
:101FF000FFF75FFF2046FFF75EFFBDE76FF00102CE
:102000001A61204601F030F9C1E76FF080021A61D1
:10201000204600F03AFAC3E76FF040021A6120460A
:10202000FFF74AFFC5E76FF020021A61204600F073
:102030002BFAC7E70368304A904212D0B0F1804FC4
:102040000FD0A2F57C4290420BD002F58062904204
:1020500007D002F58062904203D002F578429042A8
:1020600003D123F070034A681343234A90422AD0D5
:10207000B0F1804F27D0A2F57C42904223D002F5E8
:10208000806290421FD002F5806290421BD002F520
:102090007842904217D002F57052904213D002F568
:1020A000806290420FD002F5806290420BD0A2F580
:1020B0009832904207D002F58062904203D002F538
:1020C0008062904203D123F44073CA68134323F023
:1020D00080034A69134303608B68C3620B688362A1
:1020E000054B984203D003F58063984201D10B69F8
:1020F000036301234361704700000140A8B110B59C
:10210000044690F83D305BB1022384F83D30211D38
:102110002068FFF78FFF012384F83D30002010BDB9
:1021200080F83C3001F050FFEEE701207047A8B185
:1021300010B5044690F83D305BB1022384F83D3081
:10214000211D2068FFF776FF012384F83D30002031
:1021500010BD80F83C3001F0D9FEEEE70120704759
:10216000002849D0F8B505460C4690F83D30002BC4
:102170003DD0022385F83D30294651F8042B936861
:1021800023F4804323F0070393602868FFF752FF8E
:1021900029688A688E690F6A2068104326F44076A1
:1021A00026F00306A268A36942EA0323334323F41B
:1021B0007C4323F0FC03E668E26946EA02261E43FC
:1021C000226A1303226943EA0213334327F0AA0762
:1021D0006268646942EA04123A43886029688B6144
:1021E0002B681A62012385F83D300020F8BD80F885
:1021F0003C3001F0B5FEBCE70120704730B4036A03
:1022000023F010030362036A4468826922F4E64201
:102210000D6842EA052223F020038D6843EA051386
:10222000114DA84203D005F58065A84206D123F0E0
:102230008003CD6843EA051323F040030A4DA8420A
:1022400003D005F58065A84207D124F440644D69A8
:1022500044EA85048D6944EA8504446082614A68E1
:102260008263036230BC70470000014038B590F8CB
:102270003C30012B66D00D460446012380F83C30EB
:10228000022380F83D300C2A1AD8DFE802F0071943
:102290001919201919193419191947000068FFF77D
:1022A00063FD2268936943F0080393612268936990
:1022B00023F0040393612268936929690B439361B6
:1022C000012384F83D30002084F83C0038BD0068CC
:1022D000FFF794FF2268936943F4006393612268D7
:1022E000936923F48063936122689369296943EABF
:1022F00001239361E4E70068FFF76AFD2268D36970
:1023000043F00803D3612268D36923F00403D36147
:102310002268D36929690B43D361D1E70068FFF7CD
:102320008FFD2268D36943F40063D3612268D369C7
:1023300023F48063D3612268D369296943EA0123C6
:10234000D361BDE70220C1E710B401F01F010123F2
:1023500003FA01F4036A23EA04030362036A8A406E
:10236000134303625DF8044B7047000010B5044648
:1023700001220068FFF7E8FF23680B4A934203D06D
:1023800002F58062934203D15A6C42F400425A64CF
:102390002268936803F00703062B03D0136843F009
:1023A00001031360002010BD0000014010B5044679
:1023B00061B1042916D0012200210068FFF7C4FF93
:1023C000012204212068FFF7BFFF04E00122002161
:1023D0000068FFF7B9FF2268136843F00103136038
:1023E000002010BD012204210068FFF7ADFFF2E7D5
:1023F00090F83C30012B1CD070B4012680F83C6072
:10240000022380F83D3002685568936825F0700516
:102410000C682C4323F080054B682B435460026802
:10242000936080F83D60002380F83C30184670BC13
:1024300070470220704790F83C30012B22D00123D6
:1024400080F83C30CB6823F440738A68134323F44C
:1024500080634A68134323F400630A68134323F438
:1024600080530A69134323F400534A69134323F446
:102470008043CA69134302685364002380F83C30E8
:102480001846704702207047704770472DE9F8439F
:1024900004460268136923F44053C1680B43136177
:1024A00083680269134342691343C2691A4301688E
:1024B000CB6823F4164323F00C031343CB6002686C
:1024C000536923F4407381690B435361C369B3F5C6
:1024D000004F60D00368B84A934200F0148102F5BF
:1024E0008062934200F00F81FEF7A6FF00EB8000B0
:1024F00000EB80006568AD00B0FBF5F5AF4FA7FBC2
:1025000005356D092E01FEF797FF00EB800000EB0B
:1025100080006568AD00B0FBF5F9FEF78DFF00EBBC
:10252000800000EB80006568AD00B0FBF5F5A7FB0F
:1025300005356D094FF0640808FB15952D013235FE
:10254000A7FB05356D0905F0F0053544FEF774FF6E
:1025500000EB800000EB80006668B600B0FBF6F68A
:10256000FEF76AFF00EB800000EB800063689B00D1
:10257000B0FBF3F0A7FB0030400908FB10684FEAFE
:10258000081808F13208A7FB0837C7F34317236878
:102590002F449F600DE10368874A93425BD002F5A8
:1025A0008062934257D0FEF747FF00EB800000EBBC
:1025B000800065686D00B0FBF5F5804FA7FB053521
:1025C0006D092E01FEF738FF00EB800000EB800064
:1025D00065686D00B0FBF5F9FEF72EFF00EB80009B
:1025E00000EB800065686D00B0FBF5F5A7FB0535D5
:1025F0006D094FF0640808FB1595ED003235A7FB17
:1026000005356D096D0005F4F8753544FEF714FFC6
:1026100000EB800000EB800066687600B0FBF6F609
:10262000FEF70AFF00EB800000EB800063685B00B0
:10263000B0FBF3F3A7FB03235B0908FB13684FEA26
:10264000C80808F13208A7FB0837C7F34217236808
:102650002F449F60ADE0FEF7FFFE00EB800000EB33
:10266000800065686D00B0FBF5F5544FA7FB05359C
:102670006D092E01FEF7F0FE00EB800000EB8000FC
:1026800065686D00B0FBF5F9FEF7E6FE00EB800033
:1026900000EB800065686D00B0FBF5F5A7FB053524
:1026A0006D094FF0640808FB1595ED003235A7FB66
:1026B00005356D096D0005F4F8753544FEF7CCFE5F
:1026C00000EB800000EB800066687600B0FBF6F659
:1026D000FEF7C2FE00EB800000EB800063685B0049
:1026E000B0FBF3F3A7FB03235B0908FB13684FEA76
:1026F000C80808F13208A7FB0837C7F34217236858
:102700002F449F6055E0FEF7A7FE00EB800000EB32
:1027100080006568AD00B0FBF5F5284FA7FB0535D7
:102720006D092E01FEF798FE00EB800000EB8000A3
:102730006568AD00B0FBF5F9FEF78EFE00EB80009A
:1027400000EB80006568AD00B0FBF5F5A7FB053533
:102750006D094FF0640808FB15952D013235A7FB74
:1027600005356D0905F0F0053544FEF775FE00EB03
:10277000800000EB80006668B600B0FBF6F6FEF75E
:102780006BFE00EB800000EB800063689B00B0FBF9
:10279000F3F0A7FB0030400908FB10684FEA081867
:1027A00008F13208A7FB0837C7F3431723682F4403
:1027B0009F60BDE8F88300BF001001401F85EB510A
:1027C0002DE9F04105460F4616469846069C2B68B3
:1027D0001B6837EA03030CBF01230023B3421DD15A
:1027E000B4F1FF3FF3D02CB1FEF704FCA0EB0800DE
:1027F000A042ECD92A68D36823F4D073D3602A6846
:10280000536923F001035361202385F8393085F89B
:102810003A30002385F83830032000E00020BDE87E
:10282000F08158B310B5044690F839300BB3242327
:1028300084F839302268D36823F40053D3602046EB
:10284000FFF724FE2268136923F490431361226882
:10285000536923F02A0353612268D36843F4005379
:10286000D3600020E063202384F8393084F83A30C4
:1028700010BD80F8383001F0B3FCD8E70120704774
:102880002DE9F04182B01E4690F83930DBB2202BA2
:1028900055D104460D469046002955D0002A55D002
:1028A00090F83830012B53D0012380F838300023C2
:1028B000C363212380F83930FEF79CFB0746A4F858
:1028C0002480A4F8268010E000963B460022802158
:1028D0002046FFF775FF00283CD12B882268C3F300
:1028E000080353602369C3B90235E38C9BB2B3B1CB
:1028F000E38C013B9BB2E384A368B3F5805FE3D034
:1029000000963B46002280212046FFF759FF18BB66
:102910002A7823685A600135E7E70135E5E7009634
:102920003B46002240212046FFF74AFF0346A8B954
:10293000202284F83920002284F8382000E0022385
:10294000184602B0BDE8F0810123F9E70123F7E75B
:102950000223F5E70323F3E70323F1E70323EFE77C
:1029600000280CDD07EE900AB8EEE77AC1F1FF010E
:1029700007EE901AF8EEE77A87EE270A704707EE1F
:10298000900AB8EEE77A07EE901AF8EEE77A87EE4B
:10299000270A704782B00023019302E0019B0133B4
:1029A0000193019B1D2BF9D902B0704708B5002295
:1029B00004210248FEF787FC08BD00BF000C02405E
:1029C00008B5012204210248FEF77DFC08BD00BFC6
:1029D000000C0240000000002DE9F0472DED028BB5
:1029E00088B081460E4615469846129F0024CDF8C1
:1029F0001640CDF81A4001238DF8143042238DF88B
:102A0000153002940394ADF81040C548802303624A
:102A1000FFF752F8FFF7CAFFFFF7BCFF0EE04FF6D3
:102A2000FF730093012302AA224405A92144BC4854
:102A3000FFF782F8FFF7AEFF0134E4B2022CEED9C3
:102A40009DF8093003F00F03032B03D04FF0050A64
:102A5000032411E04FF0090AFAE74FF6FF730093E1
:102A6000012302AA224405A92144AD48FFF764F8D6
:102A7000FFF790FF013464B2A245EEDCFFF7A0FF40
:102A80009DF80B30DB43DAB28DF80B209DF80C304B
:102A9000DB43DBB28DF80C3003EB0223A9F80030E6
:102AA0009DF8093003F00F03032B0FD00023336090
:102AB00073602B606B60C8F80030C8F804303B606E
:102AC0007B6008B0BDEC028BBDE8F0879DF80F007D
:102AD00080218038FFF744FF86ED000A9DF8100042
:102AE00080218038FFF73CFFB1EE400A86ED010AF5
:102AF0009DF80D0080218038FFF732FF85ED000A38
:102B00009DF80E0080218038FFF72AFFB1EE400AC1
:102B100085ED010AF0EE000A96ED000A01F0E4FCF2
:102B2000B0EE408AF0EE000A96ED010A01F0DCFCFE
:102B300038EE000A01F006FFF7EE000A01F09AFCF9
:102B400088ED000ADFED777AB4EEE70AF1EE10FACD
:102B500002D50023C8F80030D8ED007AF5EE407AAF
:102B6000F1EE10FA2DD10023C8F80430F0EE000A7F
:102B700095ED000A01F0B8FCB0EE408AF0EE000AD4
:102B800095ED010A01F0B0FC38EE000A01F0DAFE22
:102B9000F7EE000A01F06EFC87ED000ADFED617AC6
:102BA000B4EEE70AF1EE10FA01D500233B60D7ED51
:102BB000007AF5EE407AF1EE10FA56D100237B60F0
:102BC0007FE796ED010A80EE270A01F061FEDFED56
:102BD000567A60EE277A17EE900AFDF77DFC4EA339
:102BE000D3E90023FDF7FAFDFDF790FF07EE900A09
:102BF000C8F8040096ED007AB5EEC07AF1EE10FA4E
:102C000006DDD6ED016AF5EEC06AF1EE10FAADDC34
:102C1000B5EEC07AF1EE10FA0BD4B5EEC07AF1EE53
:102C200010FA14D49FED417A77EE877AC8ED017AD5
:102C30009CE7D6ED016AF5EEC06AF1EE10FAECDD24
:102C40009FED397A77EE677AC8ED017A8EE796EDD7
:102C5000017AB5EEC07AF1EE10FAE3D59FED327A43
:102C600077EE677AC8ED017A80E795ED010A80EE8C
:102C7000270A01F00DFEDFED2C7A60EE277A17EEC1
:102C8000900AFDF729FC24A3D3E90023FDF7A6FD54
:102C9000FDF73CFF07EE900A786095ED007AB5EEFF
:102CA000C07AF1EE10FA07DDD5ED016AF5EEC06AE3
:102CB000F1EE10FA3FF705AFB5EEC07AF1EE10FA7B
:102CC0000BD4B5EEC07AF1EE10FA14D49FED177A5A
:102CD00077EE877AC7ED017AF3E6D5ED016AF5EE76
:102CE000C06AF1EE10FAECDD9FED0F7A77EE677AAD
:102CF000C7ED017AE5E695ED017AB5EEC07AF1EE21
:102D000010FAE3D59FED087A77EE677AC7ED017A7E
:102D1000D7E600BFAFF30080182D4454FB210940D3
:102D200044020020CDCCCC3E000034430000B4432C
:102D3000D0B588B08DED060A4AF2A55398421BD053
:102D40004BF6BE63984219D001240698FDF7C4FBE8
:102D500000220D4BFDF718FC06460F4600220A4BD9
:102D6000FDF77AFE60B90022084B30463946FDF780
:102D700073FE30B1002404E00024E6E70024E4E719
:102D80000024204608B0D0BD0000594000003DC0DE
:102D900008B53C210448FFF709FB4FF080434FF48E
:102DA00000425A6208BD00BF9C0300202DE9F04399
:102DB0008BB0002405940694079408940994009419
:102DC000484B1A6B42F004021A631A6B02F00402B9
:102DD0000092009A01941A6B42F080021A631A6BF7
:102DE00002F080020192019A02941A6B42F00102F1
:102DF0001A631A6B02F001020292029A03941A6B90
:102E000042F002021A631A6B02F002020392039A62
:102E100004941A6B42F008021A631B6B03F0080358
:102E20000493049BDFF8CC9022464FF4C1514846EE
:102E3000FEF749FA2C4F22464FF470413846FEF710
:102E400042FA2A4E2246C0213046FEF73CFADFF80D
:102E5000A880224604214046FEF735FA4FF400537D
:102E60000593234B0693079405A93046FEF746F9D0
:102E70004FF4C1530593012506950794089405A9BD
:102E80004846FEF73BF9202305930694079505A9CC
:102E90003046FEF733F9072305930694079505A9F5
:102EA0003846FEF72BF94FF47043059306950794C7
:102EB000089405A93846FEF721F9C0230593069525
:102EC0000794089405A93046FEF718F904230593E2
:102ED00006950794089405A94046FEF70FF90BB034
:102EE000BDE8F083003802400004024000080240C0
:102EF0000000211000000240000C024008B50D48FF
:102F00000D4B03604FF48273436000238360C36002
:102F100002220261012242614FF40072826130227A
:102F2000C26180220262436283620A23C362FEF7A7
:102F3000C3FD08BD44020020003C004030B593B002
:102F400000241094119409940A940B940C940D94F9
:102F50000E940F942022214601A801F0D7FE1C4DAB
:102F60001C4B2B6005236B60AC6040F2E733EB60D9
:102F70002C616C61AC612846FFF7D9F8109411946C
:102F800010A92846FFF734FA602309930A940B949A
:102F90000C940D940E940F94224609A92846FFF72D
:102FA00065F9042209A92846FFF760F90194029403
:102FB0000394049405944FF400530693089401A9D4
:102FC0002846FFF738FA284601F066F813B030BDFE
:102FD0005C0300200000014030B593B00024109441
:102FE000119409940A940B940C940D940E940F94DC
:102FF0002022214601A801F089FE1C4D1C4B2B60AC
:1030000005236B60AC6040F2E733EB602C616C61D0
:10301000AC612846FFF78BF81094119410A928464C
:10302000FFF7E6F9602309930A940B940C940D942E
:103030000E940F94082209A92846FFF717F90C22CD
:1030400009A92846FFF712F9019402940394049405
:1030500005944FF400530693089401A92846FFF7FE
:10306000EAF9284601F018F813B030BDC00100207D
:103070000004014030B58DB02022002104A801F0E9
:1030800045FE0025019502950D4C4FF080432360CD
:1030900001236360A5604FF6FF72E2602561A561C0
:1030A00003930593099303A92046FFF759F8019567
:1030B000029501A92046FFF79BF90DB030BD00BF76
:1030C0009C03002030B583B00025009501950A4C83
:1030D0000A4B2360A7236360A56042F20F73E3608D
:1030E000A5612046FFF70AF800950195694620463C
:1030F000FFF77EF903B030BD1C0300200010004034
:1031000008B50748074B0360A7234360002383608B
:1031100042F20F72C26003618361FEF7EFFF08BDE8
:10312000000200200044014030B589B00024019421
:103130000294039404940594069407940F4D104B45
:103140002B60A7236B60AC6042F20F73EB602C61C5
:10315000AC612846FEF7D2FF2846FEF7E8FF602361
:103160000193029403940594224601A92846FFF78F
:103170007DF8284600F090FF09B030BDDC02002049
:103180000048014030B589B00024019402940394B2
:1031900004940594069407940F4D104B2B60A723BD
:1031A0006B60AC6042F20F73EB602C61AC6128463F
:1031B000FEF7A4FF2846FEF7BAFF602301930294AE
:1031C00003940594224601A92846FFF74FF82846A4
:1031D00000F062FF09B030BD9C020020001C0040DE
:1031E00030B589B0002401940294039404940594AA
:1031F000069407940F4D104B2B60A7236B60AC60B7
:1032000042F20F73EB602C61AC612846FEF776FF4B
:103210002846FEF78CFF60230193029403940594E3
:10322000224601A92846FFF721F8284600F034FF7E
:1032300009B030BD1C0400200020004008B508483B
:10324000084B03604FF4E133436000238360C360A5
:1032500003610C2242618361C361FFF7E2FA08BD9A
:10326000DC030020004400400268CE4B9A4200D0AC
:1032700070472DE9F0472DED028B92B0CA4C10AB90
:1032800000930EAB0CAA0AA92046FFF7A5FB9DED03
:10329000103ADDED113A9DED0E2ADDED0F2A9DED80
:1032A0000C1ADDED0D1A9DED0A0ADDED0B0A2088E2
:1032B000FFF73EFD80B2BD4B1880012804D012B04C
:1032C000BDEC028BBDE8F0872388B3F5004F3DD0FD
:1032D000B3F5005F00F09E80B3F5805F00F0A08042
:1032E000B3F5804F00F0AC80042B00F0B980012BC7
:1032F00031D0B3F5006F00F0B880082B00F0BB8030
:10330000802B00F0DF80202B00F0E280102B00F0FB
:10331000E580402B00F0F2800F2B00F004819FED40
:10332000A48A0120B0EE480A00F0E6FA0220B0EECE
:10333000480A00F0E1FA0320B0EE480A00F0DCFA97
:103340000420B0EE480A00F0D7FA04E002209FED16
:10335000990A00F0D1FA0A21974B986800F000FC16
:10336000002000F0BDF9002800F01A81002501209E
:1033700000F0B6F9002800F033814FF00008022079
:1033800000F0AEF9002800F02E814FF00009032074
:1033900000F0A6F9002800F029814FF0000A0C98EF
:1033A000FDF79AF80022854BFDF7EEF806460F462A
:1033B0007D4CA068FDF790F80022814BFDF7E4F802
:1033C000CDE9080130463946FDF778FB074634F869
:1033D0000C6BCDF818A0CDF81490CDF810800395A3
:1033E000DDE90801FDF76AFB0290734B1A68019250
:1033F0009B6800933B4632467249204601F08EFCA2
:103400002046FDF753FD642382B221466E48FFF744
:1034100037FA54E702209FED6D0A00F06DFA9AE743
:10342000022000F05DF928B904209FED610A00F048
:1034300063FA90E704209FED660A00F05DFA8AE7E0
:10344000032000F04DF928B904209FED590A00F03F
:1034500053FA80E704209FED5F0A00F04DFA7AE707
:10346000BEEE000A00F048FB75E70220BFEE000A3E
:1034700000F042FA6FE74C4B5B689BB1012B7FF485
:103480006AAF4D4C6FF0590020600B23009300236E
:103490000122616800F0F6FB23686360424B002262
:1034A0005A6058E7444C5A2020600B2300930023B5
:1034B0000122616800F0E6FB236863603A4B012259
:1034C0005A6048E70120BEEE000A00F015FA42E714
:1034D0000120B6EE000A00F00FFA3CE7364CA36874
:1034E000053300EE103ADFED3C0AB8EEC00A00F0FA
:1034F000C1FFBDEEC00A84ED020A2CE72E4CA36882
:10350000053B00EE103ADFED350AB8EEC00A00F0D8
:1035100093FFBDEEC00A84ED020A1CE70320B6EE5D
:10352000000A00F0E9F9012000F0DAF80128F5D0EE
:103530009FED1F8A0120B0EE480A00F0DDF902205D
:10354000B0EE480A00F0D8F90320B0EE480A00F0C7
:10355000D3F90420B0EE480A00F0CEF904E00420CC
:10356000BEEE000A00F0C8F9032000F0B9F8012807
:10357000F5D09FED0F8A0120B0EE480A00F0BCF9AB
:103580000220B0EE480A00F0B7F90320B0EE480A76
:1035900000F0B2F90420B0EE480A00F0ADF9DAE626
:1035A0000125E4E600100040A000002040020020B9
:1035B00000000000333333BF0800002000005940F2
:1035C00000408F4058550008DC0300203333333F60
:1035D000CDCC0C3FCDCC0CBF0000B4420000B4C237
:1035E0004FF00108CBE64FF00109D0E64FF0010A99
:1035F000D5E600BF30B595B03422002107A801F010
:1036000085FB00240294039404940594069400948A
:103610001B4B1A6C42F080521A641B6C03F08053EF
:103620000093009B0194174A136823F4404343F42A
:1036300080431360136803F440430193019B022508
:10364000079501230A9310230B930D950E940F9366
:103650004FF4A8731093042311931295139507A8A0
:10366000FDF7CCFF0F230293039504944FF480538E
:1036700005930694294602A8FDF72CFE15B030BD2F
:10368000003802400070004008B5FDF78DFCFFF7E0
:10369000B1FFFFF78BFBFFF731FCFFF74FFCFFF7A4
:1036A000E9FCFFF70FFDFFF797FCFFF729FDFFF798
:1036B0003BFDFFF767FDFFF793FDFFF7BFFD00F050
:1036C000BFFA00F001FAFFF763FB4FF49670FDF7C5
:1036D00097FC0248FEF7DCFBFEE700BF1C0300205E
:1036E00010B50446032825D8DFE800F0020A141CB0
:1036F00020211148FDF7E0FD01281AD0204618E0EE
:1037000001210E48FDF7D8FD012801D0002010E06E
:1037100020460EE002210948FDF7CEFD012808D021
:10372000002006E004210548FDF7C6FD012800D071
:10373000002010BD0020FCE7000802400004024009
:1037400010B5012807D0022839D0032865D00428F5
:1037500000F0978010BDB5EEC00AF1EE10FA12DC51
:10376000B5EEC00AF1EE10FA1BD4604C01224FF402
:1037700080512046FDF7A7FD01224FF4006120464D
:10378000FDF7A1FDE6E7594C00224FF48051204699
:10379000FDF799FD01224FF400612046FDF793FDEE
:1037A000D8E7524C01224FF480512046FDF78BFDA3
:1037B00000224FF400612046FDF785FDCAE7B5EE13
:1037C000C00AF1EE10FA10DCB5EEC00AF1EE10FA04
:1037D00017D4474C012280212046FDF774FD0122B9
:1037E00040212046FDF76FFDB4E7414C00228021C7
:1037F0002046FDF768FD012240212046FDF763FDCC
:10380000A8E73B4C012280212046FDF75CFD002209
:1038100040212046FDF757FD9CE7B5EEC00AF1EECA
:1038200010FA12DCB5EEC00AF1EE10FA1BD4314CDE
:1038300001224FF400412046FDF745FD01224FF4DF
:1038400080412046FDF73FFD84E72A4C00224FF4DB
:1038500000412046FDF737FD01224FF4804120460C
:10386000FDF731FD76E7234C01224FF4004120465D
:10387000FDF729FD00224FF480412046FDF723FD8E
:1038800068E7B5EEC00AF1EE10FA12DCB5EEC00A38
:10389000F1EE10FA1BD4174C01224FF400512046D0
:1038A000FDF711FD01224FF480512046FDF70BFD7D
:1038B00050E7104C00224FF400512046FDF703FD65
:1038C00001224FF480512046FDF7FDFC42E7094CF0
:1038D00001224FF400512046FDF7F5FC00224FF481
:1038E00080512046FDF7EFFC34E700BF00000240A6
:1038F000000802400004024010B52DED028BB0EE2E
:10390000408A0446B5EE400AF1EE10FA13D0F7EE05
:10391000000A00F0AFFD10EE100AFCF7DDFD9FED90
:10392000621B41EC100B00F017FD51EC100BFDF782
:10393000EDF808EE100A012C09D0022C32D0032C2D
:1039400059D0042C00F08280BDEC028B10BD2046C3
:10395000B0EE480AFFF7F4FEB5EE408AF1EE10FA39
:103960000ED0B0EEC88ADFED527A28EE278ABCEE80
:10397000C88A18EE103A9BB24E4A12689363E3E786
:103980004C4B1B6800229A634B4C01224FF4805130
:103990002046FDF798FC01224FF400612046FDF718
:1039A00092FCD1E72046B0EE480AFFF7C9FEB5EE1B
:1039B000408AF1EE10FA0ED0B0EEC88ADFED3C7A04
:1039C00028EE278ABCEEC88A18EE103A9BB2394A14
:1039D00012685363B8E7374B1B6800225A63374CB1
:1039E000012280212046FDF76EFC01224021204665
:1039F000FDF769FCA8E72046B0EE480AFFF7A0FEF5
:103A0000B5EE408AF1EE10FA0ED0B0EEC88ADFEDC6
:103A1000287A28EE278ABCEEC88A18EE103A9BB2A4
:103A2000274A126813648FE7254B1B6800221A642B
:103A3000244C01224FF400412046FDF744FC0122B2
:103A40004FF480412046FDF73EFC7DE72046B0EE76
:103A5000480AFFF775FEB5EE408AF1EE10FA0ED077
:103A6000B0EEC88ADFED127A28EE278ABCEEC88A4B
:103A700018EE103A9BB2124A1268D36364E7104BF7
:103A80001B680022DA630F4C01224FF400512046DC
:103A9000FDF719FC01224FF480512046FDF713FC7D
:103AA00052E700BFAFF30080000000000000F0BF4D
:103AB00000007A445C03002000000240000802403D
:103AC000C00100200004024010B5094C042120462A
:103AD000FEF74CFC00212046FEF748FC054C0C216B
:103AE0002046FEF743FC08212046FEF73FFC10BDB0
:103AF0005C030020C001002008B52DED028BB0EE64
:103B0000408A0020FFF7ECFD48B10120FFF7E8FDF7
:103B100090B109E00320B1EE480AFFF7EDFE012065
:103B2000FFF7DEFD0128F5D0BDEC028B08BD0320B8
:103B3000B0EE480AFFF7E0FE0020FFF7D1FD0128B4
:103B4000F5D0F1E710B4401A019CE41A04FB00F030
:103B5000521A90FBF2F018445DF8044B70470000D5
:103B600010B52DED028B82B008EE100A0C460A2922
:103B700007D00B2C21D00C2C3BD002B0BDEC028B1B
:103B800010BDDFED2A0AB8EEC80A00F073FCDFEDC5
:103B9000280A00F051FCBDEEC08A4FF496630093F2
:103BA0004FF416735A226FF0590118EE100AFFF7FE
:103BB000C9FF204B1B685863DBE7DFED1C0AB8EE3A
:103BC000C80A00F057FCDFED1A0A00F035FCBDEE24
:103BD000C08A4FF4966300934FF42F735A226FF00C
:103BE000590118EE100AFFF7ADFF134B1B6858631D
:103BF000C1E7DFED0E0AB8EEC80A00F03BFCDFEDCE
:103C00000C0A00F019FC4FF4966300934FF41673FE
:103C10005A226FF05901FDEEC07A17EE900AFFF7B5
:103C200091FF064B1B685863A7E700BF0000B44232
:103C30000000B4C29C0200201C040020DC02002012
:103C400008B500210C48FEF791FB00210B48FEF758
:103C50008DFB00210A48FEF789FB0A216FF059000D
:103C6000FFF77EFF0B216FF05900FFF779FF0C2162
:103C70000020FFF775FF08BD9C0200201C040020F7
:103C8000DC0200202DE9F8430E4614469946089BB5
:103C9000451A002D6DDD95FBF2F802FB18580A2B32
:103CA00025D00B2B44D00C2B1FD100275CE0013713
:103CB00004FB0763434400EE103ADFED660AB8EEFA
:103CC000C00A00F0B9FBDFED640A00F0D3FB0A2163
:103CD000FDEEC07A17EE900AFFF742FF4846FDF767
:103CE0008FF995FBF4F3BB42E1DCBDE8F8830027D4
:103CF000F7E7013704FB0763434400EE103ADFEDBA
:103D0000550AB8EEC00A00F097FBDFED530A00F049
:103D1000B1FB0B21FDEEC07A17EE900AFFF720FFF2
:103D20004846FDF76DF995FBF4F3BB42E1DCDCE7B7
:103D30000027F8E7013704FB0763434400EE103A1D
:103D4000DFED440AB8EEC00A00F076FBDFED420A70
:103D500000F090FB0C21FDEEC07A17EE900AFFF701
:103D6000FFFE4846FDF74CF995FBF4F3BB42E1DC5E
:103D7000BBE7002DB9DA0D1A95FBF2F802FB1858D3
:103D80000A2B24D00B2B43D00C2BAED100275BE0A9
:103D9000013704FB0783F31A00EE103ADFED2D0A1A
:103DA000B8EEC00A00F048FBDFED2B0A00F062FB22
:103DB0000A21FDEEC07A17EE900AFFF7D1FE4846C1
:103DC000FDF71EF995FBF4F3BB42E1DC8DE700271C
:103DD000F8E7013704FB0783F31A00EE103ADFED32
:103DE0001D0AB8EEC00A00F027FBDFED1B0A00F049
:103DF00041FB0B21FDEEC07A17EE900AFFF7B0FEF3
:103E00004846FDF7FDF895FBF4F3BB42E1DC6CE7B7
:103E10000027F8E7013704FB0783F31A00EE103A96
:103E2000DFED0C0AB8EEC00A00F006FBDFED0A0A6F
:103E300000F020FB0C21FDEEC07A17EE900AFFF790
:103E40008FFE4846FDF7DCF895FBF4F3BB42E1DC5E
:103E50004BE700BF0000B4C20000B44200B583B01D
:103E6000002100910C4B5A6C42F480425A645A6C07
:103E700002F480420092009A01911A6C42F0805242
:103E80001A641B6C03F080530193019B0720FDF71C
:103E9000CBF803B05DF804FB0038024000B589B0F0
:103EA0000023039304930593069307930268154B2D
:103EB0009A4202D009B05DF804FB0021019103F59C
:103EC000FE331A6C42F400421A641A6C02F4004287
:103ED0000192019A02911A6B42F004021A631B6B61
:103EE00003F004030293029B4FF4E0530393022375
:103EF0000493032306930623079303A90248FDF7BF
:103F0000FDF8D7E7003C00400008024082B003689B
:103F1000104A934204D0104A93420ED002B0704728
:103F2000002300930D4B5A6C42F001025A645B6C03
:103F300003F001030093009BF0E700230193074B7C
:103F40005A6C42F002025A645B6C03F00203019364
:103F5000019BE3E7000001400004014000380240FB
:103F600000B589B000230393049305930693079348
:103F70000368B3F1804F02D009B05DF804FB002163
:103F8000019103F50E331A6C42F001021A641A6CA7
:103F900002F001020192019A02911A6B42F00102B1
:103FA0001A631B6B03F001030293029B0323039329
:103FB000022304930123079303A90248FDF79EF807
:103FC000DAE700BF0000024000B587B003682C4A62
:103FD000934218D02B4A934229D02B4A934235D092
:103FE0002A4A93423FD02A4A93422CD10023059378
:103FF000284B1A6C42F480721A641B6C03F48073B1
:104000000593059B1FE000210191224B1A6C42F0A1
:1040100010021A641B6C03F010030193019B0A4603
:104020003620FDF713F83620FDF744F80BE00023A7
:104030000293184B5A6C42F400325A645B6C03F4DE
:1040400000330293029B07B05DF804FB0023039347
:10405000104B5A6C42F480225A645B6C03F4802348
:104060000393039BEFE7002304930A4B1A6C42F07F
:1040700080021A641B6C03F080030493049BE2E744
:10408000001000400044014000480140001C004076
:10409000002000400038024000B58BB0002305939B
:1040A00006930793089309930368444A93420ED0FA
:1040B000434A934223D0434A934238D0424A9342E0
:1040C0004DD0424A934261D00BB05DF804FB00230F
:1040D00000933F4B1A6B42F001021A631B6B03F013
:1040E00001030093009B4FF4407305930223069352
:1040F0000123099305A93748FDF700F8E4E70023F9
:104100000193334B1A6B42F004021A631B6B03F0EA
:1041100004030193019B4FF440730593022306931C
:104120000323099305A92C48FCF7E8FFCCE70023FB
:104130000293274B1A6B42F002021A631B6B03F0C7
:1041400002030293029B4FF400730593022306932C
:104150000323099305A92148FCF7D0FFB4E7002306
:1041600003931B4B1A6B42F001021A631B6B03F0A3
:1041700001030393039B4023059302230693092322
:10418000099305A91348FCF7B9FF9DE700230493A1
:104190000F4B1A6B42F001021A631B6B03F0010311
:1041A0000493049B80230593022306930923099318
:1041B00005A90848FCF7A2FF86E700BF0000014000
:1041C0000004014000480140001C00400020004065
:1041D0000038024000000240000802400004024093
:1041E00000B589B0002303930493059306930793C6
:1041F0000268164B9A4202D009B05DF804FB002118
:10420000019103F5FA331A6C42F400321A641A6C05
:1042100002F400320192019A02911A6B42F00102FB
:104220001A631B6B03F001030293029B0C2303939D
:104230000223049301230593032306930723079383
:1042400003A90348FCF75AFFD6E700BF004400402B
:10425000000002407047FEE7FEE7FEE7FEE770471A
:104260007047704708B5FCF7B9FE08BD08B50248AD
:10427000FDF723FE08BD00BF1C03002008B5034660
:104280000B4A126842B10A4A106803446A469342D4
:1042900006D8074A136008BD054A06491160F2E7CF
:1042A00000F00AFD0C2303604FF0FF30F3E700BF7E
:1042B000AC010020600400200F49D1F8883043F49D
:1042C0007003C1F888300D4B1A6842F001021A6081
:1042D000002098601A6822F0847222F480321A60FA
:1042E000074A5A601A6822F480221A60D8604FF098
:1042F00000638B60704700BF00ED00E000380240B3
:1043000010300024DFF834D0002103E00C4B5B5860
:10431000435004310B480C4B42189A42F6D30B4AD7
:1043200002E0002342F8043B094B9A42F9D3FFF71D
:10433000C3FF00F0C7FCFFF7A7F970470000022099
:104340007458000800000020840000208400002031
:1043500060040020FEE7000008B52DED048BB0EEF0
:10436000418AF0EE618AB0EE409AF0EE609A00F079
:104370001FF830B9B0EE480AF0EE680ABDEC048BC5
:1043800008BDB0EE480AF0EE680A00F011F838B146
:1043900053EC182B51EC190BFCF786FB0028E9D0E5
:1043A000B0EE490AF0EE690ABDEC048B08BD00BF0F
:1043B00051EC100B31F000420B4609D01C4910B4EF
:1043C000A3F580148C4215D804205DF8044B704787
:1043D00070B101F1FF43164903F5E0038B4218D990
:1043E000B2F5801F19D3134B9A421CD0002070479E
:1043F0000220704703F1FF430D4903F5E0038B42B0
:10440000E2D9B2F5801F06D30A4B9A4207D00020AA
:10441000DBE7042070470320D7E703207047B0FA9A
:1044200080F04009D1E7B0FA80F04009704700BF42
:10443000FFFFDF7F0000F07F08B52DED028BB0EEAF
:10444000608AF0EE408A00F033F820B9B0EE480AF6
:10445000BDEC028B08BDB0EE480A00F029F820B18F
:10446000F4EEC88AF1EE10FAF0DDB0EE680ABDECA9
:10447000028B08BD08B52DED028BB0EE608AF0EE20
:10448000408A00F015F820B9B0EE480ABDEC028B66
:1044900008BDB0EE480A00F00BF820B1F4EEC88A6F
:1044A000F1EE10FAF0D5B0EE680ABDEC028B08BD53
:1044B00010EE103A33F000400ED0A0F50003B3F137
:1044C000FE4F0BD3074B421E9A4209D9A0F1FF4081
:1044D000B0FA80F04009704702207047042070470E
:1044E00003207047FEFF7F002DE9F04F87B08DED70
:1044F000000A009810EE905AA0F500016B00B1F18F
:10450000FE4F10EE90BA03F1FF32C94980F0DC8013
:104510008A4200F23E810023039300F1404606F5F3
:104520004D06C44CF70DFF05C6F3C34604EB061653
:10453000C01BFBF7D1FFD6E90023FCF725F80022CA
:10454000BD4BFBF769FE02460B4680468946FCF7E9
:104550001BF88246F8158B46FBF7ACFFD6E9022321
:10456000FBF75CFED4E9482306460F464046494621
:10457000FCF70AF802460B4630463946FBF74EFE7A
:10458000D4E94023CDE9000140464946FBF7FCFF52
:10459000D4E94223FBF742FE524606460F465B46ED
:1045A00050465946FBF7F0FF02460B463046394667
:1045B000FBF7EAFFD4E9442306460F464046494646
:1045C000FBF7E2FFD4E94623FBF728FE52465B46A1
:1045D000FBF7DAFFDDE90023FBF720FE32463B461E
:1045E000FBF71CFE064628460F46FBF775FF024602
:1045F0000B4630463946FBF7C7FF0025CA0B0023A0
:1046000092B248F2BE049D4208BF944206460F464D
:1046100075D3DFF834A2DAE94089304642464B468A
:104620003946FBF7FBFD42464B460446FBF7F4FDDB
:1046300002460B4630463946FBF7EEFD04F01F02FA
:104640000AEBC20CDCE90089DAE9462306460F468C
:10465000CDE90089FBF798FF0022774BFBF7DEFDE1
:10466000DAE94223CDE9040130463946FBF78CFFF5
:10467000DAE94423FBF7D2FD3246804689463B46C1
:1046800030463946FBF780FF02460B464046494616
:10469000FBF77AFFDDE90423FBF7C0FD039BDDE9AF
:1046A0000089E418002218EB02084FEAC43349EBF2
:1046B000030942464B46FBF767FFFCF727FA00EE7B
:1046C000100A07B0BDE8F08F8A4262D843005A1E34
:1046D0008A4268D8002830DB00230393B0F5000F2E
:1046E000BFF41BAFDFED557A9DED007A67EE277AB8
:1046F00017EE900A20F00040A0F138600DE748A3C3
:10470000D3E90023FCF7D0F9002839D100224C4B23
:1047100030463946FCF7B4F928BB43A3D3E900235C
:1047200030463946FCF7A2F900283FF472AF0398EF
:1047300007B0BDE8F04F00F07DBAC5F3C7537E2B3C
:1047400017DD962B22DC0122C3F1960302FA03F354
:104750005A1E2A420DD12B4018BF4FF480330393C9
:1047600020F00040BAE7039807B0BDE8F04F00F032
:104770005BBA9DED000A07B0BDE8F04F00F078BAD3
:10478000039807B0BDE8F04F00F05ABA0023039336
:10479000E6E73BBB80F480035B0013F5000F1AD8FB
:1047A000B7EE000A8DE7DDED007A002827EEA70AB4
:1047B00055DB0020002B49D1BBF1000F81DA07B097
:1047C000BDE8F04F00F042BA8BF4800B4FEA4B0388
:1047D00013F5000FE4D9DDED007A07EE105A37EE3D
:1047E000870A6EE7B0F17E5FEED04000B0F17F4FF8
:1047F000F1D8B3F17F4FEED1B0F1FE4FD0D0B0F190
:10480000FE4F6FEA0B0B34BF002001204FEADB7B29
:10481000584538D09FED0B0A53E700BFAFF3008037
:1048200071D5D1FFFFFF5F400000000000A062C013
:10483000FEFFFFFEB05500080000F03F0000004BF7
:1048400000C062C000000000E8560008BBF1000F85
:10485000BFF637AFF7EE007A87EE800A31E7C5F38F
:10486000C752A2F17F011729A3D8C2F196000122F5
:1048700002FA00F0411E29429BD128409AD0B1EEA5
:10488000400A104696E707EE905A27EEA70A18E767
:1048900010B52DED028B284C8AB0B0EE408A00F0A6
:1048A000A7F894F900300133F0EE408A34D0B4EE2A
:1048B000488AF1EE10FA2FD6B0EE480A00F0F4F96B
:1048C000F7EE007AB4EEE70AF1EE10FA24DD0123E8
:1048D0001A4A009318EE100A002301920893FBF77E
:1048E000FBFD02460B461648CDE90423CDE9022321
:1048F00000F0D2F994F90030022B8DED060B11D0A7
:10490000684600F0C5F968B1089B83B9DDE9060186
:10491000FCF7FCF808EE900AB0EE680A0AB0BDECAD
:10492000028B10BD00F0C8F921230360ECE700F012
:10493000C3F9089B0360E9E71C000020D856000873
:10494000AC55000810B52DED028B8AB0B0EE408A50
:1049500000F048F9244B93F90040631C09D0B4EEF1
:10496000488AF1EE10FA04D6B5EEC08AF1EE10FADC
:1049700003D40AB0BDEC028B10BD01231B4A009387
:1049800018EE100A002301920893FBF7A5FD002200
:10499000CDE90401CDE902010023BCB1104619465E
:1049A000FBF71CFF022CCDE9060111D100F084F9C0
:1049B00021230360089B8BB9DDE90601FCF7A6F80B
:1049C00000EE100A0AB0BDEC028B10BDCDE9062343
:1049D000684600F05DF90028ECD1E7E700F06CF9DB
:1049E000089B0360E8E700BF1C000020E0560008B9
:1049F00038B510EE105A25F00044B4F17E5F2DED6D
:104A0000048B68D060DCB4F17C5F0DDAB4F1485FF0
:104A10006EDADFED647A70EE277AB7EE007AF4EEA4
:104A2000C77AF1EE10FA53DC00F03EF9B7EE007AE7
:104A300037EE400AB6EE008A20EE088ADFED5A2AE9
:104A4000DFED5A3A9FED5A3ADFED5A4A9FED5A4A46
:104A5000DFED5A5A9FED5A5A9FED5A6ADFED5A6AB6
:104A6000DFED5A7AE8EE223AA8EE034AE3EE884AEE
:104A7000A4EE085AE4EE885AE5EE086AA5EE886AC4
:104A8000A6EE887AE6EE087AB0EE480AB0EE479ACB
:104A900067EE888A00F0A6F84D4B9C425BDDC8EEBD
:104AA000896A9FED4C7ADFED4C7AA0EE260AF0EE93
:104AB000006AA0EE267A37EEC70ABDEC048B002D03
:104AC000D8BFB1EE400A38BD70EE407A87EEA70A33
:104AD000BDEC048B38BDDFED417A9FED3F7A60EE8F
:104AE000277ABDEC048BE0EE077AB0EE670A38BD9A
:104AF00060EE007ADFED2C2ADFED2C3ADFED2D4A57
:104B00009FED2B3A9FED2C4ADFED2C6A9FED2C5A3E
:104B1000DFED2C5A9FED2C6A9FED2C7AE7EEA23A3E
:104B2000BDEC048BE3EEA74AA7EE834AE4EEA76A46
:104B3000A4EE275AE6EEA75AA5EE276AA5EEA77AB5
:104B4000F7EE006AE6EE276A67EE277A87EEA67A26
:104B5000A0EE070A38BD10EE103A23F47F6323F06D
:104B60000F0307EE903AB1EE676AA6EE278A77EE5A
:104B7000807AC8EE895A88EE275A9FED187ADFEDC1
:104B8000187AF0EE006AA5EE667A30EE000AB0EE12
:104B9000675AA6EE265A90EE257A37EE450A37EE8A
:104BA000C00A8AE7CAF2497108EF1138047F4F3A08
:104BB0002EC69D3D461124BD613330BFA80A4E3E2E
:104BC0002D57014090B0A6BE39D119C0ABAA2A3EDC
:104BD0009999793F2EBD3B33DB0FC93F2EBD3BB3C7
:104BE000DB0F493FB1EEC00A704700BF10B52DED95
:104BF000028BB0EE408A044600F05EF8B0EE480A40
:104C0000BDEC028B046010BD30B1F1EE407A27EEAE
:104C1000800A2220FFF7EABFF0EE407A27EE800AF2
:104C20002220FFF7E3BF00BF9FED010AFFF7ECBFB3
:104C3000000000109FED010AFFF7E6BF0000201AF8
:104C40009FED010AFFF7E0BF000000700028FFEEB3
:104C5000007AB7EE007A9FED050A08BFF0EE477ABA
:104C600087EE800A2220FFF7C1BF00BF00000000CE
:104C700070EE407AB4EE400A87EEA77AF1EE10FAB1
:104C8000B0EE470A02D62120FFF7B0BF704700BF41
:104C900000207047000000009FED010B704700BF2F
:104CA000000000000000F87F10EE103A23F00043EF
:104CB00000EE103A704700BF014B1868704700BF04
:104CC0002000002070B50D4E0D4CA41BA410002533
:104CD000A54209D10B4E0C4C00F024FCA41BA410DF
:104CE0000025A54205D170BD56F8253098470135FD
:104CF000EEE756F8253098470135F2E76C58000882
:104D00006C5800086C5800087058000802440346AC
:104D1000934200D1704703F8011BF9E70EB400B5C8
:104D20009CB01DAB029006906FF0004109480791BE
:104D30000491094953F8042B05910068019302A9D5
:104D400000F066F8029B00221A701CB05DF804EBBC
:104D500003B07047200000200802FFFF2DE9F04754
:104D60008E689E4282460C469046994637D88A897C
:104D700012F4906F31D0256809696F1A65690223B2
:104D800005EB450595FBF3F509F101033B449D4215
:104D900038BF1D46530530D5294600F029FB06468D
:104DA00050B90C23CAF80030A38943F04003A38113
:104DB0004FF0FF30BDE8F0873A46216900F0A6FACF
:104DC000A38923F4906343F08003A3812661656186
:104DD0003E44ED1B2660A5604E464E4500D94E462A
:104DE00032464146206800F09CFAA3689B1BA360F2
:104DF00023681E4426600020DCE72A4600F052FBB0
:104E000006460028E2D12169504600F0A3FAC8E71F
:104E10002DE9F04F9DB0804603938B891D060C460B
:104E200016460FD50B696BB9402100F0E1FA2060FE
:104E3000206128B90C23C8F800304FF0FF30C7E0DC
:104E4000402363610023099320238DF82930302308
:104E50008DF82A304FF0010B37463D4615F8013BDF
:104E60000BB1252B3ED1B7EB060A0BD05346324689
:104E700021464046FFF772FF013000F0A480099BF5
:104E8000534409933B78002B00F09D8000234FF0A2
:104E9000FF32CDE90523049307938DF853301A931D
:104EA0002F46052217F8011B4F48FCF709F8049B11
:104EB000D0B9D90644BF20228DF853201A0744BF29
:104EC0002B228DF853202A782A2A15D0079A2F46AC
:104ED00000200A25394611F8013B303B092B4DD9FA
:104EE000B8B10FE02F46B8E73F4A801A0BFA00F03E
:104EF000184304903D46D3E7039A111D12680391AD
:104F0000002A01DB079204E0524243F002030792B9
:104F100004933B782E2B0CD17B782A2B33D1039B27
:104F20001A1D1B680392002BB8BF4FF0FF330237E6
:104F300005932E4D397803222846FBF7C1FF38B17F
:104F40004023401B03FA00F0049B03430137049302
:104F5000397827488DF8281006227E1CFBF7B0FF11
:104F6000002838D0234B13BB039B073323F00703E0
:104F700008330393099B4B4409936DE705FB023209
:104F800001200F46A6E700230137059319460A259D
:104F9000384610F8012B303A092A03D9002BC8D023
:104FA0000591C6E705FB012101230746F0E703ABA6
:104FB00000932246104B04A94046AFF30080B0F1A5
:104FC000FF3F8146D6D1A3895B063FF536AF0998EE
:104FD0001DB0BDE8F08F03AB00932246064B04A939
:104FE000404600F081F8EAE73058000836580008DB
:104FF0003A580008000000005D4D00082DE9F04718
:1050000091461F468A680B69DDF820809342B8BF3D
:105010001346C9F8003091F8432006460C4612B1F9
:105020000133C9F800302368990642BFD9F800302F
:105030000233C9F80030256815F0060507D104F1E0
:10504000190AE368D9F800209B1AAB4228DC94F8CF
:1050500043302268003318BF012392062DD404F197
:10506000430239463046C047013020D02368E56806
:10507000D9F8002003F00603042B08BFAD1AA3687B
:1050800022690CBF25EAE57500259342C4BF9B1A2F
:10509000ED184FF000091A344D451AD1002008E0F0
:1050A0000123524639463046C047013003D14FF004
:1050B000FF30BDE8F0870135C3E7E1185A1C302006
:1050C00081F84300224494F8451082F843100233DB
:1050D000C5E70123224639463046C0470130E6D0B5
:1050E00009F10109D8E700002DE9F04301F1430C73
:1050F0000C46097E85B06E291746064698460C9ADE
:1051000000F0B38022D8632936D00AD8002900F0F5
:10511000B980582900F0838004F1420584F84210D8
:1051200032E0642901D06929F6D1206813680506A8
:1051300003F104012AD51B681160002B03DA2D222C
:105140005B4284F843206F480A2239E0732900F05B
:105150009D8008D86F2920D07029DDD1236843F0C5
:105160002003236003E0752917D07829D4D1782350
:1051700084F84530644855E01368191D1B681160B8
:1051800004F1420584F8423001238CE01B68116071
:1051900010F0400F18BF1BB2CFE713682568181D29
:1051A0001060280601D51B6802E06806FBD51B8845
:1051B00054486F2914BF0A220822002184F84310A2
:1051C0006568A560002DC0F29580216821F004017A
:1051D0002160002B3DD1002D40F08E806546082ACD
:1051E0000BD12368DB0708D5236962689A42DEBFCA
:1051F000302305F8013C05F1FF35ACEB05032361D5
:10520000CDF800803B4603AA21463046FFF7F6FE64
:1052100001304DD14FF0FF3005B0BDE8F083394883
:1052200084F84510136821681D1D1B6815600A0667
:105230000BD5CA0744BF41F0200121601BB9226889
:1052400022F0200222601022B7E74D0648BF9BB231
:10525000EFE76546B3FBF2F102FB1133C35C05F8DF
:10526000013D0B460029F5D1B9E71368256861694E
:10527000181D106028061B6801D5196002E06A0637
:10528000FBD51980002323616546B9E71368191D12
:1052900011601D68626800212846FBF711FE08B105
:1052A000401B606063682361002384F84330A7E7F4
:1052B00023692A4639463046C0470130AAD02368C0
:1052C0009B0713D4E068039B9842B8BF1846A3E736
:1052D00001234A4639463046C04701309AD001354D
:1052E000E368039A9B1AAB42F2DCEBE7002504F17A
:1052F0001909F5E7002BACD1037884F8423004F1AA
:1053000042056CE7415800085258000810B5431E8A
:105310000A44914200D110BD11F8014B03F8014F2E
:10532000F7E7884210B501EB020307D8421E994205
:105330000AD011F8014B02F8014FF8E78342F5D982
:105340008118D21AD34200D110BD13F8014D01F8D3
:10535000014DF7E738B50546002945D051F8043C22
:105360000C1F002BB8BFE41800F0D2F81F4A1368D6
:10537000104633B9636014602846BDE8384000F039
:10538000C8B8A3420CD921686218934204BF1A68B6
:105390005B68636004BF521822600460ECE7134648
:1053A0005A680AB1A242FAD919685818A0420BD11A
:1053B00020680144581882421960DDD11068526893
:1053C0005A6001441960D7E702D90C232B60D3E758
:1053D000206821188A4204BF11685268626004BFC5
:1053E000091821605C60C7E738BD00BFB401002028
:1053F00070B5CD1C25F0030508350C2D38BF0C25E4
:10540000002D064601DBA94203D90C23336000209E
:1054100070BD00F07DF8214A1468214691B9204CF6
:1054200023681BB9304600F063F8206029463046F7
:1054300000F05EF8431C24D10C233360304600F0AA
:1054400068F8E4E70B685B1B18D40B2B0FD90B60D3
:10545000CD50CC18304600F05CF804F10B00231D51
:1054600020F00700C31AD3D05A42E250D0E78C4252
:105470004B6816BF636013600C46EBE70C46496847
:10548000CCE7C41C24F00304A04205D0211A304606
:1054900000F02EF80130CFD02560DBE7B40100200A
:1054A000B8010020F8B5074614460E4621B911464A
:1054B000BDE8F840FFF79CBF22B9FFF74BFF254638
:1054C0002846F8BD00F026F8A0420FD22146384603
:1054D000FFF78EFF05460028F2D031462246FFF73F
:1054E00015FF31463846FFF735FFE9E73546E7E770
:1054F00038B5064C0023054608462360FEF7BEFE7D
:10550000431C02D1236803B12B6038BD5C0400202A
:105510007047704751F8043C181F002BBCBF0B5854
:10552000C0187047F8B500BFF8BC08BC9E4670476D
:0C553000F8B500BFF8BC08BC9E467047F0
:105540000000000000000000010203040607080933
:105550000000000001020304627574746F6E5F64E2
:105560006174613A202564206C6566745F6E6F72A9
:105570006D2E783A20256420616E676C65313A2083
:10558000256420616E676C65323A2025642063755E
:10559000725F706F733A2025642053573A20256458
:1055A000202564202564202564200D0A00000000C9
:1055B000BEF3F879EC61F63F1930965BC6FEDEBFAC
:1055C0003D88AF4AED71F53FA4FCD432680BDBBFD8
:1055D000B010F0F03995F43F7BB71F0A8B41D7BF6D
:1055E0008503B8B095C9F33F7BCF6D1AE99DD3BF52
:1055F000A564880C190DF33F31B6F2F39B1DD0BFA3
:10560000A08E0B7B225EF23FF07A3B1B1D7CC9BF54
:105610003F341A4A4ABBF13F9F3CAF93E3F9C2BF04
:10562000BAE58AF05823F13F5C8D78BFCB60B9BFF3
:10563000A70099413F95F03FCE5F47B69D6FAABF47
:10564000000000000000F03F00000000000000002B
:10565000AC479AFD8C60EE3F3DF5249FCA38B33FBE
:10566000A06A021FB3A4EC3FBA913854A976C43F94
:10567000E6FC6A573620EB3FD2E4C44A0B84CE3FA7
:105680002DAAA163D1C2E93F1C65C6F04506D43FEF
:10569000ED417803E686E83FF89F1B2C9C8ED83FAF
:1056A000624853F5DC67E73FCC7BB14EA4E0DC3FBA
:1056B0000B6E49C91676D23F7AC675A06919D7BF55
:1056C000DDBAA76C0AC7DE3FC8F6BE484715E7BF7C
:1056D0002BB82A654715F73F6173696E66000000B5
:1056E0007371727466000000000000000000F03F5B
:1056F000748515D3B0D9EF3F0F89F96C58B5EF3FDA
:10570000515B12D00193EF3F7B517D3CB872EF3F6C
:10571000AAB968318754EF3F3862756E7A38EF3F27
:10572000E1DE1FF59D1EEF3F15B7310AFE06EF3F84
:10573000CBA93A37A7F1EE3F2234124CA6DEEE3F5A
:105740002D89616008CEEE3F272A36D5DABFEE3FBD
:10575000824F9D562BB4EE3F295448DD07ABEE3FF8
:1057600085553AB07EA4EE3FCD3B7F669EA0EE3FCE
:10577000745FECE8759FEE3F8701EB7314A1EE3F79
:1057800013CE4C9989A5EE3FDBA02A42E5ACEE3F53
:10579000E5C5CDB037B7EE3F90F0A38291C4EE3FA0
:1057A0005D253EB203D5EE3FADD35A999FE8EE3F5B
:1057B000475EFBF276FFEE3F9C5285DD9B19EF3F83
:1057C0006990EFDC2037EF3F87A4FBDC1858EF3FF0
:1057D0005F9B7B33977CEF3FDA90A4A2AFA4EF3FAF
:1057E00040456E5B76D0EF3F000000000000E842CD
:1057F0009423914BF86AAC3FF3C4FA50CEBFCE3F2E
:10580000D6520CFF422EE63F000000000000384355
:10581000FE822B65471547409423914BF86ABC3EA6
:10582000F3C4FA50CEBF2E3FD6520CFF422E963F05
:10583000232D302B2000686C4C0065666745464779
:1058400000303132333435363738394142434445FC
:10585000460030313233343536373839616263646B
:045860006566000079
:0858640078B3FF7F0100000092
:04586C00F50100083A
:04587000D10100085A
:105874000100000010000000A6FFFFFFA6FFFFFFCD
:10588400A6FFFFFFA6FFFFFF0024F40001000000B5
:1058940024000020000000000000000000000000C0
:1058A40000000000000000000000000000000000F4
:1058B40000000000000000000000000000000000E4
:1058C40000000000000000000000000000000000D4
:1058D40000000000000000000000000000000000C4
:1058E40000000000000000000000000000000000B4
:0458F40000000000B0
:0400000508004305A7
:00000001FF
