:020000040800F2
:1000000000000220B53D0008913C0008953C000826
:10001000993C00089D3C0008A13C0008000000003D
:10002000000000000000000000000000A53C0008E7
:10003000A93C000800000000AD3C0008B13C0008ED
:10004000053E0008053E0008053E0008053E000884
:10005000053E0008053E0008053E0008053E000874
:10006000053E0008053E0008053E0008053E000864
:10007000053E0008053E0008053E0008053E000854
:10008000053E0008053E0008053E0008B53C000896
:10009000C13C0008C53C0008053E0008053E0008BC
:1000A000053E0008053E0008053E0008053E000824
:1000B000053E0008053E0008053E0008053E000814
:1000C000053E0008053E0008053E0008053E000804
:1000D000053E0008053E0008053E0008053E0008F4
:1000E000053E0008053E0008053E0008053E0008E4
:1000F000053E0008053E0008053E0008053E0008D4
:10010000053E0008053E0008053E0008053E0008C3
:10011000053E0008053E0008C93C0008053E0008F1
:10012000053E0008053E0008053E0008053E0008A3
:10013000053E00080000000000000000053E000829
:10014000053E0008053E0008053E0008053E000883
:10015000053E0008053E0008053E0008053E000873
:10016000053E0008053E0008053E0008053E000863
:10017000053E0008053E0008053E0008000000009E
:1001800000000000053E0008000000000000000024
:10019000053E00080000000000000000053E0008C9
:1001A000000000000000000000000000053E000804
:1001B000053E0008053E0008053E0008053E000813
:0401C000053E0008F0
:1001D00010B5054C237833B9044B13B10448AFF381
:1001E00000800123237010BD7C000020000000006F
:1001F0000052000808B5034B1BB103490348AFF395
:10020000008008BD000000008000002000520008AF
:1002100081F0004102E000BF83F0004330B54FEAB7
:1002200041044FEA430594EA050F08BF90EA020F24
:100230001FBF54EA000C55EA020C7FEA645C7FEAB7
:10024000655C00F0E2804FEA5454D4EB5555B8BFDA
:100250006D420CDD2C4480EA020281EA030382EA4B
:10026000000083EA010180EA020281EA0303362DDD
:1002700088BF30BD11F0004F4FEA01314FF4801CB0
:100280004CEA113102D0404261EB410113F0004FC2
:100290004FEA03334CEA133302D0524263EB430379
:1002A00094EA050F00F0A780A4F10104D5F1200E17
:1002B0000DDB02FA0EFC22FA05F2801841F1000172
:1002C00003FA0EF2801843FA05F359410EE0A5F146
:1002D00020050EF1200E012A03FA0EFC28BF4CF077
:1002E000020C43FA05F3C01851EBE37101F000452D
:1002F00007D54FF0000EDCF1000C7EEB00006EEB3A
:100300000101B1F5801F1BD3B1F5001F0CD34908C3
:100310005FEA30004FEA3C0C04F101044FEA44521A
:1003200012F5800F80F09A80BCF1004F08BF5FEAA1
:10033000500C50F1000041EB045141EA050130BD81
:100340005FEA4C0C404141EB010111F4801FA4F124
:100350000104E9D191F0000F04BF01460020B1FA79
:1003600081F308BF2033A3F10B03B3F120020CDAB1
:100370000C3208DD02F1140CC2F10C0201FA0CF08F
:1003800021FA02F10CE002F11402D8BFC2F1200CF4
:1003900001FA02F120FA0CFCDCBF41EA0C019040AA
:1003A000E41AA2BF01EB0451294330BD6FEA0404F3
:1003B0001F3C1CDA0C340EDC04F11404C4F12002DE
:1003C00020FA04F001FA02F340EA030021FA04F3F0
:1003D00045EA030130BDC4F10C04C4F1200220FA47
:1003E00002F001FA04F340EA0300294630BD21FA85
:1003F00004F0294630BD94F0000F83F4801306BF4B
:1004000081F480110134013D4EE77FEA645C18BF3E
:100410007FEA655C29D094EA050F08BF90EA020FD5
:1004200005D054EA000C04BF1946104630BD91EACD
:10043000030F1EBF0021002030BD5FEA545C05D1D0
:100440004000494128BF41F0004130BD14F580040F
:100450003CBF01F5801130BD01F0004545F0FE4183
:1004600041F470014FF0000030BD7FEA645C1ABFB8
:10047000194610467FEA655C1CBF0B46024650EAEF
:10048000013406BF52EA033591EA030F41F400211B
:1004900030BD00BF90F0000F04BF0021704730B5A1
:1004A0004FF4806404F132044FF000054FF0000176
:1004B00050E700BF90F0000F04BF0021704730B537
:1004C0004FF4806404F1320410F0004548BF40420C
:1004D0004FF000013EE700BF42004FEAE2014FEA61
:1004E00031014FEA02701FBF12F07F4393F07F4F3C
:1004F00081F06051704732F07F4208BF704793F03F
:100500007F4F04BF41F40021704730B54FF4607451
:1005100001F0004521F000411CE700BF50EA010254
:1005200008BF704730B54FF000050AE050EA0102FD
:1005300008BF704730B511F0004502D5404261EB6D
:1005400041014FF4806404F132045FEA915C3FF4AE
:10055000D8AE4FF003025FEADC0C18BF03325FEA4B
:10056000DC0C18BF033202EBDC02C2F1200300FAFC
:1005700003FC20FA02F001FA03FE40EA0E0021FA21
:1005800002F11444BDE600BF70B54FF0FF0C4CF40F
:10059000E06C1CEA11541DBF1CEA135594EA0C0FC1
:1005A00095EA0C0F00F0DEF82C4481EA030621EAFC
:1005B0004C5123EA4C5350EA013518BF52EA033537
:1005C00041F4801143F4801338D0A0FB02CE4FF0E9
:1005D0000005E1FB02E506F00042E0FB03E54FF019
:1005E0000006E1FB03569CF0000F18BF4EF0010E11
:1005F000A4F1FF04B6F5007F64F5407404D25FEA0D
:100600004E0E6D4146EB060642EAC62141EA5551BF
:100610004FEAC52040EA5E504FEACE2EB4F1FD0C01
:1006200088BFBCF5E06F1ED8BEF1004F08BF5FEA7F
:10063000500E50F1000041EB045170BD06F0004631
:1006400046EA010140EA020081EA0301B4EB5C04DE
:10065000C2BFD4EB0C0541EA045170BD41F48011D6
:100660004FF0000E013C00F3AB8014F1360FDEBFFB
:10067000002001F0004170BDC4F10004203C35DAD7
:100680000C341BDC04F11404C4F1200500FA05F35A
:1006900020FA04F001FA05F240EA020001F00042FB
:1006A00021F0004110EBD37021FA04F642EB060171
:1006B0005EEA430E08BF20EAD37070BDC4F10C049B
:1006C000C4F1200500FA04F320FA05F001FA04F25F
:1006D00040EA020001F0004110EBD37041F100014B
:1006E0005EEA430E08BF20EAD37070BDC4F1200556
:1006F00000FA05F24EEA020E20FA04F301FA05F2BE
:1007000043EA020321FA04F001F0004121FA04F265
:1007100020EA020000EBD3705EEA430E08BF20EA35
:10072000D37070BD94F0000F0FD101F0004640006F
:1007300041EB010111F4801F08BF013CF7D041EAF1
:10074000060195F0000F18BF704703F000465200F5
:1007500043EB030313F4801F08BF013DF7D043EAC6
:100760000603704794EA0C0F0CEA135518BF95EA7C
:100770000C0F0CD050EA410618BF52EA4306D1D103
:1007800081EA030101F000414FF0000070BD50EA22
:10079000410606BF1046194652EA430619D094EAAC
:1007A0000C0F02D150EA013613D195EA0C0F05D196
:1007B00052EA03361CBF104619460AD181EA0301EA
:1007C00001F0004141F0FE4141F470014FF00000A2
:1007D00070BD41F0FE4141F4780170BD70B54FF03D
:1007E000FF0C4CF4E06C1CEA11541DBF1CEA1355BD
:1007F00094EA0C0F95EA0C0F00F0A7F8A4EB05049F
:1008000081EA030E52EA03354FEA013100F0888095
:100810004FEA03334FF0805545EA131343EA12635E
:100820004FEA022245EA111545EA10654FEA002613
:100830000EF000419D4208BF964244F1FD0404F5CC
:10084000407402D25B084FEA3202B61A65EB030528
:100850005B084FEA32024FF480104FF4002CB6EBE5
:10086000020E75EB030E22BFB61A754640EA0C0065
:100870005B084FEA3202B6EB020E75EB030E22BFA5
:10088000B61A754640EA5C005B084FEA3202B6EBE6
:10089000020E75EB030E22BFB61A754640EA9C00A5
:1008A0005B084FEA3202B6EB020E75EB030E22BF75
:1008B000B61A754640EADC0055EA060E18D04FEA33
:1008C000051545EA16754FEA06164FEAC30343EAD3
:1008D00052734FEAC2025FEA1C1CC0D111F4801FA0
:1008E0000BD141EA00014FF000004FF0004CB6E799
:1008F00011F4801F04BF01430020B4F1FD0C88BF38
:10090000BCF5E06F3FF6AFAEB5EB030C04BFB6EB42
:10091000020C5FEA500C50F1000041EB045170BD35
:100920000EF0004E4EEA113114EB5C04C2BFD4EB62
:100930000C0541EA045170BD41F480114FF0000EE6
:10094000013C90E645EA060E8DE60CEA135594EA62
:100950000C0F08BF95EA0C0F3FF43BAF94EA0C0F65
:100960000AD150EA01347FF434AF95EA0C0F7FF4DA
:1009700025AF104619462CE795EA0C0F06D152EA2E
:1009800003353FF4FDAE1046194622E750EA410612
:1009900018BF52EA43067FF4C5AE50EA41047FF423
:1009A0000DAF52EA43057FF4EBAE12E74FF0FF3C88
:1009B00006E000BF4FF0010C02E000BF4FF0010C59
:1009C0004DF804CD4FEA410C7FEA6C5C4FEA430CD2
:1009D00018BF7FEA6C5C1BD001B050EA410C0CBF21
:1009E00052EA430C91EA030F02BF90EA020F002083
:1009F000704710F1000F91EA030F58BF994208BFEA
:100A000090422CBFD8176FEAE37040F001007047A6
:100A10004FEA410C7FEA6C5C02D150EA013C07D1FD
:100A20004FEA430C7FEA6C5CD6D152EA033CD3D048
:100A30005DF8040B704700BF8446104662468C4642
:100A40001946634600E000BF01B5FFF7B7FF002875
:100A500048BF10F1000F01BD4DF808EDFFF7F4FF9E
:100A60000CBF012000205DF808FB00BF4DF808ED29
:100A7000FFF7EAFF34BF012000205DF808FB00BF4C
:100A80004DF808EDFFF7E0FF94BF012000205DF86E
:100A900008FB00BF4DF808EDFFF7CEFF94BF012023
:100AA00000205DF808FB00BF4DF808EDFFF7C4FF1C
:100AB00034BF012000205DF808FB00BF4FEA41026F
:100AC00012F5001215D211D56FF47873B3EB6252A0
:100AD00012D94FEAC12343F0004343EA505311F0C7
:100AE000004F23FA02F018BF404270474FF0000059
:100AF000704750EA013005D111F0004008BF6FF097
:100B0000004070474FF00000704700BF4FEA4102BD
:100B1000B2F1E04324BFB3F5001CDCF1FE5C0DD95B
:100B200001F0004C4FEAC0024CEA5070B2F1004FA5
:100B300040EB830008BF20F00100704711F0804FA8
:100B400021D113F13872BCBF01F00040704741F46D
:100B500080114FEA5252C2F11802C2F1200C10FA71
:100B60000CF320FA02F018BF40F001004FEAC12355
:100B70004FEAD32303FA0CFC40EA0C0023FA02F3F9
:100B80004FEA4303CCE77FEA625307D150EA0133CF
:100B90001EBF4FF0FE4040F44000704701F000409F
:100BA00040F0FE4040F40000704700BF53B94AB91E
:100BB000002908BF00281CBF4FF0FF314FF0FF3065
:100BC00000F072B9ADF1080C6DE904CE00F006F842
:100BD000DDF804E0DDE9022304B070472DE9F047B9
:100BE000089E04468846002B4BD18A42154667D999
:100BF000B2FA82F24AB1C2F1200701FA02F320FAF6
:100C000007F7954047EA030894404FEA154E230C36
:100C1000B8FBFEF71FFA85FC0EFB178843EA084372
:100C200007FB0CF1994209D9EB1807F1FF3080F06E
:100C30001B81994240F21881023F2B445B1AA4B2F7
:100C4000B3FBFEF00EFB103344EA034400FB0CFC44
:100C5000A44509D92C1900F1FF3380F00781A44580
:100C600040F2048102382C4440EA0740A4EB0C0413
:100C700000271EB1D4400023C6E900433946BDE831
:100C8000F0878B4209D9002E00F0EB800027C6E9DF
:100C9000000138463946BDE8F087B3FA83F7002FE4
:100CA00047D18B4202D3824200F2FA80841A61EB70
:100CB000030301209846002EE0D0C6E90048DDE796
:100CC00002B9FFDEB2FA82F2002A40F08F80491B9F
:100CD0004FEA154E1FFA85F80127B1FBFEFC230CE5
:100CE0000EFB1C1143EA014308FB0CF1994207D9A2
:100CF000EB180CF1FF3002D2994200F2CD8084460D
:100D0000591AA3B2B1FBFEF00EFB101443EA0444DF
:100D100008FB00F8A04507D92C1900F1FF3302D2D7
:100D2000A04500F2B6801846A4EB080440EA0C4047
:100D30009FE7C7F1200CBB4022FA0CFE4EEA030EDF
:100D400001FA07F420FA0CF521FA0CF34FEA1E48D9
:100D50002543B3FBF8F92C0C08FB19331FFA8EFA64
:100D600044EA034309FB0AF49C4202FA07F200FA40
:100D700007F10BD91EEB030309F1FF3080F08780E8
:100D80009C4240F28480A9F1020973441B1BADB25E
:100D9000B3FBF8F008FB103345EA034400FB0AFA02
:100DA000A24508D91EEB040400F1FF336BD2A24523
:100DB00069D90238744440EA0940A0FB0289A4EBD7
:100DC0000A044C45C2464B4654D351D0002E69D03C
:100DD000B1EB0A0564EB030404FA0CFCFD40FC4093
:100DE0004CEA0505C6E90054002747E7C2F1200395
:100DF00020FA03F7954001FA02F021FA03F34FEAD3
:100E0000154E3843010CB3FBFEF71FFA85F80EFBB5
:100E1000173341EA034107FB08F38B4204FA02F45B
:100E200007D9691807F1FF3C2FD28B422DD9023F19
:100E30002944CB1A81B2B3FBFEF00EFB103341EA1A
:100E4000034100FB08F38B4207D9691800F1FF3C0E
:100E500017D28B4215D902382944C91A40EA0747EC
:100E60003BE73746304609E70746E7E61846FBE624
:100E70004145ABD2B8EB020A69EB0E0201381346CA
:100E8000A4E76046E9E7184695E76746D1E781465B
:100E90007CE702382C4447E7ACF1020C2B442FE7E7
:100EA000384608E73746E9E6704700BF034613F8BF
:100EB000012B002AFBD1181A0138704700000000EE
:100EC00001F0FF01102A2BDB10F0070F08D010F8FB
:100ED000013B013A8B422DD010F0070F42B3F6D1FF
:100EE000F0B441EA012141EA014122F007047FF018
:100EF00000070023F0E80256083C85EA010586EA6F
:100F0000010685FA47F5A3FA87F586FA47F6A5FAAA
:100F100087F68EB9EED1F0BC01F0FF0102F00702B6
:100F200032B110F8013B013A83EA010313B1F8D161
:100F30000020704701387047002D06BF3546033842
:100F4000073815F0010F07D1013015F4807F02BF7B
:100F5000013015F4C03F0130F0BC0138704700BFCC
:100F600070B50E4B0E4D1B682A7806464FF47A700A
:100F7000B0FBF2F0B3FBF0F000F01CFB08B90F2E51
:100F800001D9012070BD0446024631464FF0FF30C2
:100F900000F0CCFA6E60204670BD00BF100000204B
:100FA0000000002008B50B4B1A6842F400721A606A
:100FB0001A6842F480621A601A6842F480721A60F9
:100FC000032000F0A1FA0020FFF7CAFF02F09CFC0A
:100FD000002008BD003C0240034A044B11681B7806
:100FE0000B441360704700BFB401002000000020D4
:100FF000014B1868704700BFB401002038B50446A3
:10100000FFF7F6FF631C054602D0044B1B781C4417
:10101000FFF7EEFF401BA042FAD338BD00000020CE
:1010200000287CD038B590F820300446002B73D0CF
:101030002268136823F002031360FFF7D9FF054607
:1010400004E0FFF7D5FF401B0A285CD823685A68E4
:101050009107F6D41A6842F001021A60FFF7C8FF40
:10106000054604E0FFF7C4FF401B0A284BD823685D
:101070005A68D207F6D5227E012A1A680CBF42F0C0
:10108000800222F080021A60627E012A1A680CBF78
:1010900042F0400222F040021A60A27E012A1A6841
:1010A0000CBF42F0200222F020021A60E27E012AE8
:1010B0001A680CBF22F0100242F010021A60227F60
:1010C000012A1A680CBF42F0080222F008021A60D6
:1010D000627F012A1A680CBF42F0040222F0040267
:1010E0001A60D4E90221D4E904500A4361682A4312
:1010F000024301390A4301250021DA610846616291
:1011000084F8205038BD636A052243F400336362DB
:10111000012084F8202038BD02F014FC88E701206B
:10112000704700BF90F82030013B012B05D9436A7E
:1011300043F480234362012070473C4BD3F80022E4
:1011400042F00102F0B4C3F80022D3F8002222F4E6
:101150007C52C3F80022D3F80022486A42EA0022F7
:10116000C3F800224A69D3F81C52012402F01F0080
:1011700004FA00F0C4432540C3F81C52CD69002D89
:101180003AD0012D15D1D3F80C520543C3F80C52B7
:10119000D2000F688D888E688B8902F1804202F53B
:1011A000C84245EA074543EA0643C2F84052C2F83E
:1011B00044328B691D4A9BBBD2F804322340C2F8EB
:1011C00004320B692BBB194BD3F814221440C3F81B
:1011D00014420B6A012B05D1144AD2F81C32184371
:1011E000C2F81C02114AD2F8003223F00103002099
:1011F000C2F80032F0BC7047D3F80C522540C3F857
:101200000C52D20002F18042CF688D888E680B8824
:10121000C5E7064AD2F814320343C2F81432D8E7BD
:10122000D2F804320343C2F80432CAE70064004033
:1012300038B590F82030012B05D0436A43F40023E1
:101240004362012038BD0268022380F82030136811
:1012500023F0010313600446FFF7CAFE054604E0CD
:10126000FFF7C6FE401B0A2807D823685B6813F007
:101270000103F5D16362184638BD636A052243F461
:1012800000336362012084F8202038BD90F82030BC
:10129000013B012B05D9436A43F4802343620120BB
:1012A000704702685369194351610020704700BFBD
:1012B000704700BF704700BF704700BF704700BF56
:1012C000704700BF704700BF704700BF704700BF46
:1012D000704700BF704700BF704700BF704700BF36
:1012E000704700BF2DE9F84F03685C69D3F80480AC
:1012F0009F68D3F80CB0D3F81090D3F818A014F06E
:101300000106054620D017F001060DD00122B907CD
:101310009A6000F1C7807A0700F1C88017F00806CC
:1013200000F0DE804FF48056FB050BD52B684FF4A0
:101330008072B8059A6000F1B180790540F1BE80F5
:1013400046F40056FB0376D4230702D51BF0100F9A
:101350006BD1670703D51BF0080F40F09480A007FE
:1013600003D52B68DB68990777D1620602D519F09F
:10137000100F54D1A30602D519F0080F66D1E70665
:1013800003D52B681B6998076BD1A10302D518F010
:10139000100F6AD1E20302D518F0080F6CD12304B4
:1013A00034D518F0040F2B682ED0E70504D51AF0B9
:1013B000010F18BF46F00106A00504D51AF0020F70
:1013C00018BF46F00206610504D51AF0040F18BFD5
:1013D00046F00406220517D51AF0700A14D0BAF1A7
:1013E000300F00F087806ED9BAF1500F7FD0BAF17C
:1013F000600F00F08280BAF1400F01D146F0400644
:101400009A6922F070029A6104225A602EB16B6AC6
:101410001E436E622846FFF763FFBDE8F88F2B6816
:10142000102246F480661A61A4E72B68102246F465
:101430000076DA608DE72B684FF48032B8039A604B
:1014400028D4790335D546F400467DE72B68082279
:101450001A612846FFF73EFF91E72846FFF734FF61
:1014600083E72846FFF734FF8FE72B6810225A6086
:101470002846FFF731FF8DE72B6808225A6028467F
:10148000FFF72CFF8BE72B680822DA602846FFF76E
:101490001DFF64E72846FFF70FFF55E72846FFF7D3
:1014A00009FF4FE7FFF704FF00263DE74FF4006612
:1014B0003AE73A0310D546F4803645E73A0512D5A7
:1014C00046F480463EE7BAF1100F19D0BAF1200F6A
:1014D00096D146F0100693E72846FFF7F3FE33E770
:1014E000FFF7ECFE20E72846FFF7EAFE2AE746F082
:1014F000800685E746F0200682E746F480767FE79F
:1015000046F008067CE700BF074AD3684FF6FF01A4
:101510000B40000243F0BF6300F4E06043F400338B
:101520000343D360704700BF00ED00E0184BDB6859
:10153000C3F3022330B4C3F10705042D03F10404FF
:1015400028BF0425062C19D9033B4FF0FF349C40DB
:1015500022EA04044FF0FF32AA4021EA020101FA14
:1015600003F2224312010028D2B20ADB00F16040EC
:1015700000F5614080F8002330BC7047002423460A
:10158000E8E7044B00F00F0003441A7630BC7047C4
:1015900000ED00E0FCEC00E0002807DB00F01F019C
:1015A00001234009024A8B4042F82030704700BFB7
:1015B00000E100E00138B0F1807F0ED2084B10B49A
:1015C000084C5860F02084F82300002207211046C0
:1015D0009A6019605DF8044B70470120704700BFA6
:1015E00010E000E000ED00E02DE9F04FDFF814C25C
:1015F000DFF81482D1F800E083B0002503E0013564
:10160000102D00F094800123AB400EEA0304A342A6
:10161000F5D14E6826F0100ABAF1020F00F08A8068
:101620004FEA45090322D0F800B002FA09F2D2438A
:1016300006F0030702EA0B0B07FA09F70AF1FF3A73
:1016400047EA0B07BAF1010F076040F29980C768BB
:101650008B683A4003FA09F31343C360F300CED515
:1016600000230193D8F8443043F48043C8F8443051
:10167000D8F8443025F0030202F1804203F480439D
:1016800002F59C32019305F00307019BD2F8089004
:10169000BF000F23BB4029EA030A544B98421ED0D7
:1016A00003F5806398427ED0514B984200F08280CF
:1016B000504B984200F085804F4B984200F0888054
:1016C0004E4B984200F08B804D4B98420CBF4FF030
:1016D00006094FF0070909FA07F74AEA070AC2F8AC
:1016E00008A0DCF80030E243F70354BF1340234363
:1016F000CCF80030DCF80430B70354BF1340234368
:10170000CCF80430DCF80830F70254BF1340234310
:10171000CCF80830DCF80C30B60205F1010554BFF6
:1017200013402343102DCCF80C307FF46CAF03B082
:10173000BDE8F08F4FEAD50900EB890905F00707EE
:10174000D9F82020BF004FF00F0B0BFA07FB22EA5D
:101750000B0A0A69BA4042EA0A02C9F820204FEA95
:1017600045090322D0F800A002FA09F2D24306F09C
:10177000030702EA0A0A07FA09F747EA0A070760B5
:10178000876807EA020ACF6807FA09F747EA0A07F3
:101790008760D0F804A0C6F300172AEA0303AF401D
:1017A0001F43476053E74FF0010909FA07F74AEA78
:1017B000070A94E74FF0020909FA07F74AEA070A0D
:1017C0008DE74FF0030909FA07F74AEA070A86E7A7
:1017D0004FF0040909FA07F74AEA070A7FE74FF0D2
:1017E000050909FA07F74AEA070A78E70000024004
:1017F00000080240000C02400010024000140240A9
:1018000000180240003C01400038024003691942C0
:1018100014BF01200020704702B90904816170479C
:1018200060B1484A136803F00F038B4208D2CBB271
:101830001370136803F00F038B4201D0012070472F
:1018400003682DE9F0419D0714D55C0704D53E4C93
:10185000A26842F4E052A2601A0704D53A4CA2688A
:1018600042F46042A260384C8568A26822F0F0021F
:101870002A43A260DF0704460D4622D54268012AAA
:1018800056D0931E012B304B1B6858D9990725D58C
:101890002D4EB36823F003031343B360FFF7A8FB97
:1018A00041F28837804605E0FFF7A2FBA0EB080075
:1018B000B84242D8B368626803F00C03B3EB820FFE
:1018C000F2D1204A136803F00F03AB4209D9EBB2FF
:1018D0001370136803F00F03AB4202D00120BDE880
:1018E000F08123685A0706D51749E0688A6822F410
:1018F000E05202438A601B0711D400F04BF8124BF0
:1019000012499B68124AC3F30313CB5C20FA03F31A
:1019100000201360FFF724FB0020BDE8F0810A4A95
:101920002169936823F4604343EAC1039360E4E7C9
:10193000054B1B689E03ABD4D0E70320EDE798016D
:10194000A6D4CBE7003C0240003802401852000801
:1019500010000020044B054A9B680549C3F382230D
:101960000868D35CD840704700380240285200080D
:1019700010000020044B054A9B680549C3F342331D
:101980000868D35CD84070470038024028520008ED
:1019900010000020284908B58B6803F00C03082BC1
:1019A00007D00C2B1DD0254A2548042B18BF104604
:1019B00008BD4A684B6813F4800302F03F0230D13F
:1019C00049681E48C1F38811A1FB0001FFF7EEF83A
:1019D000194B5B68C3F3014301335B00B0FBF3F0C9
:1019E00008BD4A684B6813F4800302F03F020ED131
:1019F00049681248C1F38811A1FB0001FFF7D6F82E
:101A00000D4B5B68C3F30273B0FBF3F008BD4B688A
:101A10000B48C3F38813A3FB00010023FFF7C6F8AC
:101A2000EEE74B680648C3F38813A3FB00010023CD
:101A3000FFF7BCF8CCE700BF003802400024F400F8
:101A400000127A002DE9F0410368DA0782B00446FB
:101A500036D5AE498A6802F00C02042A00F0D28022
:101A60008A6802F00C02082A00F0C880A7498A6838
:101A700002F00C020C2A00F004816368B3F5803F89
:101A800000F00481B3F5A02F00F060819F4D2A681B
:101A900022F480322A602A6822F480222A60002BF5
:101AA00040F0F980FFF7A4FA064605E0FFF7A0FA38
:101AB000801B642800F20D812B689903F6D42368FB
:101AC0009A072FD5914A916811F00C0F00F0AB8066
:101AD000916801F00C01082900F0A1808B498A6807
:101AE00002F00C020C2A00F02C81E368002B00F0BD
:101AF0001781874B854D01221A60FFF779FA064658
:101B000005E0FFF775FA801B022800F2E2802B68DF
:101B10009807F6D52B68226923F0F80343EAC2033D
:101B20002B6023681A0715D56369002B00F08D80A0
:101B3000784B764D01221A60FFF75AFA064605E007
:101B4000FFF756FA801B022800F2C3806B6F9B07D9
:101B5000F6D52368580731D56C4A136C13F08053BF
:101B600000F0838000266C4D2A68D10540F1A180E9
:101B7000A368012B00F0B180052B00F0F780634DC6
:101B80002A6F22F001022A672A6F22F004022A67D4
:101B9000002B40F0A780FFF72BFA41F288378046F0
:101BA00006E0FFF725FAA0EB0800B84200F29180AA
:101BB0002B6F9807F5D4002E40F0D280A269CAB1ED
:101BC000524DA96801F00C01082924D0022A534A79
:101BD0004FF00001116000F0D380FFF709FA2C46A6
:101BE000054604E0FFF704FA401B022871D8236879
:101BF0009B01F7D4002002B0BDE8F0814A6857028B
:101C00007FF534AF414A126895037FF559AF62689A
:101C1000002A7FF455AF012002B0BDE8F081526880
:101C200057023FF55BAF394A1268950702D5E26863
:101C3000012AF0D1354920690A6822F0F80242EA07
:101C4000C0020A601A0785D56EE7324A2F4D13602D
:101C5000FFF7CEF9064604E0FFF7CAF9801B022819
:101C600037D86B6F9F07F7D473E70193136C43F07A
:101C700080531364136C03F080530193019B01267E
:101C800071E74A6856027FF5F8AEBBE71F4A136852
:101C900043F480331360FFF7ABF91C4D064604E0B4
:101CA000FFF7A6F9801B642813D82B689803F7D593
:101CB00005E72A6842F480722A60FFF799F907461F
:101CC0002B68DA053FF554AFFFF792F9C01B0228E5
:101CD000F6D9032002B0BDE8F0810C4A136F43F03F
:101CE00001031367FFF784F9084D804641F28837F6
:101CF00005E0FFF77DF9A0EB0800B842E9D82B6FAB
:101D00009B07F6D5002E3FF459AF29E0003802407A
:101D100000004742800E474200700040600047428A
:101D20002F4A304D1360FFF763F9064604E0FFF7D2
:101D30005FF9801B0228CCD82B689907F7D4236859
:101D4000F0E64A6856023FF5D0AE6CE7254B1A68BC
:101D500042F480221A601A6842F480321A609AE7CC
:101D6000204A136C23F08053136427E71D4B1A6F2E
:101D700042F004021A671A6F42F001021A67B1E7D3
:101D8000FFF736F9064604E0FFF732F9801B022818
:101D90009FD82B689901F7D4D4E90732666AE06AC4
:101DA000216B1343A26A0F4C43EA861343EA006394
:101DB000520843EA0173013A0B4943EA0243012204
:101DC0006B600A60FFF714F9054605E0FFF710F9AC
:101DD000401B02283FF67DAF23689A01F6D509E73C
:101DE0000000474200380240600047422DE9F041C0
:101DF00007460D46164698463C6801E0731C06D11E
:101E0000A06835EA0003F9D00020BDE8F081FFF7B3
:101E1000EFF8A0EB08008642EED8D7E900315A6807
:101E2000B1F5827F22F0E0025A6014D0BA6AB2F5AE
:101E3000005F07D00122002387F8512087F8503037
:101E40000320E2E71A6822F400521A601A6842F48A
:101E500000521A60EEE7BA68B2F5004F02D0B2F550
:101E6000806FE3D11A6822F040021A60DEE700BFFB
:101E7000164B30B51B68164DA5FB03535B0D4FF495
:101E80007A7505FB03F3456883B0B5F5827F044698
:101E9000019307D10CE0019B2268013B01939368F9
:101EA0001B0602D5019B002BF5D1002003B030BDED
:101EB00013460A468021FFF799FF0028F5D0636D8D
:101EC00043F0200363650320F0E700BF100000200B
:101ED000819F5E162DE9F043044683B0012084F80B
:101EE0005000914698460F460A9DFFF781F894F8F6
:101EF00051306268DBB2012B064611D0B2F5827F09
:101F000009D002200122002384F8512084F85030A7
:101F100003B0BDE8F083A1680029F2D1042BF0D111
:101F2000002F64D0B9F1000F61D0B8F1000F5ED07E
:101F300094F851302168C4F83890042B1CBF052355
:101F400084F8513000236365A4F83E80A4F83680FD
:101F50000868A4F83C8040062763A4F83480C4E9EC
:101F6000103346D5E368B3F5006F56D0002A45D14B
:101F70003B780B73E38E226B013B9BB20132E3860D
:101F800022630127E38E9BB21BB9E38F9BB2002B28
:101F900038D023689A6891070FD5E28E92B262B169
:101FA0005FB1226B12781A73E28E216B2368013ABB
:101FB00092B20131E286216300279A68D2070DD5DB
:101FC000E28F92B252B1A26BDB681370E38FA26B07
:101FD000013B9BB20132E387A2630127FFF708F8B8
:101FE000801B8542CED86B1CCCD003208AE7012011
:101FF00088E70B6843F040030B60B3E7B8F1010FCB
:10200000BFD1B5E7324629462046FFF731FF002809
:1020100043D020236365012074E7002A34D0B8F14F
:10202000010F31D00127E38E9BB21BB9E38F9BB226
:10203000002BE7D023689A6891070DD5E28E92B203
:1020400052B14FB1216B31F8022BDA60E28E21637D
:10205000013A92B2E28600279A68D2070CD5E28F45
:1020600092B24AB1A26BDB6822F8023BE38FA26313
:10207000013B9BB2E3870127FEF7BAFF801BA84212
:10208000D1D3681CCFD0B0E737F8023BCB60E38EEA
:102090002763013B9BB2E386C4E7A368002B7FF470
:1020A00031AF23680190DA6801929B680193019B2C
:1020B00028E700BF00283BD090F85120002370B5DE
:1020C00002F0FF010446836262B31846D4E9013589
:1020D000D4E903212B4313436269E569266A0B4364
:1020E0001343A26921682B43022584F851503343DE
:1020F00002F400750E682B43120C656A02F00402AC
:1021000003432A4326F040060E600B604A60CB6909
:10211000002223F400630125CB611046626584F838
:10212000515070BD80F8501001F05CFCA06ACDE702
:102130000120704710B490F85040012C03D05DF896
:10214000044BFFF7C7BE02205DF8044B704700BF89
:10215000F0B4046A8F680E68144D24F00104046220
:10216000036A4468826923F0020322F07302A842E2
:1021700043EA070342EA06020AD005F58065A84251
:1021800006D0496844608261F0BC416303627047D5
:10219000CD6823F008032B43D1E9055624F440749D
:1021A000354323F004032C43EBE700BF000001405C
:1021B000F0B4046A8F680E68154D24F480740462CC
:1021C000036A4468C26923F4007322F07302A842D0
:1021D00043EA072342EA06020AD005F58065A842D1
:1021E00006D049684460C261F0BCC16303627047B5
:1021F000CD6823F4006343EA0523D1E9055624F4AE
:102200004054354323F4806344EA0514E9E700BFF2
:1022100000000140F0B4046A8F680E68104D24F489
:1022200080540462036A4468C26923F4005322F4B0
:10223000E642A84243EA073342EA06220AD005F5FD
:102240008065A84206D049684460C261F0BC016460
:10225000036270474D6924F4804444EA8514F2E730
:10226000000001400368DA6842F00102DA609A680F
:1022700002F00702062A03D01A6842F001021A602F
:102280000020704703680122186A01F01F0102FA5A
:1022900001F120EA010010B418621A6A0C4C1143D3
:1022A000A34219620FD00B4A93420CD09A6802F0F5
:1022B0000702062A03D01A6842F001021A600020C1
:1022C0005DF8044B70475A6C42F400425A64EDE7E3
:1022D0000000014000040140FFF7D4BF90F83C30FB
:1022E000012B5AD002220368F0B480F83D209A688E
:1022F0000C6822F47F4222F077020125402C80F8FE
:102300003C509A6074D04AD9602C2DD056D9702C8C
:102310001AD0B4F5005F0ED1D1E90152CC689968AA
:102320002A4342EA042221F47F410A439A609A68D0
:1023300042F480429A600023012280F83D2080F818
:102340003C30F0BC18467047D1E90152CC6899681E
:102350002A4342EA042221F47F410A439A609A68A0
:1023600042F077029A60E6E71C6A4D68CE6824F076
:1023700010041C6299691A6A21F4704122F0A002CB
:1023800042EA051241EA063199611A629A6822F01E
:10239000700242F067029A60CDE702207047102C6D
:1023A00004D03DD9202C01D0302CC4D19A6844F0FF
:1023B000070422F0700214439C60BCE7502CBAD191
:1023C0001D6A1E6A4C68CF6826F001061E629A6973
:1023D00025F00A0122F0F00242EA071221439A6135
:1023E00019629A6822F0700242F057029A60A2E7DE
:1023F0001D6A1E6A4C68CF6826F001061E629A6943
:1024000025F00A0122F0F00242EA071221439A6104
:1024100019629A6822F0700242F047029A608AE7D5
:10242000002CC3D087E700BF704700BF704700BFD4
:10243000704700BF704700BF03681A69910710B565
:10244000044602D5DA6892075FD41A69500702D5AC
:10245000DA68510746D41A69120702D5DA681007FC
:102460002ED41A69D20602D5DA68D00618D41A69B1
:10247000D10702D5DA68D2075DD41A69100602D5F1
:10248000DA6811065FD41A69520602D5DA68500676
:1024900061D41A69910602D5DA68920643D410BD58
:1024A0006FF010021A61DB69082213F4407F227773
:1024B000204664D0FFF7BAFF002223682277D6E7D0
:1024C0006FF008021A61DB6904229907227720461F
:1024D00052D1FFF7A9FF2046FFF7AAFF0022236889
:1024E0002277BEE76FF004021A619B69022213F49F
:1024F000407F227720463CD1FFF796FF2046FFF72A
:1025000097FF002223682277A5E76FF002021A6185
:102510009B6901229B07027725D0FFF787FF0022E6
:102520002368227791E76FF0200220461A61BDE808
:10253000104000F0A5B96FF001021A61204600F0CA
:102540000FFE236899E76FF080021A61204600F0C1
:1025500099F9236897E76FF040021A612046FFF768
:1025600069FF236895E7FFF75FFF2046FFF760FFED
:10257000D5E7FFF75BFFC4E7FFF758FFAEE7FFF7CC
:1025800053FF2046FFF754FF96E700BFF0B4364EE6
:1025900003684D698C680A68B04255D0B0F1804F2D
:1025A00029D0A6F57C46B04237D006F58066B04209
:1025B00033D006F58066B0422FD006F57846B0429B
:1025C0002BD006F57056B04213D006F58066B042A7
:1025D0000FD006F58066B0420BD0A6F59836B04213
:1025E00007D006F58066B04203D006F58066B0429B
:1025F00009D1C96804E04E68C96823F07003334309
:1026000023F440730B4323F080032B430360C46225
:10261000826201234361F0BC70474E68134F23F080
:1026200070033343CE6823F44073334323F08003B5
:102630002B43B8420360C4628262EAD10B69036330
:1026400001234361F0BC70474F68CE6823F07003EC
:102650003B4323F44073334323F080032B43036055
:10266000C4628262EAE700BF00000140000401404A
:10267000B8B190F83D3010B503F0FF0204465BB1ED
:10268000022384F83D302068211DFFF77FFF0123DE
:1026900084F83D30002010BD80F83C2001F0DAF9CC
:1026A000EEE70120704700BFB8B190F83D3010B59B
:1026B00003F0FF0204465BB1022384F83D3020683A
:1026C000211DFFF763FF012384F83D30002010BD7A
:1026D00080F83C2001F00EFAEEE70120704700BFC1
:1026E000F0B4046A8F680E68154D24F0100404627B
:1026F000036A4468826923F0200322F4E642A84278
:1027000043EA071342EA06220AD005F58065A8428B
:1027100006D0496844608261F0BC816303627047FF
:10272000CD6823F0800343EA0513D1E9055624F46C
:102730004064354323F0400344EA8504E9E700BFE1
:102740000000014038B590F83C30012B74D00D46A4
:1027500002230121044680F83C1080F83D300C2A09
:1027600019D8DFE802F00718181838181818511887
:1027700018181F0029460068FFF7EAFC236828693B
:10278000996941F008019961996921F00401996101
:102790009A6902439A610123002084F83D3084F84D
:1027A0003C0038BD29460068FFF734FD23682869DE
:1027B000D96941F40061D961D96921F48061D96195
:1027C000DA6942EA0022DA610020012384F83D3010
:1027D00084F83C00E5E729460068FFF781FF23689D
:1027E0002869996941F400619961996921F48061CE
:1027F00099619A6942EA00229A610020012384F8D3
:102800003D3084F83C00CCE729460068FFF7D0FC57
:1028100023682869D96941F00801D961D96921F093
:102820000401D961DA690243DA610020012384F8E6
:102830003D3084F83C00B4E7022038BD90F83C20DD
:10284000012A1AD070B40222046880F83D20D1E930
:10285000006503466068A26820F0700122F08002E3
:1028600031432A430126002561602846A26083F88F
:102870003D6083F83C5070BC70470220704700BF39
:10288000704700BF704700BF026811692DE9F84327
:10289000C568836821F440510446294300691161E9
:1028A000D16865690343E06921F416412B4321F0A7
:1028B0000C0103430B43D3605369A16923F44073B4
:1028C0000B43B0F5004F53619B4B00F09A809A4246
:1028D00059D003F580639A4255D0FFF73BF8974FE4
:1028E000636800EB800000EB80009B00B0FBF3F31B
:1028F000A7FB03235B091D01FFF72CF8666800EBBB
:10290000800000EB8000B600B0FBF6F6FFF722F87F
:10291000636800EB800000EB80009B00B0FBF3F3EA
:10292000A7FB03235B094FF0640909FB13631B0139
:102930003233A7FB03235B0903F0F006FFF70AF825
:10294000626800EB800000EB80009300B0FBF3F8BE
:10295000FFF700F8D4E9002300EB80009B0000EBB8
:102960008000B0FBF3F0A7FB0030400909FB1083A7
:102970001B013233A7FB0313C3F3431333432B442D
:102980009360BDE8F883FEF7F5FF6C4F636800EBDA
:10299000800000EB80009B00B0FBF3F3A7FB032358
:1029A0005B091D01FEF7E6FF666800EB800000EBA7
:1029B0008000B600B0FBF6F6FEF7DCFF636800EBC4
:1029C000800000EB80009B00B0FBF3F3A7FB032328
:1029D0004FF064095B0909FB13631B013233A7FB4A
:1029E00003235B0903F0F006FEF7C4FF626800EB07
:1029F0008000930000EB8000B0FBF3F8FEF7BAFF15
:102A0000A8E79A4259D003F580639A4255D0FEF761
:102A1000A1FF4A4F636800EB800000EB80005B0081
:102A2000B0FBF3F3A7FB03235B091E01FEF792FF44
:102A3000656800EB800000EB80006D00B0FBF5F5F1
:102A4000FEF788FF636800EB800000EB80005B000E
:102A5000B0FBF3F3A7FB03235B094FF0640909FB09
:102A60001353DB003233A7FB03231B0903F4F87570
:102A7000FEF770FF626800EB800000EB80005300FF
:102A8000B0FBF3F8FEF766FFD4E9002300EB80000B
:102A900000EB80005B00B0FBF3F3A7FB03135B09C3
:102AA00009FB1383DB003233A7FB0313C3F3421389
:102AB00033442B449360BDE8F883FEF75BFF1F4F60
:102AC000636800EB800000EB80005B00B0FBF3F379
:102AD000A7FB03235B091E01FEF74CFF656800EBB3
:102AE000800000EB80006D00B0FBF5F5FEF742FFC3
:102AF000636800EB800000EB80005B00B0FBF3F349
:102B0000A7FB03234FF064095B0909FB1353DB00A8
:102B10003233A7FB03231B0903F4F875FEF72AFFE2
:102B2000626800EB8000530000EB8000B0FBF3F81C
:102B3000FEF720FFA8E700BF001001401F85EB5102
:102B40002DE9F04107460E4690461D463C6801E0DF
:102B50006B1C06D1206836EA0003F9D10020BDE8DD
:102B6000F08135B1FEF744FAA0EB08008542EDD2C2
:102B70003C68E36823F4D073E3606369202223F0A8
:102B8000010300216361032087F8392087F838109A
:102B900087F83A20E3E700BF60B338B590F83930E2
:102BA000044603F0FF0203B32268242384F839307B
:102BB000D36823F40053D3602046FFF765FE2368F3
:102BC0001A6922F490421A615A6922F02A025A6163
:102BD000DA680025202142F40052DA602846E563D5
:102BE00084F8391084F83A1038BD80F8382000F0A5
:102BF000F3FFD9E7012070472DE9F0430F4690F825
:102C00003910202983B02DD187B3019272B3984631
:102C100090F83830012B044624D00023C3630121EF
:102C2000212380F8381080F83930FEF7E1F9019A55
:102C3000A2848146E284E58CADB243464A468021B7
:102C4000204655B3E58CA668013DADB2B6F5805F70
:102C5000E5840FD0FFF774FFE8B923683A785A602B
:102C60000137E8E7022003B0BDE8F083012003B09C
:102C7000BDE8F08343464A4680212046FFF760FFC7
:102C800048B93B8821682269C3F308034B60002AD6
:102C9000E6D10237CFE70320E5E74021FFF750FFF9
:102CA0000028F8D1202384F8380084F83930DAE796
:102CB00038B5114B48F6C02400220E251C60194679
:102CC0000124C3E907445D62C3E90522C3E9012287
:102CD000C3E903220446FEF725FA50B92046FEF761
:102CE000A7FA00B938BD054801F034FB00F044FDF7
:102CF00038BD00F041FDF1E7B80100203052000876
:102D00002DE9F04F2DED028BC14D8DB0002483468F
:102D10008027284644F201269A46894690462F622B
:102D20000A94CDF81A40CDF81E400994ADF82C4015
:102D3000ADF81860FFF7BEF922464FF48071B54830
:102D4000FEF76AFD0394039B1D2B05D8039B0133FB
:102D50000393039B1D2BF9D9AD4E00244FF6FF754D
:102D600009AA06A901230095224421443046FFF711
:102D7000E1F900230493049B1D2B05D8049B013328
:102D80000493049B1D2BF9D90134032CE8D19DF841
:102D900025309F4F03F00F03032B14BF0526092690
:102DA0004FF6FF7509AA06A9012300952244214484
:102DB0003846FFF7BFF900230593059B1D2B05D867
:102DC000059B01330593059B1D2BF9D9013463B293
:102DD0009E42E7DC01224FF480718E48FEF71CFD15
:102DE0009DF827209DF828309DF82510D243DB431D
:102DF000D2B2DBB201F00F0103EB022003298DF800
:102E00002720ABF800008DF8283014D0189A002342
:102E1000C9F80030C9F80430C8F80030C8F80430E8
:102E2000CAF80030CAF80430136053600DB0BDEC2E
:102E3000028BBDE8F08F9DF82B30803B1BB207EE74
:102E4000903A002BC8BFDFED746A9DF82C30B8EEC5
:102E5000E77AD4BFDFED717AC7EE267AA3F180035B
:102E60001BB2D8BF67EE277A002BC9ED007A07EEB8
:102E7000903AC8BFDFED686A9DF82930B8EEE77A6E
:102E8000D4BFDFED667AC7EE267AA3F180031BB2CA
:102E9000D8BF67EE277A002BF1EE677AC9ED017A89
:102EA00007EE903AC8BFDFED5C6A9DF82A30B8EEB5
:102EB000E77AD4BFDFED597AC7EE267AA3F1800313
:102EC0001BB2D8BF67EE277A002BC8ED007A07EE59
:102ED000903AC8BFDFED506AB8EEE77AD6BFDFEDB3
:102EE0004F7AC7EE267A67EE277AF1EE677AC8ED59
:102EF000017A99ED010AD9ED007A20EE000AA7EED9
:102F0000A70AB5EE400AF1EE10FAB1EEC08A00F160
:102F1000EB80B0EE480AF7EE000A00F093FFDFED19
:102F2000407A8AED000AB4EEE70AF1EE10FA30D5E5
:102F30000023CAF800300023CAF8043098ED010AD3
:102F4000D8ED007A20EE000AA7EEA70AB5EE400AF7
:102F5000F1EE10FAB1EEC08A00F1C380B0EE480A7B
:102F6000F7EE000A00F06EFFDFED2D7A189BB4EE4D
:102F7000E70AF1EE10FA83ED000A57D5189A0023FC
:102F80001360189A002353600DB0BDEC028BBDE8AE
:102F9000F08FB5EE400AF1EE10FACCD0D9ED017AFF
:102FA00087EE800A00F088FFDFED1F7A60EE277A57
:102FB00017EE900AFDF790FA13A3D3E90023FDF76B
:102FC0000DFCFDF7A3FD99ED007ACAF80400B5EEFB
:102FD000C07AF1EE10FA07EE900A06DDD9ED016A2B
:102FE000F5EEC06AF1EE10FAA8DCB5EEC07AF1EEAB
:102FF00010FA55D49FED0B7A77EE877ACAED017AF5
:103000009CE700BFAFF30080182D4454FB2109401A
:1030100024020020000802400000FE420000003CA4
:10302000CDCCCC3E0000B44300003443B5EE400AA2
:10303000F1EE10FAA5D0D8ED017A87EE800A00F003
:103040003BFF5FED077A60EE277A17EE900AFDF7F7
:1030500043FA29A3D3E90023FDF7C0FBFDF756FD92
:1030600098ED007A189BB5EEC07AF1EE10FA07EEF3
:10307000900A586007DDD8ED016AF5EEC06AF1EEFE
:1030800010FA3FF7D3AEB5EEC07AF1EE10FA15D4D0
:103090009FED177A189B77EE877AC3ED017AC5E624
:1030A00099ED017AB5EEC07AF1EE10FA17DD9FEDD9
:1030B000117A77EE677ACAED017A3FE798ED017AE7
:1030C000B5EEC07AF1EE10FA07DD9FED0A7A189B93
:1030D00077EE677AC3ED017AA8E6D9D5F5E789D509
:1030E000E5E700F043FF39E700F040FF11E700BFDC
:1030F0000000B44300003443182D4454FB21094020
:10310000D0B54AF2A552904288B023D004464BF67F
:10311000BE60241A18BF012410EE100AFDF7DCF976
:1031200000220D4BFDF730FA00220B4B06460F46EE
:10313000FDF792FC58B9304639460022074BFDF79F
:103140008BFC00280CBF2046002008B0D0BD00201A
:1031500008B0D0BD0024DFE70000594000003DC0AA
:1031600002686C4B9A4200D070472DE9F0476A4CD8
:103170008EB00CAB2046009308AA0AAB06A9FFF755
:10318000BFFD20889DED0C3ADDED0D3A9DED0A2A3C
:10319000DDED0B2A9DED081ADDED091A9DED060AFD
:1031A000DDED070AFFF7ACFF5C4B80B20128188009
:1031B00002D00EB0BDE8F0872388594DB3F5004F1B
:1031C00060D0B3F5005F6ED0B3F5805F40F08E80C5
:1031D0006B68DFED540A013300EE103AB8EEC00A16
:1031E00000F030FEBDEEC00A286885ED010A0E2110
:1031F00000F0FCFA0D21686800F0F8FA00220421C2
:103200004948FEF709FB00224FF400514648FEF7FB
:1032100003FB2688202E60D04FF00008802E52D06D
:103220004FF000090898FDF757F900223F4BFDF7D2
:10323000ABF9FDF743FC074660682C68FDF74CF9D5
:1032400000223B4BFDF7A0F9FDF738FC8246002039
:1032500000F094FA6A68374900943B46CDE901A032
:10326000CDE90492CDF80C803246334801F07AF86B
:103270003148FDF71BFE642382B22F492F48FFF728
:10328000BBFC96E72B68DFED270A013300EE103A0E
:10329000B8EEC00A00F0D6FDFDEEC07A17EE900A37
:1032A000C5ED007AA3E72B68DFED250A013B00EEB0
:1032B000103AB8EEC00A00F0A7FDBDEEC00A85EDD9
:1032C000000A286893E701224FF400511648FEF7E0
:1032D000A3FA4FF001092688A4E70122042112482D
:1032E000FEF79AFA4FF00108268897E7B3F5804F6A
:1032F000E7D16B68DFED120A013B00EE103AB8EE41
:10330000C00A00F081FDBDEEC00A286885ED010A03
:103310006DE700BF0010004098000020E001002091
:10332000080000200000344300080240000059401B
:1033300000408F403C520008A00000209003002075
:103340000000B4C270B5002494B0CDE90A44CDE9C0
:103350000844CDE90344CDE905441D4B00940C9489
:103360000294196C1B4A41F0805119641B6C03F0E4
:1033700080530093009B0194136823F4404343F46B
:103380008043136013680E9403F4404301930126B5
:10339000102302250822CDE90A6307A83C230199DE
:1033A0000F9207950D95CDE9115513951093FEF7E2
:1033B00049FB0F224FF48053314602A8CDE9035454
:1033C000069402920593FEF72BFA14B070BD00BF6D
:1033D00000380240007000402DE9804800248FB082
:1033E000FDF7E0FDFFF7AEFFCDE90744CDE9094465
:1033F000C64A00940B94116BC548C64FDFF854B30E
:10340000C54E41F004011163116B01F004010091FC
:1034100000990194116B41F080011163116B01F06F
:103420008001019101990294116B41F00101116336
:10343000116B01F00101029102990394116B41F0AB
:1034400002011163116B01F00201039103990494CD
:10345000116B41F008011163126B02F00802049233
:1034600042F206112246049DFEF7D6F922464FF499
:10347000C041AA48FEF7D0F922464FF41841A848A7
:10348000FEF7CAF922460421A648FEF7C5F94FF017
:10349000010942F2061207A99D48CDE907294FF01C
:1034A00002084FF48065CDE90944FEF79DF8032337
:1034B000052207A999480994CDE90A32CDE90758B0
:1034C000FEF792F84FF4C04207A994480792CDE95D
:1034D00008940A94FEF788F84FF4004207A98F4831
:1034E0000792CDE90849FEF77FF84FF4307207A93B
:1034F00087480792CDE90849FEF776F84FF48072C5
:1035000007A987480792CDE90849FEF76DF84FF4FF
:10351000184207A9824807920425CDE908940A9425
:10352000FEF762F807A97F480795CDE908940A9449
:10353000FEF75AF87C4A7D4911604FF4E13353603D
:1035400010460C2353619460C2E90344C2E9064467
:10355000FFF722FB764B079440F2572240F2E73107
:103560003846C7E90031FA600894BC60BC61FFF7D7
:103570007FF807A93846CDE90744FFF75FF96D4AA0
:103580006D48C2F814904FF4827E4FF4007C3021D5
:103590000A2310604FF080091046C2E906C1C2F844
:1035A00004E0C2F82090D362C2E90244C2F810805D
:1035B000C2E9094442F20F7AFEF77CFD5F4ACBF87C
:1035C000002077235846CBF804300594CDE9074412
:1035D000CDE90944CDE90B440D940694CBF808409D
:1035E000CBF81040CBF81840CBF80CA0FFF75CF8F4
:1035F00005A95846CDE90544FFF720F96023224686
:1036000007A958460793CDE908440B94FFF79AF8A9
:103610002A4607A95846FFF795F8584600F096FA4B
:10362000474BDFF83491336030460794CDE90844C6
:103630000A94CDE90544C6E90144C6E90344C6E954
:103640000544FFF715F84FF4805207A9304607925A
:10365000FEF744FE05A93046CDE90544FFF7EEF834
:103660004FF0804277234846C9E90134C9F8002069
:10367000CDE90544CDE90744CDE90944CDE90B4442
:103680000D94C9E903A4C9F81840FFF70DF805A97E
:103690004846CDE90544FFF7D1F8602307A9224643
:1036A0004846284D0994CDE907340B94FFF74AF8B2
:1036B000484600F04BFA032323496B604FF4C022C5
:1036C0004FF480132846C5E904232960C5E9024464
:1036D0002C766C76AC76EC762C776C77FDF7A0FCCC
:1036E0001A4B1B4A1C614FF4E131596018460C21FA
:1036F0005961C3E90244C3E906441A60FFF74CFA72
:103700002846FFF7D5FA414628E000BF00380240BE
:1037100000080240C402002004030020000402400C
:1037200000000240000C02409003002000440040D2
:103730000010004024020020003C00400004004033
:1037400000000140D0030020006400407C02002003
:1037500000100140E4010020500300202846FDF73E
:1037600095FD00F0B9F84FF4FA60FDF747FC3846D4
:10377000FEF778FDFEE700BF704700BF08B50528DB
:103780002CD8DFE800F00E19282426034FF400415E
:103790001348FEF73BF8A0F10100B0FA80F04009B1
:1037A00008BD4FF480710F48FEF730F8A0F101001A
:1037B000B0FA80F0400908BD4FF400710A48FEF7E6
:1037C00025F8A0F10100B0FA80F0400908BD802181
:1037D000F4E74021F2E74FF48071EFE7002008BDE5
:1037E000000402400000024000080240092908B518
:1037F00000EE100A42D00D291FD1DFED300AB8EEDD
:10380000C00A00F01FFBDFED2E0A00F0FDFABDEE4E
:10381000C00A4FF4487210EE103A2A492A485A3327
:1038200002FB03F381FB03121A44DB17C3EB2223D1
:10383000026803F5E173536308BD0E29FCD1DFED87
:103840001F0AB8EEC00A00F0FDFADFED1D0A00F015
:10385000DBFABDEEC00A4FF41B7210EE103A1949A4
:103860001A485A3302FB03F381FB03121A44DB1795
:10387000C3EB22230268FA33536308BDDFED140A59
:10388000B8EEC00A00F0DEFADFED0D0A00F0BCFA77
:10389000BDEEC00A4FF4577210EE103A0D490B48B6
:1038A0005A3302FB03F381FB03121A44DB17C3EB09
:1038B000E213026803F5AA73536308BD00003443A2
:1038C0000000B4C249D6B9F250030020E401002040
:1038D0000000B442B7600BB608B500210848FEF7F7
:1038E000FBFC00210748FEF7F7FC0D21AA20FFF79B
:1038F0007DFF0E21A520BDE80840FFF777BF00BF80
:1039000050030020E401002082B00D4B0021009103
:103910005A6C42F480425A645A6C02F4804200921B
:10392000009A01911A6C42F080521A641B6C03F0E9
:1039300080530193019B072002B0FDF7E5BD00BF56
:103940000038024070B50268244B88B000249A42C7
:10395000CDE90344CDE90544079401D008B070BD1A
:1039600003F5EA3301941A6C1D4842F000721A64A0
:103970001A6C02F000720192019A02941A6B42F0E2
:1039800002021A631B6B03F0020302934FF44073AD
:1039900003A90322039302250923CDE90623029EEE
:1039A0000495FDF721FE224621461320FDF7BEFDBA
:1039B0001320FDF7F1FD224621461420FDF7B6FD48
:1039C0001420FDF7E9FD224621461520FDF7AEFD46
:1039D0001520FDF7E1FD08B070BD00BF0064004098
:1039E0000004024070B50168184A88B00023914273
:1039F000CDE90333CDE90533079301D008B070BD9D
:103A000002F5FE320193116C114841F4004111643A
:103A1000116C01F40041019101990293136B43F081
:103A200004031363136B03F00403029303220623BE
:103A300003A94FF4E0550224029ECDE90354CDE9D9
:103A40000623FDF7D1FD08B070BD00BF003C00406B
:103A50000008024030B50368224989B000228B4239
:103A6000CDE90322CDE90522079218D01E498B42E9
:103A700001D009B030BD1D4B0292196C41F010010C
:103A800019641B6C03F01003029311463620029B4D
:103A9000FDF74CFD3620FDF77FFD09B030BD134B1F
:103AA0000092596C124841F001015964596C01F0BF
:103AB00001010091009901921A6B42F001021A6310
:103AC0001B6B03F0010301930222012303A94FF4AE
:103AD000C064019D0793CDE90342FDF785FD09B060
:103AE00030BD00BF0000014000100040003802401F
:103AF000000002400368B3F1804F82B012D0114A37
:103B0000934201D002B070470F4B002201921A6C11
:103B100042F002021A641B6C03F002030193019B42
:103B200002B0704703F50E33002200921A6C42F087
:103B300001021A641B6C03F001030093009B02B0A6
:103B4000704700BF000400400038024030B50268F2
:103B500089B00023B2F1804FCDE90333CDE90533BD
:103B600007931AD019498A4201D009B030BD184ACA
:103B70000293136B174843F001031363136B03F0B5
:103B800001030293C022022303A9029C0793CDE9FB
:103B90000323FDF729FD09B030BD02F50E32019374
:103BA000136B0C4843F001031363136B03F0010321
:103BB00001930222012303A92024019D0793CDE94B
:103BC0000342FDF711FD09B030BD00BF0004004005
:103BD000003802400000024070B5026827498AB0F0
:103BE00000238A42CDE90533CDE90733099329D073
:103BF00023498A4201D00AB070BD224A0393116C56
:103C0000214841F400311164116C01F40031039139
:103C100003990493136B43F001031363136B03F0D5
:103C200001030493049E05A90C2302250124032209
:103C300005930723CDE90654CDE90823FDF7D4FC0D
:103C40000AB070BD0F4A0193516C104841F0100149
:103C50005164516C01F01001019101990293136BB1
:103C600043F002031363136B03F00203029305A9ED
:103C7000C023022501240322029ED9E7001001403F
:103C800000440040003802400000024000040240AE
:103C9000704700BFFEE700BFFEE700BFFEE700BFC2
:103CA000FEE700BF704700BF704700BF704700BF0E
:103CB000FDF792B90148FDF715BB00BFD003002006
:103CC000FFF7F8BFFFF7F6BF0148FEF7B5BB00BF2F
:103CD000C402002070B5161E07DD0C468D19AFF327
:103CE000008004F8010BA542F9D1304670BD00BF39
:103CF00070B5161E07DD0C468D1914F8010BAFF3D5
:103D00000080A542F9D1304670BD00BF0C4A08B50D
:103D1000136833B118446946884208D810601846C1
:103D200008BD084B1360184469468842F6D900F074
:103D300083FA0C2303604FF0FF33184608BD00BF21
:103D4000A4010020300400204FF0FF30704700BF76
:103D50004FF400534B600020704700BF01207047B4
:103D6000002070471049114BD1F8882042F47002AE
:103D700010B4C1F888201A680D4C002042F00102EE
:103D80001A6098601A6822F0847222F480321A60F5
:103D90005C601A684FF0006422F480221A60D860D8
:103DA0008C605DF8044B704700ED00E00038024085
:103DB00010300024DFF834D0002103E00C4B5B58B6
:103DC000435004310B480C4B42189A42F6D30B4A2D
:103DD00002E0002342F8043B094B9A42F9D3FFF773
:103DE000C1FF00F02FFAFFF7F7FA7047000002203A
:103DF00050530008000000207C0000207C000020C0
:103E000030040020FEE7000008B52DED028BB0EE77
:103E1000608AF0EE408A00F033F820B9B0EE480A2C
:103E2000BDEC028B08BDB0EE480A00F029F820B1C5
:103E3000F4EEC88AF1EE10FAF0DDB0EE680ABDECDF
:103E4000028B08BD08B52DED028BB0EE608AF0EE56
:103E5000408A00F015F820B9B0EE480ABDEC028B9C
:103E600008BDB0EE480A00F00BF820B1F4EEC88AA5
:103E7000F1EE10FAF0D5B0EE680ABDEC028B08BD89
:103E800010EE103A33F000400ED0A0F50003B3F16D
:103E9000FE4F0BD3074B421E9A4209D9A0F1FF40B7
:103EA000B0FA80F040097047022070470420704744
:103EB00003207047FEFF7F0010B52DED028B284CCC
:103EC0008AB0B0EE408A00F0A7F894F900300133D0
:103ED000F0EE408A34D0B4EE488AF1EE10FA2FD6D4
:103EE000B0EE480A00F0A0F9F7EE007AB4EEE70A67
:103EF000F1EE10FA24DD01231A4A009318EE100A9D
:103F0000002301920893FCF7E7FA02460B46164895
:103F1000CDE90423CDE9022300F07EF994F90030C5
:103F2000022B8DED060B11D0684600F073F968B1D5
:103F3000089B83B9DDE90601FCF7E8FD08EE900A6D
:103F4000B0EE680A0AB0BDEC028B10BD00F074F947
:103F500021230360ECE700F06FF9089B0360E9E7B9
:103F600014000020945200089C52000810B52DED5A
:103F7000028B8AB0B0EE408A00F048F9244B93F9E6
:103F80000040631C09D0B4EE488AF1EE10FA04D662
:103F9000B5EEC08AF1EE10FA03D40AB0BDEC028B84
:103FA00010BD01231B4A009318EE100A0023019252
:103FB0000893FCF791FA0022CDE90401CDE9020152
:103FC0000023BCB110461946FCF708FC022CCDE9D1
:103FD000060111D100F030F921230360089B8BB951
:103FE000DDE90601FCF792FD00EE100A0AB0BDEC17
:103FF000028B10BDCDE90623684600F00BF90028BE
:10400000ECD1E7E700F018F9089B0360E8E700BF90
:1040100014000020A052000838B510EE105A25F008
:104020000044B4F17E5F2DED048B68D060DCB4F108
:104030007C5F0DDAB4F1485F6EDADFED647A70EE22
:10404000277AB7EE007AF4EEC77AF1EE10FA53DC75
:1040500000F0EAF8B7EE007A37EE400AB6EE008AD2
:1040600020EE088ADFED5A2ADFED5A3A9FED5A3AE0
:10407000DFED5A4A9FED5A4ADFED5A5A9FED5A5AE0
:104080009FED5A6ADFED5A6ADFED5A7AE8EE223A7E
:10409000A8EE034AE3EE884AA4EE085AE4EE885AF2
:1040A000E5EE086AA5EE886AA6EE887AE6EE087A5A
:1040B000B0EE480AB0EE479A67EE888A00F0A6F89C
:1040C0004D4B9C425BDDC8EE896A9FED4C7ADFED7B
:1040D0004C7AA0EE260AF0EE006AA0EE267A37EEC1
:1040E000C70ABDEC048B002DD8BFB1EE400A38BD25
:1040F00070EE407A87EEA70ABDEC048B38BDDFED89
:10410000417A9FED3F7A60EE277ABDEC048BE0EEBA
:10411000077AB0EE670A38BD60EE007ADFED2C2A30
:10412000DFED2C3ADFED2D4A9FED2B3A9FED2C4A27
:10413000DFED2C6A9FED2C5ADFED2C5A9FED2C6A97
:104140009FED2C7AE7EEA23ABDEC048BE3EEA74A92
:10415000A7EE834AE4EEA76AA4EE275AE6EEA75A32
:10416000A5EE276AA5EEA77AF7EE006AE6EE276AC3
:1041700067EE277A87EEA67AA0EE070A38BD10EE22
:10418000103A23F47F6323F00F0307EE903AB1EE69
:10419000676AA6EE278A77EE807AC8EE895A88EE9B
:1041A000275A9FED187ADFED187AF0EE006AA5EE37
:1041B000667A30EE000AB0EE675AA6EE265A90EE06
:1041C000257A37EE450A37EEC00A8AE7CAF2497106
:1041D00008EF1138047F4F3A2EC69D3D461124BD8D
:1041E000613330BFA80A4E3E2D57014090B0A6BEA5
:1041F00039D119C0ABAA2A3E9999793F2EBD3B33DC
:10420000DB0FC93F2EBD3BB3DB0F493FB1EEC00A08
:10421000704700BF002070479FED010B704700BF43
:10422000000000000000F87F10EE103A23F0004379
:1042300000EE103A704700BF014B1868704700BF8E
:104240001800002070B50D4E0D4CA41BA4100025C5
:10425000A54209D10B4E0C4C00F0D2FFA41BA410B8
:104260000025A54205D170BD56F825309847013587
:10427000EEE756F8253098470135F2E74853000835
:1042800048530008485300084C53000802440346B2
:10429000934200D1704703F8011BF9E770B50E4651
:1042A000054618B183690BB900F02CFAAB69AC680C
:1042B00013B9284600F026FA234B9C4217D16C68AC
:1042C000A3891B071DD52369DBB1013EA36816F83E
:1042D000011F013BA360E9B9002B2EDA22460A2117
:1042E000284600F05FF8013011D00A2011E0174B8A
:1042F0009C4201D1AC68E3E7154B9C4208BFEC68D7
:10430000DEE72146284600F09FF80028DDD04FF078
:10431000FF3070BD002B04DAA2699A4206DC0A293C
:1043200004D023685A1C22601970CFE72246284621
:1043300000F038F80130C9D1E9E723680A205A1C97
:1043400022601870E5E700BFCC520008EC5200086C
:10435000AC520008024B01461868FFF79FBF00BF30
:10436000180000200EB400B59CB01DAB0290069062
:104370006FF00041094807910491094953F8042B53
:1043800005910068019302A900F0ACFB029B00229A
:104390001A701CB05DF804EB03B0704718000020E1
:1043A0000802FFFFF8B50E461446054618B18369AA
:1043B0000BB900F0A7F9214B9C422AD16C68A36984
:1043C000A360A3891A072ED5236963B323692068E4
:1043D000C01A6369F6B28342374604DC2146284698
:1043E00000F026F928BBA368013BA36023685A1C90
:1043F00022601E7063690130834204D0A389DB0709
:1044000019D50A2E17D12146284600F011F990B18E
:104410000FE00B4B9C4201D1AC68D0E7094B9C42AA
:1044200008BFEC68CBE72146284600F00DF80028CD
:10443000CCD04FF0FF373846F8BD00BFCC52000853
:10444000EC520008AC520008324B70B51D680646AD
:104450000C4625B1AB6913B9284600F053F92E4B31
:104460009C420FD16C68B4F90C309AB215072CD469
:10447000D00611D40922326043F04003A3814FF0EB
:10448000FF303EE0254B9C4201D1AC68EBE7244B6A
:104490009C4208BFEC68E6E7510712D5616B41B159
:1044A00004F14403994202D0304600F019FA002387
:1044B0006363A38923F02403A3810023636023693A
:1044C0002360A38943F00803A38123694BB9A3891F
:1044D00003F42073B3F5007F03D02146304600F08B
:1044E000BFF9A28912F001030CD00023A360636915
:1044F0005B42A361236953B9B4F90C3013F0800017
:10450000BAD170BD920758BF6369A360F2E700207B
:10451000F7E700BF18000020CC520008EC5200085A
:10452000AC5200088A892DE9F041054610070C4677
:1045300058D44B68002B05DC0B6C002B02DC0020F0
:10454000BDE8F081E66A002EF9D0002312F4805213
:104550002F68216A2B6032D0606DA3895A0705D578
:104560006368C01A636B0BB1236CC01A0023024648
:10457000E66A216A2846B047431CA38906D1296808
:104580001D2948D8294ACA40D60744D5002262606E
:10459000D9042269226004D5421C01D12B6803B9D9
:1045A0006065616B2F600029C9D004F14403994212
:1045B00002D0284600F094F900206063C0E7012390
:1045C0002846B047411CC8D12B68002BC5D01D2BF5
:1045D00001D0162B01D12F60B1E7A38943F040032E
:1045E000A381ADE70F69002FA9D093070E6808BF1C
:1045F0004B690F6018BF0023A6EB07088B60B8F16A
:10460000000F9CDD43463A46216AA66A2846B04719
:10461000002806DCA38943F04003A3814FF0FF305C
:104620008EE70744A8EB0008E9E700BF010040203F
:1046300038B50B6905460C46DBB118B183690BB977
:1046400000F060F80C4B9C4209D16C68B4F90C3056
:104650007BB121462846BDE83840FFF763BF074BD2
:104660009C4201D1AC68F1E7054B9C4208BFEC6865
:10467000ECE7002038BD00BFCC520008EC52000827
:10468000AC520008002310B50446C0E90033836033
:1046900081814366C281C0E90433836119460822DF
:1046A0005C30FFF7F3FD054B6362054BA362054BDE
:1046B000E362054B2462236310BD00BF0150000874
:1046C000235000085B5000087F500008014900F0AB
:1046D00085B800BF3146000870B54A1E68255543AD
:1046E0000E4605F1740100F049F9044640B100217D
:1046F000C0E900160C30A06005F16802FFF7C6FDA6
:10470000204670BD836910B5044633BBC0E912333F
:104710000365124B124A1B688262984204BF012350
:10472000836100F01FF86060204600F01BF8A06075
:10473000204600F017F80022E06004216068FFF7CF
:10474000A1FF01220921A068FFF79CFF022212218C
:10475000E068FFF797FF0123A36110BDA85200088E
:10476000CD460008F8B51B4B1E68B369074613B960
:104770003046FFF7C7FF4836D6E90134013B03D581
:10478000336833B13668F7E7B4F90C506DB168346B
:10479000F4E704213846FFF79FFF30600028F1D18D
:1047A0000C233B6004462046F8BD0B4B6566C4E90C
:1047B0000055A560C4E90335C4E90555082229461A
:1047C00004F15C00FFF762FDC4E90D55C4E9125520
:1047D000E9E700BFA85200080100FFFF2DE9F843F8
:1047E0008046894600F14804002614B93046BDE8E9
:1047F000F883D4E90175013F01D52468F5E7AB8959
:10480000012B07D9B5F90E30013303D029464046B4
:10481000C84706436835EEE770B50E46B1F90E108D
:10482000002996B014461D4607DA00232B60B38991
:104830001A0610D44FF480630EE06A4600F046FC7E
:104840000028F2DB019A02F47042A2F500535A42AA
:104850005A412A60EEE740230020236016B070BD65
:104860008B8973B59D0706460C4607D504F14703AF
:10487000236023610123636102B070BD01AB6A460E
:10488000FFF7CAFF00990546304600F077F848B9AF
:10489000B4F90C309A05EFD423F0030343F002037C
:1048A000A381E3E70D4BB362A389206043F080034B
:1048B000A381009B6361019B20615BB1B4F90E1081
:1048C000304600F015FC28B1A38923F0030343F020
:1048D0000103A381A3891D43A581CDE7CD4600082F
:1048E00038B50546002945D051F8043C0C1F002B73
:1048F000B8BFE41800F042FC1F4A1368104633B9F1
:10490000636014602846BDE8384000F038BCA3421C
:104910000CD921686218934204BF1A685B6863600F
:1049200004BF521822600460ECE713465A680AB1CB
:10493000A242FAD919685818A0420BD12068014444
:10494000581882421960DDD1106852685A600144DB
:104950001960D7E702D90C232B60D3E72068211810
:104960008A4204BF11685268626004BF091821605E
:104970005C60C7E738BD00BFAC01002070B5CD1C3E
:1049800025F0030508350C2D38BF0C25002D0646F3
:1049900001DBA94203D90C233360002070BD00F075
:1049A000EDFB214A1468214691B9204C23681BB9BC
:1049B000304600F015FB20602946304600F010FB21
:1049C000431C24D10C233360304600F0D8FBE4E7CD
:1049D0000B685B1B18D40B2B0FD90B60CD50CC1878
:1049E000304600F0CCFB04F10B00231D20F0070043
:1049F000C31AD3D05A42E250D0E78C424B6816BF5C
:104A0000636013600C46EBE70C464968CCE7C41CB6
:104A100024F00304A04205D0211A304600F0E0FA49
:104A20000130CFD02560DBE7AC010020B0010020D1
:104A30002DE9F0478E689E4282460C469046994684
:104A400037D88A8912F4906F31D0256809696F1AB6
:104A50006569022305EB450595FBF3F509F10103B3
:104A60003B449D4238BF1D46530530D52946FFF7CC
:104A700085FF064650B90C23CAF80030A38943F0DD
:104A80004003A3814FF0FF30BDE8F0873A4621692B
:104A900000F050FBA38923F4906343F08003A381CB
:104AA000266165613E44ED1B2660A5604E464E457D
:104AB00000D94E4632464146206800F046FBA368C6
:104AC0009B1BA36023681E4426600020DCE72A4667
:104AD00000F056FB06460028E2D121695046FFF758
:104AE000FFFEC8E72DE9F04F9DB0804603938B8908
:104AF0001D060C4616460FD50B696BB94021FFF712
:104B00003DFF2060206128B90C23C8F800304FF029
:104B1000FF30C7E0402363610023099320238DF811
:104B2000293030238DF82A304FF0010B37463D46AF
:104B300015F8013B0BB1252B3ED1B7EB060A0BD084
:104B40005346324621464046FFF772FF013000F0DF
:104B5000A480099B534409933B78002B00F09D806F
:104B600000234FF0FF32CDE90523049307938DF81E
:104B700053301A932F46052217F8011B4F48FCF7B4
:104B80009FF9049BD0B9D90644BF20228DF8532049
:104B90001A0744BF2B228DF853202A782A2A15D0D1
:104BA000079A2F4600200A25394611F8013B303B71
:104BB000092B4DD9B8B10FE02F46B8E73F4A801A0C
:104BC0000BFA00F0184304903D46D3E7039A111DF9
:104BD00012680391002A01DB079204E0524243F07D
:104BE0000203079204933B782E2B0CD17B782A2B5F
:104BF00033D1039B1A1D1B680392002BB8BF4FF0E3
:104C0000FF33023705932E4D397803222846FCF7EF
:104C100057F938B14023401B03FA00F0049B0343CB
:104C200001370493397827488DF8281006227E1C16
:104C3000FCF746F9002838D0234B13BB039B0733FE
:104C400023F0070308330393099B4B4409936DE753
:104C500005FB023201200F46A6E70023013705932A
:104C600019460A25384610F8012B303A092A03D98B
:104C7000002BC8D00591C6E705FB0121012307469B
:104C8000F0E703AB00932246104B04A94046AFF374
:104C90000080B0F1FF3F8146D6D1A3895B063FF586
:104CA00036AF09981DB0BDE8F08F03AB00932246E4
:104CB000064B04A9404600F081F8EAE70C530008CF
:104CC000125300081653000800000000314A000883
:104CD0002DE9F04791461F468A680B69DDF8208070
:104CE0009342B8BF1346C9F8003091F843200646F6
:104CF0000C4612B10133C9F800302368990642BF4F
:104D0000D9F800300233C9F80030256815F00605DF
:104D100007D104F1190AE368D9F800209B1AAB42C5
:104D200028DC94F843302268003318BF0123920630
:104D30002DD404F1430239463046C047013020D01B
:104D40002368E568D9F8002003F00603042B08BFA8
:104D5000AD1AA36822690CBF25EAE57500259342C8
:104D6000C4BF9B1AED184FF000091A344D451AD1F3
:104D7000002008E00123524639463046C047013042
:104D800003D14FF0FF30BDE8F0870135C3E7E118EC
:104D90005A1C302081F84300224494F8451082F8D0
:104DA00043100233C5E70123224639463046C04747
:104DB0000130E6D009F10109D8E700002DE9F04300
:104DC00001F1430C0C46097E85B06E291746064654
:104DD00098460C9A00F0B38022D8632936D00AD8BE
:104DE000002900F0B980582900F0838004F14205C1
:104DF00084F8421032E0642901D06929F6D1206894
:104E00001368050603F104012AD51B681160002B05
:104E100003DA2D225B4284F843206F480A2239E0EE
:104E2000732900F09D8008D86F2920D07029DDD12A
:104E3000236843F02003236003E0752917D0782905
:104E4000D4D1782384F84530644855E01368191D9F
:104E50001B68116004F1420584F8423001238CE0A4
:104E60001B68116010F0400F18BF1BB2CFE713682A
:104E70002568181D1060280601D51B6802E0680629
:104E8000FBD51B8854486F2914BF0A220822002131
:104E900084F843106568A560002DC0F295802168F4
:104EA00021F004012160002B3DD1002D40F08E80C7
:104EB0006546082A0BD12368DB0708D52369626899
:104EC0009A42DEBF302305F8013C05F1FF35ACEB1B
:104ED00005032361CDF800803B4603AA21463046F6
:104EE000FFF7F6FE01304DD14FF0FF3005B0BDE8C1
:104EF000F083394884F84510136821681D1D1B682C
:104F000015600A060BD5CA0744BF41F02001216095
:104F10001BB9226822F0200222601022B7E74D065A
:104F200048BF9BB2EFE76546B3FBF2F102FB1133DA
:104F3000C35C05F8013D0B460029F5D1B9E71368BC
:104F400025686169181D106028061B6801D5196065
:104F500002E06A06FBD51980002323616546B9E7A4
:104F60001368191D11601D68626800212846FBF74F
:104F7000A7FF08B1401B606063682361002384F8C9
:104F80004330A7E723692A4639463046C0470130F7
:104F9000AAD023689B0713D4E068039B9842B8BF4C
:104FA0001846A3E701234A4639463046C047013038
:104FB0009AD00135E368039A9B1AAB42F2DCEBE727
:104FC000002504F11909F5E7002BACD1037884F82A
:104FD000423004F142056CE71D5300082E530008CF
:104FE00038B5064C0023054608462360FEF78EFEC2
:104FF000431C02D1236803B12B6038BD2C04002070
:1050000010B50C46B1F90E1000F0E0F80028ABBF67
:10501000636DA3891B1823F48053ACBF6365A38120
:1050200010BD2DE9F0411F468B89DB0505460C4676
:10503000164605D502230022B1F90E1000F068F8DB
:10504000A389B4F90E1023F48053A38132463B4662
:105050002846BDE8F04100F017B810B50C46B1F98C
:105060000E1000F055F8431CA38915BF606523F4AA
:10507000805343F48053A38118BFA38110BDB1F9BD
:105080000E1000F013B8000038B5074C054608466E
:105090001146002222601A46FEF72AFE431C02D166
:1050A000236803B12B6038BD2C04002038B5064CB2
:1050B0000023054608462360FEF746FE431C02D146
:1050C000236803B12B6038BD2C04002038B5074C91
:1050D00000230546084611462360FEF739FE431CAF
:1050E00002D1236803B12B6038BD00BF2C0400201F
:1050F00038B5064C0023054608462360FEF72EFE11
:10510000431C02D1236803B12B6038BD2C0400205E
:1051100038B5074C054608461146002222601A465B
:10512000FEF71EFE431C02D1236803B12B6038BD7D
:105130002C04002010B5431E0A44914200D110BD3A
:1051400011F8014B03F8014FF7E7884210B501EB66
:10515000020307D8421E99420AD011F8014B02F807
:10516000014FF8E78342F5D98118D21AD34200D112
:1051700010BD13F8014D01F8014DF7E77047704776
:10518000F8B5074614460E4621B91146BDE8F84069
:10519000FFF7F4BB22B9FFF7A3FB25462846F8BD6D
:1051A00000F026F8A0420FD221463846FFF7E6FB72
:1051B00005460028F2D031462246FFF7BBFF3146B4
:1051C0003846FFF78DFBE9E73546E7E738B5074C8A
:1051D000054608461146002222601A46FEF77AFD6F
:1051E000431C02D1236803B12B6038BD2C0400207E
:1051F00051F8043C181F002BBCBF0B58C018704757
:10520000F8B500BFF8BC08BC9E467047F8B500BFB3
:08521000F8BC08BC9E46704783
:10521800000000000000000001020304060708095E
:105228000000000001020304537461727420457287
:10523800726F7200627574746F6E5F646174613A44
:10524800202564206C6566745F6E6F726D2E783AE7
:1052580020256420616E676C65323A2025642063DE
:1052680075725F706F733A2025642053573A202572
:1052780064204750494F3A20256420256420616EF8
:10528800676C65313A202564200D0A006173696EE8
:105298006600000000000000737172746600000070
:1052A8001C000020000000000000000000000000BA
:1052B80000000000000000000000000000000000E6
:1052C80000000000000000000000000000000000D6
:1052D80000000000000000000000000000000000C6
:1052E80000000000000000000000000000000000B6
:1052F80000000000000000000000000000000000A6
:1053080000000000232D302B2000686C4C006566DF
:1053180067454647003031323334353637383941FE
:105328004243444546003031323334353637383914
:08533800616263646566000018
:085340009CB8FF7F0100000092
:04534800F501000863
:04534C00D101000883
:105350000100000010000000A5000000AA000000ED
:105360000024F400010000001C00002000000000E8
:10537000CC520008EC520008AC52000800000000BB
:10538000000000000000000000000000000000001D
:10539000000000000000000000000000000000000D
:1053A00000000000000000000000000000000000FD
:1053B00000000000000000000000000000000000ED
:0C53C000000000000000000000000000E1
:0400000508003DB5FD
:00000001FF
