:020000040800F2
:1000000000000820B1630008FD620008FF620008DC
:100010000163000803630008056300080000000096
:10002000000000000000000000000000076300085E
:1000300009630008000000000B6300080D6300085E
:1000400001640008016400080164000801640008FC
:1000500001640008016400080164000801640008EC
:1000600001640008016400080164000801640008DC
:1000700001640008016400080164000801640008CC
:1000800001640008016400080164000801640008BC
:1000900001640008016400080164000801640008AC
:1000A000016400080164000801640008016400089C
:1000B000016400080164000801640008016400088C
:1000C000016400080164000801640008016400087C
:1000D000016400080164000801640008016400086C
:1000E000016400080164000801640008016400085C
:1000F000016400080164000801640008016400084C
:10010000016400080164000801640008016400083B
:100110000164000801640008156300080164000818
:10012000016400080164000801640008016400081B
:10013000016400080164000801640008016400080B
:1001400001640008016400080164000801640008FB
:1001500001640008016400080164000801640008EB
:1001600001640008016400080164000801640008DB
:100170000164000801640008016400080000000038
:1001800001640008016400080164000801640008BB
:1001900001640008016400080164000801640008AB
:1001A000016400080164000801640008016400089B
:1001B000016400080164000801640008016400088B
:1001C00001640008016400080000000001640008E8
:1001D000016400080164000801640008016400086B
:1001E000016400080164000801640008016400085B
:0801F00001640008016400082D
:1002000010B5054C237833B9044B13B10448AFF350
:1002100000800123237010BD9C000020000000001E
:10022000A483000808B5034B1BB103490348AFF38F
:10023000008008BD00000000A0000020A48300088A
:1002400053B94AB9002908BF00281CBF4FF0FF313D
:100250004FF0FF3000F072B9ADF1080C6DE904CE3B
:1002600000F006F8DDF804E0DDE9022304B0704791
:100270002DE9F047089E04468846002B4BD18A4260
:10028000154667D9B2FA82F24AB1C2F1200701FAE3
:1002900002F320FA07F7954047EA030894404FEA33
:1002A000154E230CB8FBFEF71FFA85FC0EFB1788D2
:1002B00043EA084307FB0CF1994209D9EB1807F10F
:1002C000FF3080F01B81994240F21881023F2B449D
:1002D0005B1AA4B2B3FBFEF00EFB103344EA0344F6
:1002E00000FB0CFCA44509D92C1900F1FF3380F068
:1002F0000781A44540F2048102382C4440EA0740BB
:10030000A4EB0C0400271EB1D4400023C6E900432F
:100310003946BDE8F0878B4209D9002E00F0EB800A
:100320000027C6E9000138463946BDE8F087B3FA30
:1003300083F7002F47D18B4202D3824200F2FA802A
:10034000841A61EB030301209846002EE0D0C6E931
:100350000048DDE702B9FFDEB2FA82F2002A40F07F
:100360008F80491B4FEA154E1FFA85F80127B1FB14
:10037000FEFC230C0EFB1C1143EA014308FB0CF1AD
:10038000994207D9EB180CF1FF3002D2994200F2E2
:10039000CD808446591AA3B2B1FBFEF00EFB1014B7
:1003A00043EA044408FB00F8A04507D92C1900F1E2
:1003B000FF3302D2A04500F2B6801846A4EB080431
:1003C00040EA0C409FE7C7F1200CBB4022FA0CFE2C
:1003D0004EEA030E01FA07F420FA0CF521FA0CF3A9
:1003E0004FEA1E482543B3FBF8F92C0C08FB1933E0
:1003F0001FFA8EFA44EA034309FB0AF49C4202FA0C
:1004000007F200FA07F10BD91EEB030309F1FF30E5
:1004100080F087809C4240F28480A9F102097344F5
:100420001B1BADB2B3FBF8F008FB103345EA0344E5
:1004300000FB0AFAA24508D91EEB040400F1FF33C1
:100440006BD2A24569D90238744440EA0940A0FB46
:100450000289A4EB0A044C45C2464B4654D351D002
:10046000002E69D0B1EB0A0564EB030404FA0CFC1E
:10047000FD40FC404CEA0505C6E90054002747E76B
:10048000C2F1200320FA03F7954001FA02F021FAA5
:1004900003F34FEA154E3843010CB3FBFEF71FFA86
:1004A00085F80EFB173341EA034107FB08F38B4243
:1004B00004FA02F407D9691807F1FF3C2FD28B42E6
:1004C0002DD9023F2944CB1A81B2B3FBFEF00EFBBB
:1004D000103341EA034100FB08F38B4207D9691846
:1004E00000F1FF3C17D28B4215D902382944C91AB2
:1004F00040EA07473BE73746304609E70746E7E665
:100500001846FBE64145ABD2B8EB020A69EB0E0296
:1005100001381346A4E76046E9E7184695E76746C1
:10052000D1E781467CE702382C4447E7ACF1020C66
:100530002B442FE7384608E73746E9E6704700BF07
:10054000034613F8012B002AFBD1181A0138704713
:1005500001F0FF01102A2BDB10F0070F08D010F874
:10056000013B013A8B422DD010F0070F42B3F6D178
:10057000F0B441EA012141EA014122F007047FF091
:1005800000070023F0E80256083C85EA010586EAE8
:10059000010685FA47F5A3FA87F586FA47F6A5FA24
:1005A00087F68EB9EED1F0BC01F0FF0102F0070230
:1005B00032B110F8013B013A83EA010313B1F8D1DB
:1005C0000020704701387047002D06BF35460338BC
:1005D000073815F0010F07D1013015F4807F02BFF5
:1005E000013015F4C03F0130F0BC0138704700BF46
:1005F00010B504460E4B18784FF47A73B3FBF0F342
:100600000C4A1068B0FBF3F000F09AF868B90F2CB0
:1006100001D901200AE0002221464FF0FF3000F00E
:100620004FF8034B5C60002000E0012010BD00BFCC
:10063000000000203000002008B5032000F02EF854
:100640000020FFF7D5FF05F05DFB002008BD00008E
:10065000034A1168034B1B780B441360704700BFBB
:100660004402002000000020014B1868704700BFC2
:100670004402002038B50446FFF7F6FF0546B4F102
:10068000FF3F02D0044B1B781C44FFF7EDFF401BDB
:10069000A042FAD338BD00BF000000200649CB6855
:1006A00023F4E0631B041B0C000200F4E06003432E
:1006B000024A1A43CA60704700ED00E00000FA05E4
:1006C00030B4154BDB68C3F30223C3F10704042CD9
:1006D00028BF04241D1D062D14D9033B4FF0FF3500
:1006E00005FA04F421EA0401994005FA03F322EA29
:1006F00003031943002807DB0901C9B2074B19544A
:1007000030BC70470023E9E700F00F000901C9B2CF
:10071000034B1954F4E700BF00ED00E000E400E0F3
:1007200014ED00E0002807DB00F01F024009012360
:100730009340024A42F82030704700BF00E100E0D9
:100740000138B0F1807F0AD2064B5860064AF0218A
:1007500082F823100020986007221A607047012059
:10076000704700BF10E000E000ED00E05079137921
:1007700043EA002307480B50D07893781B0443EAE0
:100780000063507843EA002312781343024A8B50E7
:10079000704700BF408002404480024070B59EB068
:1007A000044629B14FF40063C3604FF48043836073
:1007B000E369002B68D14FF48063079321680B68CD
:1007C000374A1A40A368E06803430798034343F499
:1007D000007313430B6023681D680120FFF74AFF75
:1007E00023681D60236840225A6023685D680120E9
:1007F000FFF740FF23685D60236800259D60236844
:10080000DD602268936923F0BE031B041B0C43F0D8
:100810008003936123689E690120FFF72BFF236803
:100820009E612368DD612368DD690120FFF722FFF7
:100830002368DD61216841F218054B59194A1A40B5
:10084000194B13434B5123685E590120FFF712FFE8
:1008500023685E51236803F58053144A1A602368A5
:1008600003F580531D680120FFF704FF236803F59B
:1008700080531D60A369012B09D0626900212046C5
:10088000FFF774FF1EB070BD0023079396E7216841
:1008900041F21C028858064B03438B50EDE700BF22
:1008A0000F8120FF233FDEF8040020028020C102D8
:1008B00040000100F8B590F84430DBB2822B33D011
:1008C00016460546822380F844300268136903F017
:1008D0001C03048AE402A4B223438C0104F4F864E8
:1008E0001C4344F001041461FFF7BEFE074614F0F8
:1008F000010F10D0FFF7B8FEC01BB0F5803F02D249
:100900002B681C69F3E7012385F84430002385F840
:100910004530032007E02B685B699BB233600123FD
:1009200085F844300020F8BD0220FCE790F8443000
:10093000DBB2422B32D070B50546422380F84430FA
:100940000068036903F01C032C8AE402A4B2234369
:100950008C0104F4F8641C4344F0030492B2426135
:100960002B681C61FFF780FE064614F0010F10D0C3
:10097000FFF77AFE801BB0F5803F02D22B681C691E
:10098000F3E7012385F84430002385F84530032040
:1009900003E0012385F84430002070BD0220704739
:1009A00070B582B000230193002800F00C8104464A
:1009B00090F84430002B32D0844B5A6C42F4804281
:1009C0005A645B6C03F480430093009B804B5A682D
:1009D00022F400025A605A68216A0A435A60236866
:1009E00003F580531A6842F001021A60FFF73CFEDB
:1009F0000546236803F58052126812F0010F13D0E8
:100A0000FFF732FE401BB0F5FA7FF2D9032584F8D8
:100A10004450002384F84530284602B070BD80F869
:100A2000453005F087F9C7E71D6925F01C0500F082
:100A30002DFD684B0344684A934255D845F008059C
:100A400023681D614FF4004200212046FFF76EFF2E
:100A50000546002860D1FF20FFF70CFE6368002BDD
:100A600000F09180FFF700FE064601AA0121204612
:100A7000FFF720FFFFF7F8FD801B41F28833984213
:100A800052D8019B13F0040FEFD04FF48052002195
:100A90002046FFF74BFF002852D1FFF7E5FD064641
:100AA00001AA01212046FFF705FFFFF7DDFD801BAE
:100AB00041F2883398424BD8019B13F0200FEFD0BE
:100AC00001AA1F212046FFF7F5FE00284CD1019B0B
:100AD00013F0100F50D04FF40062E26013F0040FD7
:100AE0004DD00023A3605EE03C4B03443C4A93425C
:100AF00002D845F00C05A3E73A4B03443A4A934227
:100B00009ED93A4B03443A4A934202D845F0040531
:100B100096E745F0100593E701212046FFF73EFEDA
:100B2000012584F8445077E701212046FFF736FE7F
:100B3000012384F84430002384F8453003256BE713
:100B400001212046FFF72AFE012584F8445063E77F
:100B500001212046FFF722FE012384F844300023C0
:100B600084F84530032557E701212046FFF716FE9C
:100B7000012584F844504FE70022E260AEE74FF4CD
:100B80008043A3600FE0E268C2F3CF02A368C3F31F
:100B90004F031A4300212046FFF7C8FE58B940F61C
:100BA000FF70FFF767FD00212046FFF7F7FD0123E7
:100BB00084F8443030E701212046FFF7EFFD01259E
:100BC00084F8445028E7012526E700BF003802409A
:100BD0000038014000D3CEFEBFE1E40040F1E9FD62
:100BE0003F787D0100796CFCFF596202001F0AFA10
:100BF0007FF0FA0200230F2B00F2E280F0B482B003
:100C000039E0092200E00022B2403A4302346D4E3E
:100C100046F824206C4A1468EA4302EA04064F6846
:100C200017F4803F01D045EA0406674C26606468EB
:100C300002EA04064F6817F4003F01D045EA0406B3
:100C4000614C6660A46802EA04064F6817F4801FCE
:100C500001D045EA04065C4CA660E46822404E6878
:100C600016F4001F01D045EA0402574CE26001333C
:100C70000F2B00F2A28001229A400C6804EA0205C0
:100C8000AA42F4D14C68122C18BF022C10D1DE08F5
:100C9000083650F826C003F00704A7000F24BC4014
:100CA0002CEA040C0C69BC4044EA0C0440F82640D1
:100CB00004685F000326BE40F64306EA040C4C6855
:100CC00004F00304BC4044EA0C0404604C6804F1E2
:100CD000FF3C112C18BFBCF1010F01D9122C11D10E
:100CE000846806EA040CCC68BC4044EA0C048460C6
:100CF000446824EA020C4C68C4F300129A4042EAA9
:100D00000C024260C26816408A68BA403243C26030
:100D10004A6812F0805FAAD02C4A546C44F4804494
:100D20005464526C02F480420192019A9C08A61C01
:100D3000244A52F8267003F0030296000F22B240B4
:100D400027EA0207224A90423FF45DAF02F5806233
:100D5000904222D002F58062904220D002F580625B
:100D600090421ED002F5806290421CD002F5806253
:100D700090421AD002F58062904218D002F580624B
:100D8000904216D002F58062904214D002F5806243
:100D900090423FF436AF0A2236E7012234E70222BE
:100DA00032E7032230E704222EE705222CE7062251
:100DB0002AE7072228E7082226E702B0F0BC70479E
:100DC000704700BF00380140003C0140003802403D
:100DD000000002400369194201D100207047012040
:100DE000704712B909048161704781617047000042
:100DF000024A136843F48073136070470070004028
:100E000010B582B01B4B1A6C42F080521A641B6CF6
:100E100003F080530193019B174A136843F4803316
:100E20001360FFF721FC0446134B5B6813F4803F0B
:100E300008D1FFF719FC001BB0F57A7FF4D9032025
:100E400002B010BD0C4A136843F400331360FFF77F
:100E50000BFC0446084B5B6813F4003F07D1FFF717
:100E600003FC001BB0F57A7FF4D90320E8E70020EB
:100E7000E6E700BF0038024000700040002800F0A4
:100E8000DC8170B582B00446036813F0010F29D0ED
:100E9000A24B9B6803F00C03042B1AD09F4B9B685A
:100EA00003F00C03082B0FD06368B3F5803F40D0EC
:100EB000002B54D1994B1A6822F480321A601A68B8
:100EC00022F480221A6039E0944B5B6813F4800F9F
:100ED000EAD0924B1B6813F4003F03D06368002BE9
:100EE00000F0AD81236813F0020F75D08B4B9B6827
:100EF00013F00C0F5ED0894B9B6803F00C03082B9A
:100F000053D0E368002B00F08A80844A136843F0D2
:100F100001031360FFF7A8FB0546804B1B6813F025
:100F2000020F73D1FFF7A0FB401B0228F5D9032065
:100F300088E17A4A136843F48033136063682BB303
:100F4000FFF792FB0546754B1B6813F4003FC9D1B0
:100F5000FFF78AFB401B6428F5D9032072E1B3F543
:100F6000A02F09D06D4B1A6822F480321A601A68DB
:100F700022F480221A60E1E7684B1A6842F480226A
:100F80001A601A6842F480321A60D7E7FFF76CFBE8
:100F90000546624B1B6813F4003FA3D0FFF764FBC8
:100FA000401B6428F5D903204CE15C4B5B6813F4CB
:100FB000800FA6D1594B1B6813F0020F04D0E368D1
:100FC000012B01D001203DE1544A136823F0F803BE
:100FD000216943EAC1031360236813F0080F46D068
:100FE000636983B34D4A536F43F001035367FFF7BF
:100FF0003BFB0546494B5B6F13F0020F37D1FFF700
:1010000033FB401B0228F5D903201BE1434A136838
:1010100023F0F803216943EAC1031360DCE73F4A88
:10102000136823F001031360FFF71EFB05463B4BDB
:101030001B6813F0020FCFD0FFF716FB401B0228EE
:10104000F5D90320FEE0354A536F23F001035367BF
:10105000FFF70AFB0546314B5B6F13F0020F06D01A
:10106000FFF702FB401B0228F5D90320EAE02368C2
:1010700013F0040F7ED0294B1B6C13F0805F1ED140
:10108000264B1A6C42F080521A641B6C03F080539A
:101090000193019B0125224B1B6813F4807F10D024
:1010A000A368012B21D0002B3CD11C4B1A6F22F0DE
:1010B00001021A671A6F22F004021A671AE000256B
:1010C000E9E7174A136843F480731360FFF7CCFA1B
:1010D0000646134B1B6813F4807FE1D1FFF7C4FA77
:1010E000801B6428F5D90320ACE00C4A136F43F051
:1010F00001031367A3685BB3FFF7B6FA0646074B15
:101100001B6F13F0020F34D1FFF7AEFA801B41F2D0
:1011100088339842F3D9032094E000BF003802409E
:1011200000700040052B09D0484B1A6F22F00102D5
:101130001A671A6F22F004021A67DBE7434B1A6F33
:1011400042F004021A671A6F42F001021A67D1E7EF
:10115000FFF78AFA06463D4B1B6F13F0020F08D0CB
:10116000FFF782FA801B41F288339842F3D90320BB
:1011700068E0F5B9A369002B63D0344A926802F0A5
:101180000C02082A60D0022B19D0304A136823F0D1
:1011900080731360FFF768FA04462C4B1B6813F04A
:1011A000007F48D0FFF760FA001B0228F5D9032022
:1011B00048E0264A136C23F080531364DAE7234A8D
:1011C000136823F080731360FFF74EFA05461F4B38
:1011D0001B6813F0007F06D0FFF746FA401B022879
:1011E000F5D903202EE0E369226A1343626A43EAD9
:1011F0008213A26A5208013A43EA0243E26A43EACE
:101200000263226B43EA0273104A5360136843F08F
:1012100080731360FFF728FA04460C4B1B6813F029
:10122000007F06D1FFF720FA001B0228F5D9032022
:1012300008E0002006E0002004E0012070470120C3
:1012400000E0002002B070BD0120FBE70038024042
:10125000324B9B6803F00C03042B5CD0082B01D0AD
:101260002F4870472DE9F04B2C4B5A6802F03F0293
:101270005B6813F4800F2BD0284B5B68C3F3881393
:101280001E4600275C010025E41A65EB0705A9014D
:1012900041EA9461A001001B61EB0501CB0043EA28
:1012A0005073C400A01943EB07014B0243EAD0532B
:1012B0004402204619460023FEF7C2FF174B5B6825
:1012C000C3F3014301335B00B0FBF3F0BDE8F08BE7
:1012D000124B5B68C3F388131E4600275C01002590
:1012E000E41A65EB0705A90141EA9461A001001B1E
:1012F00061EB0501CB0043EA5073C400A01943EB36
:1013000007018B0243EA90538402204619460023CA
:10131000FEF796FFD2E70348704700BF003802404F
:101320000024F40000127A00002800F0A28070B5BA
:101330000446524B1B6803F00F038B420CD24F4AFA
:10134000136823F00F030B431360136803F00F03BC
:101350008B4201D0012070BD236813F0020F17D01B
:1013600013F0040F04D0464A936843F4E0539360AB
:10137000236813F0080F04D0414A936843F4604394
:1013800093603F4A936823F0F003A068034393609F
:101390000D46236813F0010F31D06368012B20D074
:1013A000022B25D0364A126812F0020F63D034495E
:1013B0008A6822F0030213438B60FFF755F9064653
:1013C0002F4B9B6803F00C036268B3EB820F16D0BF
:1013D000FFF74AF9801B41F288339842F0D9032085
:1013E000B9E7274A126812F4003FE0D10120B2E7C2
:1013F000234A126812F0007FD9D10120ABE71F4BBE
:101400001B6803F00F03AB420CD91C4A136823F08E
:101410000F032B431360136803F00F03AB4201D09B
:10142000012098E7236813F0040F06D0144A93684C
:1014300023F4E053E1680B439360236813F0080F33
:1014400007D00F4A936823F46043216943EAC1033C
:101450009360FFF7FDFE0A4B9B68C3F30313094A31
:10146000D35CD840084B18600020FFF7C1F800207B
:1014700071E70120704701206DE700BF003C02408A
:1014800000380240C083000830000020014B18687B
:10149000704700BF3000002008B5FFF7F7FF044B8E
:1014A0009B68C3F38223034AD35CD84008BD00BFC6
:1014B00000380240D083000808B5FFF7E7FF044B6F
:1014C0009B68C3F34233034AD35CD84008BD00BFD6
:1014D00000380240D0830008F0B583B004460368AA
:1014E00013F0010F0CD0B54B9A6822F400029A60F9
:1014F0009A68416B0A439A60436BC3B1002600E0CF
:101500000026236813F4002F15D0AC4AD2F88C3093
:1015100023F44013E16B0B43C2F88C30E36BB3F55B
:10152000801F06D0002B00F04581002504E0012635
:10153000E7E70126F6E70025236813F4801F0FD0A4
:101540009E4AD2F88C3023F44003216C0B43C2F83E
:101550008C30236CB3F5800F00F02E8103B9012588
:10156000236813F0807F00D0012613F0200F40F095
:101570002781236813F0100F0CD0904BD3F88C20E8
:1015800022F08072C3F88C20D3F88C20A16B0A4320
:10159000C3F88C20236813F4804F08D0874AD2F810
:1015A000903023F44033616E0B43C2F890302368CF
:1015B00013F4004F08D0814AD2F8903023F440232E
:1015C000A16E0B43C2F89030236813F4803F08D01B
:1015D0007A4AD2F8903023F44013E16E0B43C2F8FC
:1015E0009030236813F4003F08D0744AD2F890304A
:1015F00023F44003216F0B43C2F89030236813F0AB
:10160000400F08D06D4AD2F8903023F00303616C8C
:101610000B43C2F89030236813F0800F08D0674A5C
:10162000D2F8903023F00C03A16C0B43C2F8903039
:10163000236813F4807F08D0604AD2F8903023F0FA
:101640003003E16C0B43C2F89030236813F4007F41
:1016500008D05A4AD2F8903023F0C003216D0B43D2
:10166000C2F89030236813F4806F08D0534AD2F840
:10167000903023F44073616D0B43C2F890302368BF
:1016800013F4006F08D04D4AD2F8903023F4406331
:10169000A16D0B43C2F89030236813F4805F08D02B
:1016A000464AD2F8903023F44053E16D0B43C2F820
:1016B0009030236813F4005F08D0404AD2F890308D
:1016C00023F44043216E0B43C2F89030236813F497
:1016D000800F08D0394AD2F8903023F08063A16F90
:1016E0000B43C2F89030236813F4001F0DD0334A27
:1016F000D2F8903023F00063E16F0B43C2F89030D2
:10170000E36FB3F1006F00F0C180236813F0080F9E
:1017100000D0012513F4802F08D0284AD2F8903049
:1017200023F04073616F0B43C2F89030236813F4C9
:10173000000F09D0214AD2F8903023F08053D4F81A
:1017400080100B43C2F89030236813F0806F09D0EB
:101750001A4AD2F8903023F00053D4F884100B4387
:10176000C2F89030236813F0006F09D0134AD2F802
:101770008C3023F00073D4F888100B43C2F88C30FF
:10178000236813F0805F09D00C4AD2F88C3023F024
:101790008063D4F88C100B43C2F88C30002E77D1C4
:1017A0002368B3F1007F73D0002D40F00481002046
:1017B00003B0F0BD0125BFE60126CFE600380240A8
:1017C000B74B1A6C42F080521A641B6C03F08053C2
:1017D0000193019BB34A136843F480731360FEF7CF
:1017E00043FF0746AF4B1B6813F4807F06D1FEF71B
:1017F0003BFFC01B6428F5D90320D9E7A84B1B6F1A
:1018000013F4407315D0226B02F440729A4210D048
:10181000A34B1A6F22F44072196F41F4803119679B
:10182000196F21F4803119671A671B6F13F0010FCC
:1018300012D1236B03F44072B2F5407F1DD0984A59
:10184000936823F4F813936095490B6F226BC2F3EE
:101850000B0213430B678CE6FEF706FF0746904B1F
:101860001B6F13F0020FE4D1FEF7FEFEC01B41F226
:1018700088339842F3D903209AE78948826822F492
:10188000F812894919400A438260DDE701253CE7E7
:10189000834A136823F080631360FEF7E5FE064673
:1018A0007F4B1B6813F0006F06D0FEF7DDFE801B38
:1018B0006428F5D903207BE7236813F0010F13D0C8
:1018C000636B8BB9764AD2F88430D2F884106068A2
:1018D00003F4403343EA801301F070610B43A168C5
:1018E00043EA0173C2F88430236813F4002F03D055
:1018F000E26BB2F5801F06D013F4801F1ED0236C5C
:10190000B3F5800F1AD1664AD2F88430D2F8841029
:10191000606803F4403343EA8013E06843EA0063FD
:1019200001F0E0410B43C2F88430D2F88C3023F050
:101930001F03616A01390B43C2F88C30236813F02E
:10194000807F11D0564AD2F88400D2F8841066689D
:1019500023691B0443EA861300F07060034301F01F
:10196000E0410B43C2F88430236813F0007F0DD0B0
:10197000626823691B0443EA8213E26843EA026354
:10198000A26843EA0273464AC2F88430444A1368A4
:1019900043F080631360FEF767FE0646404B1B680A
:1019A00013F0006F7FF400AFFEF75EFE801B64282B
:1019B000F4D90320FCE63A4A136823F080531360FD
:1019C000FEF752FE0546364B1B6813F0005F06D04B
:1019D000FEF74AFE401B6428F5D90320E8E6236899
:1019E00013F4002F01D0E26B22B113F4801F1DD03D
:1019F000236CDBB92A4AD2F88830D2F888106069A3
:101A000003F4403343EA8013A06943EA006301F022
:101A1000E0410B43C2F88830D2F88C3023F4F853FD
:101A2000A16A013943EA0123C2F88C30236813F418
:101A3000001F03D0E36FB3F1006F37D0236813F0BA
:101A4000080F19D0164AD2F88810D2F88830606989
:101A500003F4403343EA801301F070610B43E16902
:101A600043EA0173C2F88830D2F88C3023F4403353
:101A7000E16A0B43C2F88C30094A136843F0805383
:101A80001360FEF7F1FD0446054B1B6813F0005F81
:101A90001FD1FEF7E9FD001B6428F5D9032087E676
:101AA0000038024000700040FFFCFF0F0A4AD2F8E5
:101AB0008800D2F888106569236A1B0443EA8513FD
:101AC00000F07060034301F0E0410B43C2F888303E
:101AD000B4E700206CE600BF00380240F8B50546C8
:101AE0000F4616461C462B689B6837EA03030CBF5B
:101AF00001230023B34237D0B4F1FF3FF3D0FEF708
:101B0000B3FD069BC01AA04201D2002CEBD12A687B
:101B1000536823F0E00353606B68B3F5827F0BD00A
:101B2000AB6AB3F5005F14D0012385F85D30002364
:101B300085F85C30032018E0AB68B3F5806F18BF00
:101B4000B3F5004FECD12A68136823F0400313600B
:101B5000E6E72A68136823F4005313602A681368C1
:101B600043F400531360DFE70020F8BDF8B50746E3
:101B70000D4614461E4602E0B6F1FF3F0BD13A680F
:101B800093682B40A3423BD0B5F5C06F08BF002C33
:101B9000F2D1137BF0E7FEF767FD069BC01AB04257
:101BA00001D2002EEBD13A68536823F0E003536072
:101BB0007B68B3F5827F0BD0BB6AB3F5005F14D0AE
:101BC000012387F85D30002387F85C30032018E09C
:101BD000BB68B3F5806F18BFB3F5004FECD13A681E
:101BE000136823F040031360E6E73A68136823F4B0
:101BF000005313603A68136843F400531360DFE73F
:101C00000020F8BD70B582B004460D46164600921D
:101C10000B4600224FF4C051FFF7A8FFB8B9009659
:101C20002B46002280212046FFF758FFB8B90096C6
:101C30002B4600224FF4C0612046FFF797FF034672
:101C400050B1236E43F020032366032304E0236E88
:101C500043F0200323660323184602B070BD236EB1
:101C600043F0200323660323F6E7002858D010B57D
:101C700004460023836290F85D30002B45D0022398
:101C800084F85D302268136823F040031360E36832
:101C9000B3F5E06F3ED90022B3F5706F18BFB3F50E
:101CA000E06F01D00021A162216B21B9B3F5E06F93
:101CB00033D9022323636368A1680B4321690B4373
:101CC00061690B43A16901F400710B43E1690B43A6
:101CD000216A0B43A06A216803430B60638B03F006
:101CE0000403616A0B43616B0B43E1680B4321689A
:101CF00013434B602268D36923F40063D36100204F
:101D00002066012384F85D3010BD80F85C3004F05B
:101D100099F8B4E74FF48052BEE701232363CAE782
:101D2000012070472DE9F843DDF8208090F85C40F1
:101D3000012C00F05D811D4617460E460446012326
:101D400080F85C30FEF790FC814694F85D00C0B2EC
:101D50006368012814D0B3F5827F09D002230122E1
:101D600084F85D20002284F85C201846BDE8F883E2
:101D7000A368002B40F03081042801D00223EEE755
:101D8000B7FA87F35B09002E08BF0123002B40F050
:101D90002581002D00F0248194F85D30DBB2042B06
:101DA00002D0052384F85D30002323662764A4F85D
:101DB0004650A4F84450A663E587A587E3642365ED
:101DC000E368B3F5E06F01D8012D22D9226853688A
:101DD00023F48053536023681A6812F0400F03D134
:101DE0001A6842F040021A60E368B3F5E06F56D912
:101DF00063680BB1012D0AD1A26B23681288DA60E7
:101E0000A36B0233A363E38F013B9BB2E3870125FE
:101E100025E02268536843F480535360DBE723686E
:101E20009A6812F0010F10D0B4F8462092B262B155
:101E3000DA68236C1A80236C02332364B4F84630CA
:101E4000013B9BB2A4F846300125FEF70DFCA0EB48
:101E50000900404503D3B8F1FF3F40F0C380E38F52
:101E60009BB22BB9B4F846309BB2002B00F0A78090
:101E700023689A6812F0020FD1D0E28F92B2002A42
:101E8000CDD0002DCBD0A26B1288DA60A36B0233C9
:101E9000A363E38F013B9BB2E3870025BFE7636841
:101EA0000BB1012D0ED1E38F9BB2012B0CD9A26B8C
:101EB00023681288DA60A36B0233A363E38F023BCB
:101EC0009BB2E387012547E0A26B236812781A735F
:101ED000A36B0133A363E38F013B9BB2E387F1E77D
:101EE000E28F92B2012A0BD9A26B1288DA60A36B3F
:101EF0000233A363E38F023B9BB2E38700253CE000
:101F0000A26B12781A73A36B0133A363E38F013BB7
:101F10009BB2E387002530E02268536843F4805386
:101F2000536001250CE0226C1B7B1370236C013382
:101F30002364B4F84630013B9BB2A4F84630012537
:101F4000FEF792FBA0EB0900404502D3B8F1FF3F3A
:101F50004AD1B8F1000F49D0E38F9BB21BB9B4F856
:101F600046309BB25BB323689A6812F0020F04D02C
:101F7000E28F92B20AB1002DB2D123689A6812F0B2
:101F8000010FDDD0B4F8462092B2002AD8D0B4F8C0
:101F9000462092B2012AC6D9DA68236C1A80236CD3
:101FA00002332364B4F84630023B9BB2A4F84630B7
:101FB000B4F846309BB2012BAED90125C0E74A46A2
:101FC00041462046FFF71EFE034600283FF4C7AEF9
:101FD000202323660123C2E60223C0E60123BEE6D6
:101FE0000123BCE60323BAE60323B8E60323B6E6DF
:101FF0000223BAE670B4036A23F001030362036AA2
:1020000042688569124C2C400D68254323F0020478
:102010008B6823430F4C104EB04218BFA0420CBF38
:102020000124002405D123F00803CE68334323F0B4
:1020300004032CB122F440724C6914438A69224390
:10204000426085614A684263036270BC704700BFAA
:102050008CFFFEFF000001400004014070B4036AE1
:1020600023F480730362036A4268C569144C2C40F0
:102070000E68264323F400738C6843EA0423114C52
:10208000114DA84218BFA0420CBF0124002406D164
:1020900023F40063CD6843EA052323F480633CB155
:1020A00022F440524C6942EA04128C6942EA04125A
:1020B0004260C6614A68C263036270BC704700BF79
:1020C0008CFFFEFF000001400004014070B4036A71
:1020D00023F480530362036A4468C5690D4A2A40A9
:1020E0000D6842EA052223F400538D6843EA053364
:1020F000094E0A4DA84218BFB04204D124F48044CE
:102100004D6944EA85144460C2614A68026403620E
:1021100070BC7047FF8CFFFE0000014000040140CE
:1021200070B4036A23F480330362036A4268446D27
:102130000D4D25400C682C4323F400338D6843EA91
:1021400005430A4E0A4DA84218BFB04204D122F4FA
:1021500080324D6942EA0522426044654A688265E0
:10216000036270BC704700BF8FFFFEFF000001409C
:102170000004014070B4036A23F480130362036A0D
:102180004468456D0D4A2A400D6842EA052223F451
:1021900000138D6843EA0553094E0A4DA84218BF43
:1021A000B04204D124F480244D6944EA852444607B
:1021B00042654A68C265036270BC7047FF8FFFFECC
:1021C00000000140000401400268D36843F00103AD
:1021D000D36002689168064B0B40062B18BFB3F51D
:1021E000803F03D0136843F0010313600020704761
:1021F000070001007047704770477047704710B57F
:10220000044603681A6912F0020F11D0DA6812F05E
:10221000020F0DD06FF002021A61012303770368E9
:102220009B6913F0030F79D0FFF7E6FF00232377B4
:1022300023681A6912F0040F12D0DA6812F0040F42
:102240000ED06FF004021A610223237723689B6982
:1022500013F4407F68D02046FFF7CEFF002323779A
:1022600023681A6912F0080F12D0DA6812F0080F0A
:102270000ED06FF008021A61042323772368DB690C
:1022800013F0030F57D02046FFF7B6FF0023237744
:1022900023681A6912F0100F12D0DA6812F0100FCA
:1022A0000ED06FF010021A61082323772368DB69D0
:1022B00013F4407F46D02046FFF79EFF002323778C
:1022C00023681A6912F0010F03D0DA6812F0010FC7
:1022D0003FD123681A6912F0800F03D0DA6812F038
:1022E000800F3DD123681A6912F4807F03D0DA6829
:1022F00012F0800F3BD123681A6912F0400F03D00F
:10230000DA6812F0400F39D123681A6912F0200FF1
:1023100003D0DA6812F0200F37D110BDFFF76BFF42
:102320002046FFF76AFF81E72046FFF764FF20465B
:10233000FFF763FF92E72046FFF75DFF2046FFF7B8
:102340005CFFA3E72046FFF756FF2046FFF755FF47
:10235000B4E76FF001021A61204602F00DFBB8E706
:102360006FF080021A61204600F017FBBAE76FF4A5
:1023700080721A61204600F011FBBCE76FF040024A
:102380001A612046FFF73AFFBEE76FF020021A619C
:10239000204600F001FBC0E770B403683A4CA0424D
:1023A00014BF00240124B0F1804F14BF224644F032
:1023B0000102AAB9354DA84214BF00250125344EAB
:1023C000B0420DD065B905F1804505F58235A842CA
:1023D00014BF0025012506F50066B04200D01DB1EE
:1023E00023F070034D682B43002A33D1274A9042D3
:1023F00014BF00220122264DA8422BD052BB02F16D
:10240000804202F58232904214BF0022012205F57B
:102410000065A8421ED0EAB91E4A904214BF0022AD
:10242000012205F59A35A84214D09AB91A4A904269
:1024300014BF0022012205F50065A8420AD04AB95E
:10244000164A904214BF00220122A5F59635A842F3
:1024500000D01AB123F44073CA68134323F08003F9
:102460004A69134303608A68C2620A6882620C4B3D
:10247000984214BF234644F001030BB10B69036378
:102480000123436170BC7047000001400008004018
:1024900000040040004401400018004000200040BB
:1024A00000040140A8B110B5044690F83D305BB17E
:1024B000022384F83D30211D2068FFF76DFF0123C2
:1024C00084F83D30002010BD80F83C3003F0B4FDAE
:1024D000EEE701207047A8B110B5044690F83D30F2
:1024E0005BB1022384F83D30211D2068FFF754FFC3
:1024F000012384F83D30002010BD80F83C30FFF708
:1025000079FEEEE701207047A8B110B5044690F8B7
:102510003D305BB1022384F83D30211D2068FFF778
:102520003BFF012384F83D30002010BD80F83C3093
:1025300003F0BEFCEEE7012070470000002843D006
:10254000F8B505460C4690F83D30002B37D00223F5
:1025500085F83D30294651F8042B90681B4B034009
:1025600093602868FFF718FF286881688369026A0A
:1025700026680E43164F1F40A368A16943EA012352
:102580001F43144B3B40E168E76941EA07211943C7
:102590002769236A1B0343EA07130B4322F0AA01AE
:1025A0006268646942EA04120A43866029688B61A2
:1025B0002B681A62012385F83D300020F8BD80F8B1
:1025C0003C3003F0ABFCC2E701207047F8BFFEFFD0
:1025D000FCFCFFFF0303FFFF70B4036A23F010034A
:1025E0000362036A42688569144C2C400D6844EA12
:1025F000052523F020038C6843EA0413104C114E88
:10260000B04218BFA0420CBF0124002406D123F021
:102610008003CE6843EA061323F040033CB122F462
:1026200040624C6942EA84028C6942EA8402426058
:1026300085614A688263036270BC7047FF8CFFFE4D
:10264000000001400004014090F83C30012B34D0E0
:1026500010B50446012380F83C30022380F83D3059
:10266000142A0FD8DFE802F00B0E0E0E150E0E0E18
:10267000190E0E0E1D0E0E0E210E0E0E25000068F8
:10268000FFF7B8FC012384F83D30002084F83C00BB
:1026900010BD0068FFF7A0FFF4E70068FFF7DEFC5D
:1026A000F0E70068FFF712FDECE70068FFF738FD80
:1026B000E8E70068FFF75EFDE4E70220704738B501
:1026C00090F83C30012B00F092800D460446012327
:1026D00080F83C30022380F83D30142A1ED8DFE811
:1026E00002F00B1D1D1D241D1D1D381D1D1D4B1D24
:1026F0001D1D5F1D1D1D72000068FFF77BFC226819
:10270000936943F0080393612268936923F00403FB
:1027100093612268936929690B439361012384F8CB
:102720003D30002084F83C0038BD0068FFF754FFBE
:102730002268936943F4006393612268936923F4E8
:102740008063936122689369296943EA0123936155
:10275000E4E70068FFF782FC2268D36943F00803CE
:10276000D3612268D36923F00403D3612268D3695B
:1027700029690B43D361D1E70068FFF7A7FC226802
:10278000D36943F40063D3612268D36923F480637F
:10279000D3612268D369296943EA0123D361BDE784
:1027A0000068FFF7BDFC2268536D43F008035365D2
:1027B0002268536D23F0040353652268536D296921
:1027C0000B435365AAE70068FFF7D4FC2268536DFA
:1027D00043F4006353652268536D23F480635365AB
:1027E0002268536D296943EA0123536596E7022065
:1027F0009AE710B401F01F01012303FA01F4036A00
:1028000023EA04030362036A8A40134303625DF808
:10281000044B704710B5044601220068FFF7E9FF3A
:1028200023680C490C4A934218BF8B4203D15A6C5F
:1028300042F400425A6422689168084B0B40062B10
:1028400018BFB3F5803F03D0136843F00103136052
:10285000002010BD000001400004014007000100FD
:1028600010B5044661B1042916D001220021006888
:10287000FFF7BFFF012204212068FFF7BAFF04E041
:10288000012200210068FFF7B4FF2268136843F0BB
:1028900001031360002010BD012204210068FFF72E
:1028A000A8FFF2E790F83C30012B27D070B4012349
:1028B00080F83C30022380F83D3003685A689D68F8
:1028C0000F4E104CA34218BFB34203D122F4700242
:1028D0004C68224322F070020C68224325F08004E9
:1028E000896821435A6003689960012380F83D306C
:1028F000002380F83C30184670BC704702207047B7
:10290000000001400004014090F83C30012B3CD015
:1029100030B4012380F83C30CB6823F440738A68DC
:10292000134323F480634A68134323F400630A6863
:10293000134323F480530A69134323F400534A6971
:10294000134323F480438A6A134323F470238A6970
:1029500043EA024302680E4D0E4CA24218BFAA423F
:102960000CD123F470034C6A43EA045323F08073C0
:10297000CC69234323F00073096A0B43536400239B
:1029800080F83C30184630BC70470220704700BFCA
:10299000000001400004014070477047704700008C
:1029A00010B5044683680269134342691343C26940
:1029B000134301680868994A024013430B60226878
:1029C000536823F44053E1680B435360A269236AC0
:1029D0001A4321688B6823F4306313438B602368A8
:1029E0008F4A934218D08F4A934228D08E4A9342FE
:1029F0003DD08E4A934250D08D4A934262D08D4A48
:102A0000934277D08C4A934200F08C808B4A934259
:102A100000F0A0801023B6E0894BD3F8903003F08B
:102A20000303032B09D8DFE803F00204AD060123FA
:102A3000A9E00423A7E00823A5E01023A3E0804B2E
:102A4000D3F8903003F00C030C2B0ED8DFE803F022
:102A5000070D0D0D090D0D0DA90D0D0D0B0000231A
:102A600091E004238FE008238DE010238BE0744B6A
:102A7000D3F8903003F03003102B0AD006D9202B66
:102A800000F09180302B06D108237CE01BB9002395
:102A900079E0042377E0102375E0694BD3F8903098
:102AA00003F0C003402B09D005D9802B7DD0C02B6B
:102AB00006D1082367E01BB9002364E0042362E029
:102AC000102360E05E4BD3F8903003F44073B3F50D
:102AD000807F0BD007D9B3F5007F68D0B3F5407F76
:102AE00006D108234FE01BB900234CE004234AE041
:102AF000102348E0524BD3F8903003F44063B3F511
:102B0000806F0BD007D9B3F5006F52D0B3F5406F8B
:102B100006D1082337E01BB9012334E0042332E057
:102B2000102330E0464BD3F8903003F44053B3F514
:102B3000805F0BD007D9B3F5005F3CD0B3F5405FA1
:102B400006D108231FE01BB900231CE004231AE070
:102B5000102318E03A4BD3F8903003F44043B3F518
:102B6000804F0BD007D9B3F5004F26D0B3F5404FB7
:102B700006D1082307E01BB9002304E0042302E088
:102B8000102300E00223E269B2F5004F17D0082BB2
:102B900000F2B380DFE803F0768B95B19EB1B1B15E
:102BA000A8000223EFE70223EDE70223EBE702236D
:102BB000E9E70223E7E70223E5E70223E3E7082B3F
:102BC0005DD8DFE803F0051F3F5C485C5C5C5300A8
:102BD000FEF762FC6268530803EB4003B3FBF2F3B9
:102BE0009BB20020A3F110014FF6EF72914200F268
:102BF00087809AB222F00F02C3F342031343226884
:102C0000D36050E0FEF758FC6268530803EB4003C2
:102C1000B3FBF2F39BB20020E4E700BFF369FFEFE0
:102C2000001001400044004000480040004C0040BB
:102C3000005000400014014000780040007C00403B
:102C4000003802406268304B03EB5203B3FBF2F3EF
:102C50009BB20020C6E7FEF7FBFA6268530803EB5D
:102C60004003B3FBF2F39BB20020BBE7626853085A
:102C700003F58033B3FBF2F39BB20020B2E70120EF
:102C80000023AFE7FEF708FC626800EB5203B3FBDA
:102C9000F2F39BB20020A3F110014FF6EF729142C4
:102CA00030D82268D36000232366636610BDFEF728
:102CB00003FC626800EB5203B3FBF2F39BB200200B
:102CC000E9E76268114B03EB5203B3FBF2F39BB2EB
:102CD0000020E0E7FEF7BCFA626800EB5203B3FBAA
:102CE000F2F39BB20020D6E76268530803F5004375
:102CF000B3FBF2F39BB20020CDE701200023CAE72B
:102D00000120D0E70120CEE70048E8010024F400CC
:102D1000436A13F0010F06D00268536823F40033AE
:102D2000816A0B435360436A13F0020F06D00268B6
:102D3000536823F48033C16A0B435360436A13F032
:102D4000040F06D00268536823F48023016B0B4301
:102D50005360436A13F0080F06D00268536823F4E7
:102D60000043416B0B435360436A13F0100F06D0CE
:102D70000268936823F48053816B0B439360436A2A
:102D800013F0200F06D00268936823F40053C16B40
:102D90000B439360436A13F0400F0AD002685368F4
:102DA00023F48013016C0B435360036CB3F5801F55
:102DB0000BD0436A13F0800F06D00268536823F4E7
:102DC0000023816C0B43536070470268536823F4FF
:102DD000C003416C0B435360EBE72DE9F04105461E
:102DE0000F4616469846069C2B68DB6937EA0303B4
:102DF0000CBF01230023B3421CD1B4F1FF3FF3D039
:102E0000FDF732FCA0EB0800A04201D8002CEBD16A
:102E10002A68136823F4D07313602A68936823F038
:102E20000103936020236B67AB67002385F8703044
:102E3000032000E00020BDE8F0812DE9F04182B0E0
:102E40001E46436F202B59D104460D469046B2FAD8
:102E500082F35B09002908BF0123002B53D190F8AE
:102E60007030012B51D0012380F870300023C367EC
:102E700021234367FDF7F8FB0746A4F85080A4F828
:102E80005280A368B3F5805F02D04FF0000810E0D5
:102E900023690BB34FF000080BE038F8023B2268BF
:102EA000C3F308039362B4F85230013B9BB2A4F819
:102EB0005230B4F852309BB28BB100963B460022A0
:102EC00080212046FFF789FF08BB002DE5D015F8CB
:102ED000012B23689A62E6E7A8460025E9E70096F9
:102EE0003B46002240212046FFF777FF034680B98A
:102EF00020226267002284F8702000E00223184636
:102F000002B0BDE8F0810123F9E70223F7E70323CC
:102F1000F5E70323F3E710B582B004460023C36747
:102F2000FDF7A2FB2268126812F0080F07D12023D8
:102F30006367A367002084F8700002B010BD6FF0D3
:102F40007E430093034600224FF400112046FFF712
:102F500044FF0028EBD00320EFE768B310B5044628
:102F6000436F03B3242363672268136823F00103CC
:102F700013602046FFF714FD012813D0636ABBB924
:102F80002268536823F4904353602268936823F0C7
:102F90002A0393602268136843F0010313602046FC
:102FA000FFF7B9FF10BD80F8703003F049F9D9E799
:102FB0002046FFF7ADFEE3E7012070470B88012BA9
:102FC00000D0704770B52DED068B0D460446038882
:102FD000012B0DD02388022B6BD02388032B00F00C
:102FE000BD802388042B00F02881BDEC068B70BDCA
:102FF000BD4B00221A6001F06FF8BC4EBC4B336031
:10300000BC4B7360BC4BB360208802F00DFD96EDA5
:10301000007ADFEDBA7A77EE279A37EE679A96ED67
:10302000017A37EE27AA77EE678A96ED027A77EE75
:1030300027AA37EE678AB24BD3ED007AB0EE007A5A
:1030400077EE877A9FEDAF7AC7FEC77A9FEDAE7AAB
:10305000C7FE877AC3ED007A00F010FEAB4BD3EDCC
:10306000007AF4EEC97AF1EE10FA1FDDF4EEE97A97
:10307000F1EE10FA1AD5D3ED017AF4EECA7AF1EE38
:1030800010FA13D5F4EEE87AF1EE10FA0EDDD3ED76
:10309000027AF4EEC87AF1EE10FA07DDF4EEEA7A7D
:1030A000F1EE10FA02D50223238093E70123238057
:1030B00090E701F011F88D4B8D4A1A608D4A5A60E5
:1030C000934A9A60208802F0AFFC874B9B8813BB21
:1030D000208802F0A9FC8A4BD3ED007AB0EE007A8A
:1030E00077EE877A9FED877AC7FEC77A9FED867A5B
:1030F000C7FE877AC3ED007A00F0C0FD7A4B9B884B
:10310000012B1AD1784A136801331360C72B08DDED
:103110000323238061E703209FED7E0A02F03CFA3F
:10312000D9E70120FDF7A6FA208802F07DFC0320F4
:103130009FED780A02F030FA4FE702232380052042
:1031400002F0A0F800287FF448AF03209FED710A39
:1031500002F022FA644B01229A803EE700F0BCFFA5
:10316000624B634A1A60634A5A606B4A9A60644BC6
:10317000D3ED007AB0EE007A77EE877A9FED617A30
:10318000C7FEC77A9FED607AC7FE877AC3ED007AE3
:1031900000F074FD544BDB889BB35C4BD3ED007A9D
:1031A0009FED5E7AF4EEC77AF1EE10FA2DDD9FED19
:1031B0005C7AF4EEC77AF1EE10FA26D5D3ED017AF7
:1031C0009FED587AF4EEC77AF1EE10FA1DD59FED17
:1031D000567AF4EEC77AF1EE10FA16DDD3ED027AE4
:1031E0009FED527AF4EEC77AF1EE10FA0DDD9FED05
:1031F000507AF4EEC77AF1EE10FA06D50423238054
:10320000EFE6208802F010FCC7E7374BDB88012B84
:1032100002D104232380E4E603232380022002F06A
:1032200031F800287FF4DDAE03209FED3A0A02F06A
:10323000B3F92D4B0122DA80D3E62C4B3D4A1A60BC
:10324000354A5A609FED338A83ED028A0120B0EE41
:10325000480A02F0A1F90220B0EE480A02F09CF9F7
:10326000274BD3ED007AB0EE007A77EE877A9FEDA8
:10327000257AC7FEC77A9FED247AC7FE877AC3ED09
:10328000007A00F0FBFC1CE001209FED2B0A02F00D
:1032900083F902209FED1F0A02F07EF9184BD3ED4F
:1032A000007AB0EE007A77EE877A9FED167AC7FE45
:1032B000C77A9FED157AC7FE877AC3ED007A00F0D2
:1032C000DDFC002001F0DEFF0128DDD09FED118A3A
:1032D0000120B0EE480A02F05FF90220B0EE480A81
:1032E00002F05AF944E000BFB8000020D8060020E0
:1032F000273108BE5A643B3E6F12833ACDCCCC3C9A
:1033000008000020008022440000FA43C00600208C
:10331000F853233F000000000AD723BC508D17BE8E
:10332000FCA9F1BD83C04A3E31082C3E583934BC5B
:10333000BC7413BC7F6A3CBD9A9999BE0AD7A33C62
:1033400002201FED020A02F027F9144BD3ED007A98
:10335000B0EE007A77EE877A9FED117AC7FEC77AD2
:103360009FED107AC7FE877AC3ED007A00F086FCE5
:10337000012001F087FF0128E2D09FED0B8A012098
:10338000B0EE480A02F008F90220B0EE480A02F056
:1033900003F90A2323802B8027E600BF08000020C2
:1033A000008022440000FA430000000010B52DED1B
:1033B000028B04460388012B0AD02388022B14D0E9
:1033C000BDEC028B10BD03209FED3F0A02F0E4F834
:1033D000022001F057FF0128F5D0022323800320AB
:1033E0009FED3A0A02F0D8F8E7E7394BD3ED007ABF
:1033F000B0EE007A77EE877A9FED367AC7FEC77A0D
:103400009FED357AC7FE877AC3ED007A00F036FC6F
:10341000002001F037FF01281DD101209FED2F0A68
:1034200002F0BAF802209FED290A02F0B5F8284B05
:10343000D3ED007AB0EE007A77EE877A9FED257AA9
:10344000C7FEC77A9FED247AC7FE877AC3ED007A5C
:1034500000F014FCDCE79FED1D8A0120B0EE480A65
:1034600002F09AF80220B0EE480A02F095F8012026
:1034700001F008FF012818D102209FED190A02F07F
:103480008BF8134BD3ED007AB0EE007A77EE877AA3
:103490009FED107AC7FEC77A9FED0F7AC7FE877A35
:1034A000C3ED007A00F0EAFBE1E79FED088A012016
:1034B000B0EE480A02F070F80220B0EE480A02F0BE
:1034C0006BF80B2323807BE7CDCCCC3E00000000C3
:1034D00008000020008022440000FA439A9999BE17
:1034E0000AD7A33C10B504460388012B03D02388D8
:1034F000022B58D010BD00F0EFFD584B584A1A600F
:10350000584A5A60584A9A60208802F08DFA574B00
:10351000D3ED007A9FED567AF4EEC77AF1EE10FA09
:1035200029DD9FED547AF4EEC77AF1EE10FA22D538
:10353000D3ED017A9FED507AF4EEC77AF1EE10FAEE
:1035400019D59FED4E7AF4EEC77AF1EE10FA12DD3E
:10355000D3ED027A9FED4A7AF4EEC77AF1EE10FAD3
:1035600009DD9FED487AF4EEC77AF1EE10FA02D544
:1035700002232380BBE7444B1B89012B05D1022387
:103580002380414B00221A81B1E7012323800220CE
:1035900001F078FE0028AAD1208802F045FA3A4BC3
:1035A00001221A81A3E700F097FD2C4B2C4A1A60E8
:1035B0002C4A5A60354A9A60208802F035FA2B4B23
:1035C000D3ED007A9FED327AF4EEC77AF1EE10FA7D
:1035D00026DD9FED307AF4EEC77AF1EE10FA1FD5B2
:1035E000D3ED017A9FED2C7AF4EEC77AF1EE10FA62
:1035F00016D59FED2A7AF4EEC77AF1EE10FA0FDDB8
:10360000D3ED027A9FED267AF4EEC77AF1EE10FA46
:1036100006DD9FED247AF4EEC77AF1EE10FA14D4A9
:10362000194B5B89012B13D002232380052001F065
:1036300029FE00287FF45EAF03209FED1B0A01F0F6
:10364000ABFF114B01225A8154E70C23238051E731
:103650000C2323800C4B00225A814BE7D806002014
:10366000273108BE5A643B3E0AD7233CC0060020DF
:10367000508D17BEFCA9F1BD83C04A3E31082C3ED7
:103680000AD7A3BBCCCCCC3CB8000020F853233FD6
:1036900008AC1CBE8C6CE7BD3BDF4F3E79E9263E93
:1036A00040351E3FB072283F0000000003880D2BFC
:1036B00000D0704710B5044600F00EFD254B264A99
:1036C0001A60264A5A60264A9A60208802F0ACF9AD
:1036D000244BD3ED007A9FED247AF4EEC77AF1EE15
:1036E00010FA26DD9FED217AF4EEC77AF1EE10FA9A
:1036F0001FD5D3ED017A9FED1E7AF4EEC77AF1EE75
:1037000010FA16D59FED1B7AF4EEC77AF1EE10FA97
:103710000FDDD3ED027A9FED187AF4EEC77AF1EE61
:1037200010FA06DD9FED157AF4EEC77AF1EE10FA85
:1037300002D40D23238010BD0023238000F0CCFC95
:10374000084A1168034B19605168596092689A6081
:10375000F1E700BFD80600204260653CF4FDD43D8F
:103760006F12833AC0060020BD74133CE4A59B3C55
:10377000653BDF3D83C0CA3D6E1283BBA69BC43B45
:103780000388012B00D0704710B5044600F0A4FC5C
:10379000204B214A1A60214A5A60208802F044F9DD
:1037A0001F4BD3ED007AB2EE047A77EE877A9FED65
:1037B0001D7AC7FEC77A9FED1C7AC7FE877AC3EDD4
:1037C000007A00F05BFA194BD3ED007A9FED187A7E
:1037D000F4EEC77AF1EE10FA16DD9FED167AF4EEEC
:1037E000C77AF1EE10FA0FD5D3ED017A9FED127A78
:1037F000F4EEC77AF1EE10FA06D59FED107AF4EEEA
:10380000C77AF1EE10FA02DC0023238010BD0E23EC
:103810002380FBE7D8060020250601BE2DB21D3E01
:1038200008000020008022440000FA43C006002067
:103830004E6210BEF853E3BD560E2D3E04560E3EAA
:103840000388012B00D0704710B5044600F044FCFB
:103850009F4BD3ED007A9FED9F7AF4EEC77AF1EE9D
:1038600010FA16DD9FED9C7AF4EEC77AF1EE10FAAD
:103870000FD5D3ED017A9FED997AF4EEC77AF1EE88
:1038800010FA06D59FED967AF4EEC77AF1EE10FAAB
:1038900064DC8F4BD3ED007A9FED927AF4EEC77A19
:1038A000F1EE10FA16DD9FED907AF4EEC77AF1EEA4
:1038B00010FA0FD5D3ED017A9FED8C7AF4EEC77A2A
:1038C000F1EE10FA06D59FED8A7AF4EEC77AF1EEA2
:1038D00010FA6FDC7E4BD3ED007A9FED867AF4EE22
:1038E000C77AF1EE10FA16DD9FED837AF4EEC77A0F
:1038F000F1EE10FA0FD5D3ED017A9FED807AF4EE58
:10390000C77AF1EE10FA06D59FED7D7AF4EEC77A0C
:10391000F1EE10FA7DDC6E4BD3ED007A9FED797AF3
:10392000F4EEC77AF1EE10FA17DD9FED777AF4EE38
:10393000C77AF1EE10FA10D5D3ED017A9FED737AC4
:10394000F4EEC77AF1EE10FA07D59FED717AF4EE36
:10395000C77AF1EE10FA00F38B8010BD6D4B002298
:103960001A605A60208802F05FF8594BD3ED007A54
:103970009FED697AF4EEC77AF1EE10FA17DD9FED4C
:10398000677AF4EEC77AF1EE10FA10D5D3ED017A2A
:10399000F4EEC77AF1EE10FA09D59FED5F7AF4EEF6
:1039A000C77AF1EE10FA02DD0F23238071E70023BE
:1039B00023806EE7574B5A4A1A605A4A5A60208849
:1039C00002F032F8424BD3ED007A9FED577AF4EED5
:1039D000C77AF1EE10FA19DD9FED547AF4EEC77A4A
:1039E000F1EE10FA12D5D3ED017A9FED517AF4EE93
:1039F000C77AF1EE10FA09D59FED4E7AF4EEC77A48
:103A0000F1EE10FA02DD0F23238063E70023238009
:103A100060E7404B484A1A60484A5A60208802F0E2
:103A200003F82B4BD3ED007A9FED457AF4EEC77A7D
:103A3000F1EE10FA19DD9FED437AF4EEC77AF1EE5C
:103A400010FA12D5D3ED017A9FED3F7AF4EEC77AE2
:103A5000F1EE10FA09D59FED3D7AF4EEC77AF1EE5A
:103A600010FA02DD0F23238055E70023238052E75D
:103A7000284B374A1A60374A5A60208801F0D4FF31
:103A8000134BD3ED007A9FED347AF4EEC77AF1EE62
:103A900010FA16DD9FED317AF4EEC77AF1EE10FAE6
:103AA0000FD5D3ED017A9FED2E7AF4EEC77AF1EEC1
:103AB00010FA06D59FED2B7AF4EEC77AF1EE10FAE4
:103AC00002DC0023238048E70F23238045E700BF63
:103AD000C00600201A2FDDBC022B073D2DB2DD3EB3
:103AE000002B073D3333B3BE3333B33E8FC2F53CB7
:103AF0008FC2F5BCF853E3BEA69BC4BE0681953EBB
:103B0000701203BC85EB31BF00D7A33BAAF1D23EB4
:103B100096438B3ED80600208FC275BC8FC2753C81
:103B2000CFF7D3BE7368113EE3A5DBBEBB49CCBE65
:103B30009CC4203E4A0C023ED7A3B0BEA01AAF3EA2
:103B4000EB51B8BEC3F5A8BEB4C8B63E8C6CA73E58
:103B5000A69B443B8D976E3EA69B44BCBC74933C95
:103B6000B6F37D3E643B5F3E38B52DED028B0446D7
:103B70000D46F0EE000A90ED000A02F08DFCB0EE6A
:103B8000408AF0EE000A94ED010A02F085FC38EE5E
:103B9000000A02F095FEB0EE408AD4ED000A94EDE2
:103BA000010A02F089FED4ED007AF5EEC07AF1EE5A
:103BB00010FA08D485ED008A85ED010AA368AB6090
:103BC000BDEC028B38BDD4ED017AF5EEC07AF1EE92
:103BD00010FAEFD5B7EEC00A9FED037B30EE070B6E
:103BE000B7EEC00BE6E700BF182D4454FB21194087
:103BF00038B52DED028B04460D4690ED008A90ED10
:103C0000010A02F0FFFB28EE008A85ED008AD4ED60
:103C1000008A94ED010A02F0B1FD28EE800A85EDDC
:103C2000010AA368AB60B5EEC08AF1EE10FA04DDBC
:103C3000B5EEC00AF1EE10FA02D4BDEC028B38BD2D
:103C400000236B60F9E7000010B50B4C0021204603
:103C5000FEF7E0FD23684FF47A725A6340F6B830FD
:103C6000FCF708FD23684FF4FA725A6340F6B83047
:103C7000FCF700FD10BD00BF58040020044B1B687A
:103C8000044AD2ED007AFCEEE77AC3ED0D7A704774
:103C9000580400200800002000280CDD07EE900AE0
:103CA000B8EEE77AC1F1FF0107EE901AF8EEE77A75
:103CB00087EE270A704707EE900AB8EEE77A07EE1C
:103CC000901AF8EEE77A87EE270A704782B0002351
:103CD000019302E0019B01330193019B1D2BF9D954
:103CE00002B0704708B5002280210248FDF779F83C
:103CF00008BD00BF000C024008B501228021024827
:103D0000FDF76FF808BD00BF000C02400000000086
:103D10002DE9F0472DED028B88B081460E46154601
:103D20009846129F0024CDF81640CDF81A40012382
:103D30008DF8143042238DF8153002940394ADF8B9
:103D40001040BF4880230362FDF78FFFFFF7CAFFD3
:103D5000FFF7BCFF0EE04FF6FF730093012302AAAA
:103D6000224405A92144B648FDF7DCFFFFF7AEFF6A
:103D70000134E4B2022CEED99DF8093003F00F03B0
:103D8000032B03D04FF0050A032411E04FF0090A7A
:103D9000FAE74FF6FF730093012302AA224405A914
:103DA0002144A748FDF7BEFFFFF790FF013464B23E
:103DB000A245EEDCFFF7A0FF9DF80B30DB43DAB243
:103DC0008DF80B209DF80C30DB43DBB28DF80C3006
:103DD00003EB0223A9F800309DF8093003F00F032C
:103DE000032B0FD00023336073602B606B60C8F827
:103DF0000030C8F804303B607B6008B0BDEC028B3B
:103E0000BDE8F0879DF80F0080218038FFF744FF60
:103E100086ED000A9DF8100080218038FFF73CFFF6
:103E2000B1EE400A86ED010A9DF80D008021803830
:103E3000FFF732FF85ED000A9DF80E0080218038E3
:103E4000FFF72AFFB1EE400A85ED010AF0EE000A05
:103E500096ED000A02F020FBB0EE408AF0EE000A78
:103E600096ED010A02F018FB38EE000A02F028FD78
:103E7000F7EE007A80FE670A88ED000ADFED717ABE
:103E8000B4EEE70AF1EE10FA02D50023C8F80030CC
:103E9000D8ED007AF5EE407AF1EE10FA2DD100233C
:103EA000C8F80430F0EE000A95ED000A02F0F4FACA
:103EB000B0EE408AF0EE000A95ED010A02F0ECFA4D
:103EC00038EE000A02F0FCFCF7EE007A80FE670A8A
:103ED00087ED000ADFED5B7AB4EEE70AF1EE10FA47
:103EE00001D500233B60D7ED007AF5EE407AF1EE84
:103EF00010FA51D100237B607FE796ED010A80EE36
:103F0000270A02F085FCDFED507A60EE277AB7EEE3
:103F1000E77A9FED495B87EE056BB7EEC66B88EDE0
:103F2000016AD6ED007AF5EEC07AF1EE10FA06DD00
:103F300096ED017AB5EEC07AF1EE10FAB2DCF5EE4C
:103F4000C07AF1EE10FA0BD4F5EEC07AF1EE10FA69
:103F500014D4DFED3E7A36EE276A88ED016AA1E7D8
:103F600096ED017AB5EEC07AF1EE10FAECDDDFEDF8
:103F7000367A37EEC66A88ED016A93E7D6ED017AA4
:103F8000F5EEC07AF1EE10FAE3D5DFED2F7A37EED9
:103F9000C66A88ED016A85E795ED010A80EE270A79
:103FA00002F036FCDFED287A60EE277AB7EEE77A8A
:103FB0009FED215B87EE056BB7EEC66B87ED016A5F
:103FC000D5ED007AF5EEC07AF1EE10FA07DD95ED49
:103FD000017AB5EEC07AF1EE10FA3FF70EAFF5EECA
:103FE000C07AF1EE10FA0BD4F5EEC07AF1EE10FAC9
:103FF00014D4DFED167A36EE276A87ED016AFCE607
:1040000095ED017AB5EEC07AF1EE10FAECDDDFED58
:104010000E7A37EEC66A87ED016AEEE6D5ED017AD3
:10402000F5EEC07AF1EE10FAE3D5DFED077A37EE60
:10403000C66A87ED016AE0E6182D4454FB21094069
:10404000EC030020CDCCCC3E000034430000B44350
:1040500088B08DED060A4AF2A5524BF6BE6398422F
:1040600018BF904216D001209DED067AB7EEC77AB0
:104070009FED0B6B27EE067BB4EE467BF1EE10FA5C
:104080000AD0BBEE0D6BB4EE467BF1EE10FA04D114
:10409000002002E00020E7E7002008B0704700BFE2
:1040A000000000000000594010B4094C636AA3F5F9
:1040B00000430B804FF080435B6A0380054B5B6AD3
:1040C00013804FF4004363625DF8044B704700BFF8
:1040D000000400400008004000B583B00DF102026A
:1040E00001A90DF10600FFF7DFFFBDF9063007EE6D
:1040F000103AB8EEC77ADFED327A27EE277A37EE3C
:10410000077AB7EEC77A9FED285B27EE057B9FED18
:10411000284B27EE047B9FED286B27EE067BB7EE3E
:10412000C77BDFED286AC7EE267A2748C0ED007A04
:10413000BDF9043006EE103AB8EEC66ADFED237A18
:1041400026EE276AB7EEC66A26EE056B26EE046BEE
:10415000B7EEC66BDFED1E7A86EE277AD0ED017AD8
:1041600077EE877AC0ED017ABDF9023007EE103A9A
:10417000B8EEC77ADFED177A27EE277AB7EEC77A5F
:1041800027EE057B37EE077BB7EEC77BDFED126AC4
:10419000C7EE267AC0ED027A1049FFF729FD03B079
:1041A0005DF804FBAFF30080182D4454FB21094057
:1041B0000000000000407F40000000000040804000
:1041C0004260E53C0C93764DCC0600200000BC42DA
:1041D0000049094D8FC2F53C00004843C00600204D
:1041E00008B53C210B48FEF73BFB3C210A48FEF793
:1041F00037FB3C210948FEF733FB094B4FF40042E3
:104200005A6200234FF08042536202F5006253620B
:1042100008BD00BF24060020AC0300209802002047
:10422000000400402DE9F04F8FB0002409940A9457
:104230000B940C940D947D4B1A6B42F010021A6390
:104240001A6B02F010020192019A1A6B42F00402FA
:104250001A631A6B02F004020292029A1A6B42F07D
:1042600020021A631A6B02F020020392039A1A6B5F
:1042700042F080021A631A6B02F080020492049AE0
:104280001A6B42F001021A631A6B02F001020592E6
:10429000059A1A6B42F002021A631A6B02F00202CC
:1042A0000692069A1A6B42F008021A631A6B02F021
:1042B00008020792079A1A6B42F040021A631B6BBE
:1042C00003F040030893089BDFF874B122464CF2D8
:1042D00018215846FCF785FD554E22464FF4CA5129
:1042E0003046FCF77EFD224645F6C2315148FCF7C8
:1042F00078FDDFF85091224649F203414846FCF729
:1043000070FDDFF8448122464CF284014046FCF700
:1043100068FD494F22464FF49B513846FCF761FD3A
:10432000142309930A9401250B9509A94846FCF723
:1043300061FC4FF400530993404B0A930B94DFF850
:104340000CA109A95046FCF755FC4CF2182309931F
:104350000A950B940C9409A95846FCF74BFC0D23C5
:1043600009930A940B9509A95046FCF743FC1023C6
:1043700009930A940B9509A93046FCF73BFC4FF4CE
:10438000CA5309930A950B940C9409A93046FCF77B
:1043900031FC45F6C23309930A950B940C9409A994
:1043A0002448FCF727FC49F2034309930A950B9430
:1043B0000C9409A94846FCF71DFC4CF284030993B0
:1043C0000A950B940C9409A94046FCF713FC0C23A6
:1043D00009930A940B9509A93846FCF70BFC902326
:1043E00009930A940B9409A93846FCF703FC4FF48F
:1043F0009B5309930A950B940C9409A93846FCF732
:10440000F9FB4FF4004309930A940B9409A9304631
:10441000FCF7F0FB082309930A940B9509A9404681
:10442000FCF7E8FB0FB0BDE8F08F00BF003802409A
:104430000000024000040240001802400000111079
:104440000014024000100240000C0240000802402C
:1044500000B583B01048114B036001234360002373
:1044600003828DF8003080228DF80120E1228DF842
:1044700002208DF803308DF804308DF80530C0F837
:1044800014D08361C3614FF400030362FCF788FA20
:1044900003B05DF804FB00BF64060020008002400A
:1044A00008B50F480F4B03604FF48273436000233D
:1044B00083604FF4E062C260022202610122426125
:1044C0004FF4007282613822C2618022026243622C
:1044D00083620722C26203634363FDF7C6FB08BD24
:1044E000EC030020003C004030B597B0002413944A
:1044F000149415940C940D940E940F94109411949C
:1045000012942C22214601A803F040FB264D274B94
:104510002B605F236B60AC6040F2E733EB602C6193
:104520006C61AC612846FDF7EFFF2846FDF7D3FF2D
:1045300013941494159413A92846FEF7B3F9602335
:104540000C930D940E940F9410941194129422468F
:104550000CA92846FEF7B3F804220CA92846FEF75A
:10456000AEF808220CA92846FEF7A9F80C940C22F4
:104570000CA92846FEF768F8019402940394049469
:1045800005944FF400530693079408944FF000737A
:1045900009930A940B9401A92846FEF7B5F9284619
:1045A00001F09AFD17B030BD9C05002000000140CD
:1045B00030B597B000241394149415940C940D9472
:1045C0000E940F941094119412942C22214601A859
:1045D00003F0DCFA244D254B2B605F236B60AC604D
:1045E00040F2E733EB602C616C61AC612846FDF76B
:1045F0008BFF13941494159413A92846FEF752F9CF
:1046000060230C930D940E940F94109411941294B3
:1046100022460CA92846FEF752F804220CA9284687
:10462000FEF74DF808220CA92846FEF748F80C22A0
:104630000CA92846FEF743F80194029403940494CD
:1046400005944FF400530693079408944FF00073B9
:1046500009930A940B9401A92846FEF755F92846B8
:1046600001F03AFD17B030BD5802002000040140AF
:1046700030B589B000240194029403940494059405
:10468000069407940E4D0F4B2B60BF236B60AC60FC
:1046900042F20F73EB602C61AC612846FDF734FFEA
:1046A00060230193029403940594224601A92846AD
:1046B000FEF705F8284601F00FFD09B030BD00BF38
:1046C000DC0500200040014030B58DB020220021E3
:1046D00004A803F05BFA00240094019402940D4DA9
:1046E0004FF080432B606C60AC604FF6FF73EB6063
:1046F0002C61AC61012303930593099303A9284618
:10470000FDF71CFF0094029469462846FEF7CAF89C
:104710000DB030BD2406002030B58DB02022002120
:1047200004A803F033FA00240094019402940D4D80
:104730000D4B2B606C60AC604FF6FF73EB602C612F
:10474000AC61012303930593099303A92846FDF760
:10475000F5FE0094029469462846FEF7A3F80DB0D2
:1047600030BD00BFAC0300200004004030B58DB068
:104770002022002104A803F009FA002400940194E7
:1047800002940D4D0D4B2B606C60AC604FF6FF73C7
:10479000EB602C61AC61012303930593099303A99A
:1047A0002846FDF7CBFE0094029469462846FEF7A2
:1047B00079F80DB030BD00BF98020020000800401D
:1047C00030B585B000250195029503950A4C0B4B39
:1047D000236030236360A56042F20F73E360A5613C
:1047E0002046FDF75FFE0195039501A92046FEF7DF
:1047F00059F805B030BD00BF5C0500200010004036
:1048000030B589B000240194029403940494059473
:10481000069407940F4D104B2B60BF236B60AC6068
:1048200042F20F73EB602C61AC612846FDF73AFE53
:104830002846FDF769FE60230193029403940594D2
:10484000224601A92846FDF73AFF284601F044FC1C
:1048500009B030BD580300200044014030B589B094
:1048600000240194029403940494059406940794FC
:104870000F4D104B2B60BF236B60AC6042F20F7387
:10488000EB602C61AC612846FDF70CFE2846FDF775
:104890003BFE60230193029403940594224601A9F0
:1048A0002846FDF70CFF284601F016FC09B030BD84
:1048B000180500200048014030B589B0002401945B
:1048C0000294039404940594069407940F4D104B9E
:1048D0002B60BF236B60AC6042F20F73EB602C6106
:1048E000AC612846FDF7DEFD2846FDF70DFE60238E
:1048F0000193029403940594224601A92846FDF7EA
:10490000DEFE284601F0E8FB09B030BD5804002067
:10491000001C004008B50948094B03604FF4E1331F
:10492000436000238360C36003610C2242618361A2
:10493000C36103624362FEF710FB08BD98040020C8
:104940000010014008B50948094B03604FF4E133FA
:10495000436000238360C36003610C224261836172
:10496000C36103624362FEF7F8FA08BDD802002073
:1049700000480040000000000268BE4B9A4200D090
:1049800070472DE9F04182B0BB4FBC4EBC4DBD4CD1
:10499000DFF81483CDF800803B4632462946204696
:1049A000FFF7B6F998ED003AD8ED013A97ED002AF5
:1049B000D7ED012A96ED001AD6ED011A95ED000A01
:1049C000D5ED010A2088FFF743FB80B26080012803
:1049D00002D002B0BDE8F0812388202B49D0102BF3
:1049E00000F08C80B3F5004F00F08C80042B00F0B9
:1049F0008D80012B00F0A880082B00F0BB80802B5D
:104A000000F0CB80402B00F0FD80B3F5805F00F01C
:104A10004D81B3F5804F00F06581B3F5005F00F084
:104A20007D81B3F5006F00F08F81B3F5807F00F0DA
:104A300094810F2B00F09A81924BD3ED067AF5EE1C
:104A4000C07AF1EE10FA40F399819FED8F7A77EEFC
:104A5000C77AC3ED067A8B4C94ED060A0420B1EEBA
:104A6000400A00F099FD052094ED060A00F094FD3F
:104A700001E00122A280834BDB68012B00F08F81D3
:104A800053B9824B9B893BB97E4B9B8B23B97D4BA2
:104A9000DB8B002B00F0A6817A4C238863817B4D51
:104AA0000A2095ED000A01F099F80B2095ED010A16
:104AB00001F094F80C2095ED020A01F08FF8FFF751
:104AC0000BFB2388B3F5805F00F0A081B3F5804F26
:104AD00000F0DC81B3F5005F00F0DD81B3F5004F3D
:104AE00000F0DD81102B00F0DF81402B00F0E08131
:104AF000644B00225A621A629A6289E1614B012278
:104B0000DA80B8E75F4B01221A81B4E75F4BD3ED3F
:104B1000007AF6EE006A77EEE67A9FED5D7AC7FEE0
:104B2000877AC3ED007AD3ED017A77EEE67AC7FE95
:104B3000877AC3ED017AD3ED027A77EEE67AC7FE83
:104B4000877AC3ED027A96E7504BD3ED017AF6EE01
:104B5000006A77EEA67A9FED4F7AC7FEC77AC3ED5B
:104B6000017AD3ED027A77EEA67AC7FEC77AC3ED53
:104B7000027A80E7434A528993423FF47CAF414B2B
:104B8000DB681BB93F4B0122DA6074E7012B7FF42D
:104B900072AF3C4B0022DA606DE73A4A5289934289
:104BA0003FF469AF374B1B69BBB1012B7FF463AF97
:104BB000002240213848FCF714F9384C0022022129
:104BC0002046FCF70EF900224FF480412046FCF706
:104BD00008F92C4B00221A614DE7012240212E4892
:104BE000FCF7FFF82D4C012202212046FCF7F9F8D2
:104BF00001224FF480412046FCF7F3F8214B0122BB
:104C00001A6138E71F4A528993423FF434AF1D4B73
:104C10005B69C3B1012B7FF42EAF00220221204833
:104C2000FCF7DFF81F4C00224FF400712046FCF720
:104C3000D8F800224FF480512046FCF7D2F8114BEF
:104C400000225A6117E7012202211548FCF7C9F832
:104C5000144C01224FF400712046FCF7C2F80122E7
:104C60004FF480512046FCF7BCF8064B01225A61F4
:104C700001E700BF00100040980300205002002010
:104C800050040020C80000206F12033A0C000020DE
:104C90000000B4C20000B442000002400004024020
:104CA00000100240001802401C060020864C94EDC3
:104CB000060ADFED867A30EE270ADFED857A80FE80
:104CC000670ADFED847A80FE270A84ED060A042055
:104CD000B1EE400A00F060FC052094ED060A00F0F9
:104CE0005BFCC8E6784C94ED060ADFED787A30EE8E
:104CF000670ADFED777A80FE670ADFED767A80FE5D
:104D0000270A84ED060A0420B1EE400A00F044FCB4
:104D1000052094ED060A00F03FFCACE66E4C9FEDDA
:104D20006F0A84ED000A6E4B6360A3600A2000F0F6
:104D300055FF0B2094ED010A00F050FF0C2094ED7C
:104D4000020A00F04BFF96E65F4A528993423FF415
:104D500092AE5D4B01229A838DE65B4A5289934263
:104D60003FF489AE584B0122DA8384E600235A4A85
:104D70009381554A9383D38393807CE6F5EEC07A82
:104D8000F1EE10FA03D4504B00229A6163E69FEDD6
:104D90004F7A77EE877A4C4BC3ED067A5BE64E4A44
:104DA0009289002A7FF46CAE474A928B002A7FF4E6
:104DB00067AE454AD28B002A7FF462AE494BD3EDF1
:104DC000007AB7EE087A77EE877A9FED477AC7FECA
:104DD000C77A9FED467AC7FE877AC3ED007AFEF761
:104DE0004DFF59E63F4BD3ED007AB7EE087A77EEE8
:104DF000C77A9FED3D7AC7FEC77A9FED3C7AC7FE22
:104E0000877AC3ED007AFEF739FF45E60122226278
:104E1000314B9B89002B7FF4DCADFFF75DF9344A01
:104E200092ED007AB7EEC77A324991ED006AB1EEA1
:104E3000466AB7EEC66A9FED225B06EE057BB7EECB
:104E4000C77B2D4B83ED007A92ED017AB7EEC77ADE
:104E500091ED016AB7EEC66A06EE057BB7EEC77B39
:104E600083ED017A92ED027AB7EEC77A234A92ED8A
:104E7000016AB7EEC66A06EE057BB7EEC77B83ED27
:104E8000027A154B988900F0CFFDA2E50E4B4FF04A
:104E9000FF321A62BCE70C4B01225A62B8E70A4B98
:104EA0004FF0FF325A62B3E7074B01229A62AFE735
:104EB000054B4FF0FF329A62AAE700BFAFF30080C4
:104EC000FA7E6ABC7493583FC80000206F12033A00
:104ED000CDCC4C3DCDCC4CBD0C0000200000B442EC
:104EE0000000A04208000020008022440000FA4395
:104EF000C006002050040020D806002050020020E8
:104F000030B5B9B0342200212BA802F03FFE0024B6
:104F100026942794289429942A949022214602A822
:104F200002F034FEFBF764FF204B1A6C42F0805213
:104F30001A641B6C03F080530093009B1C4A136897
:104F400023F4404343F480431360136803F4404365
:104F50000193019B01232B934FF4A0232C93022553
:104F600031954FF4800332930423339360223492BB
:104F7000359536932BA8FBF781FFFBF741FF0F23F5
:104F80002693279528944FF4805329932A9403213C
:104F900026A8FCF7C9F94FF4A07302931394159453
:104FA00002A8FCF799FA39B030BD00BF00380240C2
:104FB000007000400000000030B52DED028B89B07C
:104FC000FBF73AFBFFF79CFFFFF72CF9FFF740FADE
:104FD000FFF766FAFFF788FAFFF776FBFFF79CFB0F
:104FE000FFF7C4FBFFF7ECFBFFF7E2FAFFF740FB2C
:104FF000FFF706FCFFF732FCFFF75EFCFFF78AFCC9
:10500000FFF7A0FC00F060FD00F07AFDFFF7E8F884
:10501000FEF71AFE00F04AFE4FF49670FBF72AFBEB
:105020008748FDF7D1F862E0FFF756F8854A116826
:10503000854B19605168596092689A60CAE083494B
:105040008348FDF7BBFFCAE0824BD3ED007AB0EE98
:10505000047A77EEC77A9FED807AC7FEC77A9FED14
:105060007F7AC7FE877AC3ED007AFEF707FE01203C
:10507000FBF700FB01247A4B9C81204600F0D4FC16
:105080009FED788A0220B0EE480A00F085FA2046AB
:10509000B0EE480A00F080FA2544B5F57A7FD3DBFC
:1050A0006F4B00229A81704B0D229A809CE0002564
:1050B000F3E76648FEF7FAFA9BE06B4C04F11C003C
:1050C000FEF774F9A38B0B2B40F098800022A2838B
:1050D000A28093E00022E283A280634BDB88012B55
:1050E00000F09B80604B1B89012B00F09D80554B8D
:1050F000D3ED001ADFED5D7A61EEA71A93ED011A88
:1051000021EE271A5A4B93ED007A27EE277A93ED7A
:10511000016A26EE276AB7EEC66A9FED472B86EE38
:10512000024BD3ED026A66EEA76A474B93ED006A25
:1051300026EE276AD3ED015A65EEA75A4D4B93ED43
:10514000005A25EE275A93ED013A23EE273AB7EE9F
:10515000C33A83EE020BD3ED023A63EEA77A464CD4
:10516000FDEEE77ACDED077ABDEEC00B8DED060AB8
:10517000BDEEC55A8DED055AFDEEE55ACDED045A4A
:10518000BDEEC66A8DED036AFDEEE66ACDED026AFC
:10519000BDEEC44B8DED014ABDEEC77A8DED007AB0
:1051A000FDEEC17A17EE903AFDEEE17A17EE902A05
:1051B0003249204602F0F2FC2046FBF7C1F9642395
:1051C00082B221462E48FDF738FE254B9B89002BE5
:1051D0003FF42AAF224B9B89002B7FF430AF224B48
:1051E0009B880A2B3FF463AF1F4B9B880D2B3FF42A
:1051F00060AF1D4B9B8B002B7FF45FAF1A4BDB8B9B
:10520000002B3FF46AAF184C04F11E00FEF76AF958
:10521000E38B0C2B7FF461AF5CE7134CA01DFEF712
:10522000AFFA0023E3805DE70F4C04F10800FEF7BE
:1052300007FB002323815AE7182D4454FB21094022
:105240005C050020C0060020D8060020CC0000200D
:105250001800002008000020008022440000FA43CB
:105260000C00002000000000C800002000007A446C
:10527000CC060020AC060020F4000020D8830008F3
:10528000D802002010B50446082860D8DFE800F0F6
:10529000414B55050F19232D370001212D48FBF7F0
:1052A00099FD012801D001204EE000204CE00821AA
:1052B0002948FBF78FFD012801D0012044E00020A0
:1052C00042E004212548FBF785FD012801D001209B
:1052D0003AE0002038E008212048FBF77BFD012858
:1052E00001D0012030E000202EE004211C48FBF713
:1052F00071FD012801D0012026E0002024E01021CA
:105300001748FBF767FD012801D001201CE00020B1
:105310001AE010211348FBF75DFD012801D00120A0
:1053200012E0204610E008210A48FBF753FD01284F
:1053300001D0204608E0002006E004210548FBF7E4
:1053400049FD012801D0012010BD0020FCE700200C
:10535000FAE700BF00080240000C024000180240BB
:10536000001002400000024010B5012823D002289E
:1053700055D0032800F08480042800F0B28005286E
:1053800030D1B5EEC00AF1EE10FA00F3DE80B5EED2
:10539000C00AF1EE10FA00F1E6807A4C01224FF4D7
:1053A00080512046FBF71DFD01224FF4006120468D
:1053B000FBF717FD16E0B5EEC00AF1EE10FA12D4B5
:1053C000B5EEC00AF1EE10FA1BDD6F4C01224FF46E
:1053D00080412046FBF705FD00224FF400412046A6
:1053E000FBF7FFFC10BD684C00224FF480412046C3
:1053F000FBF7F7FC01224FF400412046FBF7F1FCDC
:10540000F0E7614C01224FF480412046FBF7E9FCB4
:1054100001224FF400412046FBF7E3FCE2E7B5EE42
:10542000C00AF1EE10FA11DCB5EEC00AF1EE10FA86
:1054300019D4564C01224FF400412046FBF7D1FC11
:10544000012208212046FBF7CCFCCBE74F4C002281
:105450004FF400412046FBF7C4FC012208212046FE
:10546000FBF7BFFCBEE7494C01224FF40041204648
:10547000FBF7B7FC002208212046FBF7B2FCB1E79E
:10548000B5EEC00AF1EE10FA11DCB5EEC00AF1EE8D
:1054900010FA19D401224FF400413D48FBF7A1FC5A
:1054A00001224FF480413948FBF79BFC9AE7002228
:1054B0004FF400413648FBF794FC01224FF4804141
:1054C0003248FBF78EFC8DE701224FF40041304853
:1054D000FBF787FC00224FF480412C48FBF781FC4E
:1054E00080E7B5EEC00AF1EE10FA12DCB5EEC00AA4
:1054F000F1EE10FA1BD4274C01224FF480512046C4
:10550000FBF76FFC01224FF400612046FBF769FCBA
:1055100068E7204C00224FF480512046FBF761FCE5
:1055200001224FF400612046FBF75BFC5AE7194C5F
:1055300001224FF480512046FBF753FC00224FF428
:1055400000612046FBF74DFC4CE70E4C00224FF467
:1055500080512046FBF745FC01224FF400612046B4
:10556000FBF73FFC3EE7074C01224FF480512046F9
:10557000FBF737FC00224FF400612046FBF731FCBB
:1055800030E700BF00040240000C0240001402405B
:10559000001002400000024010B52DED028BB0EE6D
:1055A000408AB5EE400AF1EE10FA0BD0B7EE000AD1
:1055B00088FE400AB7EEC00ABFEE007B80FE070BF4
:1055C000B7EEC08B01280CD0022834D003285BD062
:1055D000042800F08280052800F0A980BDEC028B31
:1055E00010BDB0EE480AFFF7BFFEB5EE408AF1EEFF
:1055F00010FA0ED0B0EEC88A9FED620A28EE008A3B
:10560000BCEEC88A18EE103A9BB25F4A1268536328
:10561000E4E75D4B1B6800225A635C4C01224FF4A7
:1056200080412046FBF7DDFB01224FF4004120467C
:10563000FBF7D7FBD2E7B0EE480AFFF795FEB5EED1
:10564000408AF1EE10FA0ED0B0EEC88A9FED4D0AF6
:1056500028EE008ABCEEC88A18EE103A9BB24A4A7D
:1056600012689363BAE7484B1B6800229A63484C60
:1056700001224FF400412046FBF7B3FB0122082131
:105680002046FBF7AEFBA9E7B0EE480AFFF76CFE39
:10569000B5EE408AF1EE10FA0ED0B0EEC88A9FED5A
:1056A000390A28EE008ABCEEC88A18EE103A9BB27E
:1056B000354A1268D36391E7334B1B680022DA63E3
:1056C00001224FF400413348FBF78BFB01224FF4DA
:1056D00080412F48FBF785FB80E7B0EE480AFFF7D3
:1056E00043FEB5EE408AF1EE10FA0ED0B0EEC88A55
:1056F0009FED240A28EE008ABCEEC88A18EE103A04
:105700009BB2254A1268536368E7234B1B6800224B
:105710005A63224C01224FF480512046FBF761FB73
:1057200001224FF400612046FBF75BFB56E7B0EE29
:10573000480AFFF719FEB5EE408AF1EE10FA0ED0D6
:10574000F0EEC87A9FED0F8A67EE887AFCEEE77A72
:1057500017EE903A9BB2104A1268D3633EE70E4BA5
:105760001B680022DA630E4C01224FF48051204660
:10577000FBF737FB01224FF400612046FBF731FBBA
:105780002CE700BF00401C469C050020000C024096
:1057900000140240001002405802002000000240A5
:1057A0000004024008B52DED048B494BD3ED007A7F
:1057B000484A92ED009A37EEC99ABAEE057A29EE78
:1057C000079A93ED017AD2ED016A37EE667AF8EE28
:1057D000046A27EE267A67EE877AD2ED028A93ED85
:1057E000027A78EEC78A9FED3C7A68EE878A3B4B57
:1057F00093ED007AD3ED016A37EE667AF6EE006A31
:1058000027EE267A9FED366AC7EE066A78EEA68AFC
:105810009FED347AB4EEC79AF1EE10FA08DD9FEDF1
:10582000327AB4EEC79AF1EE10FA01D59FED2F9AB5
:105830009FED2C7AF4EEC77AF1EE10FA08DD9FEDB9
:105840002A7AF4EEC77AF1EE10FA01D5DFED277A65
:105850009FED247AF4EEC78AF1EE10FA08DD9FED91
:10586000227AF4EEC78AF1EE10FA01D5DFED1F8A35
:105870009FED1F8AC7FEC87A9FED1E8A87FE888A21
:10588000B5EEC08AF1EE10FA0FDD0120FFF7FAFC49
:1058900028B902209FED150AFFF77EFE14E00220D2
:1058A000B0EE480AFFF778FE0EE00220B0EE480A9C
:1058B000FFF772FE0120B0EE490AFFF76DFE0320EC
:1058C000B0EE680AFFF768FEBDEC048B08BD00BFB0
:1058D000CC060020AC06002000000EC20C02002006
:1058E0000AD7233DEC51B8BDEC51B83D0000000093
:1058F000CDCCCC3ECDCCCCBE08B52DED048B404BF1
:1059000093ED008A3F4A92ED009A38EE499ADFED16
:105910003E7A29EE279AD3ED017A92ED017A77EE5D
:10592000C77A9FED3A7A67EE877A28EE278AD2ED1A
:10593000028AD3ED027A78EEE78ADFED357A68EEF7
:10594000A78ADFED347A88FE678ADFED337A88FE36
:10595000278ADFED327AB4EEE79AF1EE10FA08DD2D
:10596000DFED2F7AB4EEE79AF1EE10FA01D59FED54
:105970002D9ADFED2A7AB4EEE78AF1EE10FA08DD0F
:10598000DFED277AB4EEE78AF1EE10FA01D59FED4C
:10599000258ADFED227AF4EEE78AF1EE10FA08DDCF
:1059A000DFED1F7AF4EEE78AF1EE10FA01D5DFEDB4
:1059B0001D8AB5EEC08AF1EE10FA0FDD0120FFF767
:1059C00061FC28B902209FED170AFFF7E5FD14E0FE
:1059D0000220B0EE480AFFF7DFFD0EE00220B0EE35
:1059E000480AFFF7D9FD0120B0EE490AFFF7D4FDC0
:1059F0000320B0EE680AFFF7CFFDBDEC048B08BDB5
:105A0000CC060020AC0600200000B5C2000072C227
:105A1000000082429A99193F9A9919BFEC51B8BD7A
:105A2000EC51B83D0000000030B587B00546224A71
:105A30006B4607CA83E8070003AC21461846FEF709
:105A400093F81E4B94E8070083E80700D3ED017A32
:105A5000F5EEC07AF1EE10FA1CDB9FED197AF4EE48
:105A6000C77AF1EE10FA15D8164BD3ED016AB7EEEE
:105A7000E67A9FED0D5BB4EEC57BF1EE10FA09D529
:105A80009FED0B5BB4EEC57BF1EE10FA02DD0B4B24
:105A9000C3ED016A1DB1FFF785FE07B030BDFFF70A
:105AA0002BFFFAE7AFF30080182D6402430309408F
:105AB000182D24A6B3400940D8060020AC060020CB
:105AC0000000C842CC06002010B50B4C0021204637
:105AD000FCF7A0FE04212046FCF79CFE082120468E
